:0400000048EF79F05C
:10F1A8004330036E8C94035007EC7AF0C80E00D0FD
:10F1B800E82EFDD71200036E8C84035007EC7AF01A
:10F1C800C80E00D0E82EFDD71200056E05C006F067
:10F1D8000650D8B412000444E846FC0B1009D5ECDC
:10F1E80078F00606F5D701500302F3CF05F0F4CF07
:10F1F80006F001500402F350062602500302F350B1
:10F20800062605C001F006C002F0120016C007F07D
:10F2180017C008F0D5EC7AF0660E196E760E186EE7
:10F22800C10EE82EFED7182EFCD7192EFAD700F0FB
:10F23800120081A2FED781380F0B0F0B016E81B22D
:10F24800FED700F00150010D550EF324F66EFE0EA8
:10F25800F420F76E0800F5501200000E896E000EBB
:10F268008A6E000E8B6E000E8C6E000E8D6E92688C
:10F278009368000E946E000E956E000E966EB8ECB4
:10F2880079F027EC7CF0FFD7A80EF66EF10EF76E3A
:10F29800000EF86E0900F5CF7BF00900F5CF7CF081
:10F2A80000EE60F01B0EEE6AE806FDE1000EF86E57
:10F2B800000131EF79F007C00BF008C00CF004D062
:10F2C8000B4A0C2A094A0A2A09C0F6FF0AC0F7FFA6
:10F2D8000BC0D9FF0CC0DAFF0800F5CFDFFFDF5005
:10F2E800D8B41200EDD70A6E800ED5EC78F0410E36
:10F2F800086EEE0EE82EFED7082EFCD700D0000EC2
:10F30800096E04D0C00ED5EC78F0092A0750095CC4
:10F31800D8A0F8D70A50D8B41200010E046E0A50CB
:10F32800E9EC78F012000A500B10D8B418D0010E8E
:10F338000C6E04D0D8900A360B360C2A0BAEFAD7CE
:10F348000A50085C0B500958D8A004D00A50085E2F
:10F358000B50095AD8900B320A320C2EF1D708C03C
:10F3680008F009C009F01200C30E046ECD0EE82E95
:10F37800FED7042EFCD700F0330ED5EC78F0320E11
:10F38800D5EC78F0280ED5EC78F00F0ED5EC78F0A7
:10F39800060ED5EC78F0010ED5EC78F0C30E046EAD
:10F3A800CD0EE82EFED7042EFCD700F00F0ED5ECBC
:10F3B80078F01200000E066E000E056E0350041061
:10F3C800D8B41CD0010E076E04D0D890033604368A
:10F3D800072A04AEFAD7D890053606360350015CE2
:10F3E80004500258D8A005D00350015E0450025AB8
:10F3F8000580D89004320332072EEDD705C001F0FE
:10F4080006C002F01200026E0250F00B016E8C5022
:10F418000F0B8C6E01508C108C6E000EF2BE010E1C
:10F428007A6EF29E8C86530EE82EFED700F08C96EC
:10F43800C80E00D0E82EFDD77AB002D0F29E01D0D7
:10F44800F28E0238F00B026E0250F00B016E8C50F7
:10F458000F0B8C6E01508C108C6E000EF2BE010EDC
:10F468007A6EF29E8C86530EE82EFED700F08C96AC
:10F47800C80E00D0E82EFDD77AB002D0F29E01D097
:10F48800F28E12000F0E126E000E136E7DD0250E36
:10F498001818D8B404D01850DFEC78F075D0000EE6
:10F4A800146E0DC0F6FF0EC0F7FF0D4A0E2A0800B5
:10F4B800F5CF18F01850000AD8B41200640AD8B46E
:10F4C80003D00D0AD8A460D012C0D9FF13C0DAFF48
:10F4D800DECF16F0DDCF17F0020E1226000E132233
:10F4E80017AE06D0030E1412166C171ED8B0172AC2
:10F4F800010E186E050E1818D8B412D01850020D47
:10F50800760EF324F66EFE0EF420F76E0900F55021
:10F51800165C0900F5501758D8A002D0182AEAD767
:10F5280014C011F0030E1116D8B403D02D0EDFEC61
:10F5380078F018C015F024D01550020D760EF3247B
:10F54800F66EFE0EF420F76E0900F5CF03F00A0000
:10F55800F5CF04F016C001F017C002F0DEEC79F028
:10F5680001C008F002C009F0000E0B6E0A0E0A6E08
:10F5780097EC79F00850300F186E1850DFEC78F0DF
:10F5880015061528D8A4D8D70DC0F6FF0EC0F7FF6A
:10F598000D4A0E2A0800F5CF18F01850D8B41200FA
:10F5A80076D7000E0D6E010E0C6E000E116E100E49
:10F5B800106E12681368000E0F6E000E0E6E010EAC
:10F5C800D5EC78F0C30E096ECD0EE82EFED7092EC5
:10F5D800FCD700F0800ED5EC78F0410E096EEE0EE7
:10F5E800E82EFED7092EFCD700D0000E156E000EAF
:10F5F800146E15BE08D0155005E1110E145CD8B074
:10F6080087D001D085D014500724096E15500820E2
:10F618000A6E09C0F6FF0AC0F7FF000EF86E0F0E5B
:10F62800F76403D00800F55005D0F6CFE9FFF7CF0F
:10F63800EAFFEF500009D8B46BD014500724096EC4
:10F64800155008200A6E09C0F6FF0AC0F7FF000E21
:10F65800F86E0F0EF76403D00800F55005D0F6CF0A
:10F66800E9FFF7CFEAFFEF50200AD8A404D014C06E
:10F678000EF015C00FF014500724096E155008201D
:10F688000A6E09C0F6FF0AC0F7FF000EF86E0F0EEB
:10F69800F76403D00800F55005D0F6CFE9FFF7CF9F
:10F6A800EAFFEF500A0AD8A408D014C012F015C017
:10F6B80013F012C010F013C011F0100E141815102A
:10F6C800D8A41FD014500724096E155008200A6EBC
:10F6D80009C0F6FF0AC0F7FF000EF86E0F0EF764B8
:10F6E80003D00800F55005D0F6CFE9FFF7CFEAFFC1
:10F6F800EF50200AD8A413AE04D00EC010F00FC0EB
:10F7080011F0144A152A15BE7ED7155001E175D798
:10F71800000E156E000E146E15BE08D0155005E1CA
:10F72800200E145CD8B0120001D012001450072427
:10F73800096E155008200A6E09C0F6FF0AC0F7FFC7
:10F74800000EF86E0F0EF76403D00800F55005D0D0
:10F75800F6CFE9FFF7CFEAFFEF500009D8B412005F
:10F76800105014184FE111501518D8A44BD0870E1B
:10F77800F66EFE0EF76E0800F550096E0A6A09501B
:10F788000C5C0D50800A0B6E0A50800A0B58D8B0DA
:10F7980039D00C4A0D2AC00ED5EC78F01450072445
:10F7A800096E155008200A6E09C0F6FF0AC0F7FF57
:10F7B800000EF86E0F0EF76403D00800F55005D060
:10F7C800F6CFE9FFF7CFEAFFEF50200AD8B433D0DD
:10F7D80014500724096E155008200A6E09C0F6FF58
:10F7E8000AC0F7FF000EF86E0F0EF76403D008008A
:10F7F800F55005D0F6CFE9FFF7CFEAFFEF500A0A38
:10F80800D8B419D014500724096E155008200A6E70
:10F8180009C0F6FF0AC0F7FF000EF86E0F0EF76476
:10F8280003D00800F55005D0F6CFE9FFF7CFEAFF7F
:10F83800EF50DFEC78F0144A152A15BE77D715502B
:10F8480001E16ED71200010ED5EC78F0C30E1A6EE6
:10F85800CD0EE82EFED71A2EFCD700F0800ED5EC80
:10F8680078F0410E1A6EEE0EE82EFED71A2EFCD74F
:10F8780000D0000E5C6E000E5B6E7BC03EF07CC05C
:10F888003FF0000E586E000E576E000E436E000ECD
:10F8980093D257505810D8A448D057C001F058C038
:10F8A80002F0000E046E210E036EF7EC78F06B0E7A
:10F8B8000124076EFF0E0220086ED5EC7AF01DECCD
:10F8C80079F05F6ED00E5F24596E5A6AFF0E5A2285
:10F8D8005F50DFEC78F01A0E1B6E5E0E1A6E6E0E1D
:10F8E800E82EFED71A2EFCD71B2EFAD700D05ABE08
:10F8F80015D05A5004E1040E595CD8A00FD05ABE56
:10F9080006D05A500BE1090E595CD8B007D059C03F
:10F9180060F05AC061F0574A582A4FD28B0E166EC3
:10F92800FE0E176E0AEC79F048D257045810D8A486
:10F9380044D2000E416E000E406EFC0E1A6EFF0E91
:10F948001B6E60C01CF061C01DF01A501C261B50B5
:10F958001D22800E1C24F66EFE0E1D20F76E080078
:10F96800F5CF52F0000E5C6E000E5B6E5CBE08D0E8
:10F978005C5005E1080E5B5CD8B01BD201D019D2EF
:10F988005BC01AF052C01BF01A2A02D0D8901B3262
:10F998001A2EFCD71BA0D7D1000E4F6E000E4E6E4C
:10F9A80036D1000E456E000E446E000E476E000EF6
:10F9B800466E000E496E000E486E000E4B6E000E2D
:10F9C8004A6E1E0E076E000E086E57C001F058C032
:10F9D80002F0000E046E210E036EF7EC78F06B0E49
:10F9E8000124096EFF0E02200A6E5FEC79F05B506D
:10F9F800310F2C6E1E0E076E000E086ED5EC7AF0D5
:10FA0800010E076E090E77EC79F0000E546E000EA9
:10FA18003BD01DEC79F05F6E420E5F18D8B40CD065
:10FA28004E0E5F18D8B408D0530E5F18D8B404D05F
:10FA3800570E5F18D8A421D05F50DFEC78F0420E43
:10FA48005F18D8A403D0444A452A14D04E0E5F1834
:10FA5800D8A403D0464A472A0DD0530E5F18D8A41D
:10FA680003D0484A492A06D0570E5F18D8A402D0B6
:10FA78004A4A4B2A534A542A14D0230E5F18D8A452
:10FA880005D0000E546E040E536E0BD02A0E5F186C
:10FA9800D8A407D05B06D8A05C064006D8A04106CB
:10FAA8006FD754BEB6D7545004E1040E535CD8A0A7
:10FAB800B0D7000E4D6E000E4C6E000E5E6E000E3E
:10FAC8005D6E5EBE08D05E5005E1140E5D5CD8B078
:10FAD8008DD001D08BD05DC01AF05EC01BF0D890DD
:10FAE8001A361B36D8901A361B36050E1A24F66EAF
:10FAF800FE0E1B20F76E0800F5501C6E1D6A445060
:10FB08001C186DE145501D18D8A469D05DC01AF0C5
:10FB18005EC01BF0D8901A361B36D8901A361B36A2
:10FB2800010E1A26000E1B22050E1A24F66EFE0E72
:10FB38001B20F76E0800F5501C6E1D6A46501C18F5
:10FB48004EE147501D18D8A44AD05DC01AF05EC0D7
:10FB58001BF0D8901A361B36D8901A361B36020E70
:10FB68001A26000E1B22050E1A24F66EFE0E1B2006
:10FB7800F76E0800F5501C6E1D6A48501C182FE1DE
:10FB880049501D18D8A42BD05DC01AF05EC01BF0D8
:10FB9800D8901A361B36D8901A361B36030E1A26FA
:10FBA800000E1B22050E1A24F66EFE0E1B20F76EA1
:10FBB8000800F5501C6E1D6A4A501C1810E14B5085
:10FBC8001D18D8A40CD0620E5B24D96E000E5C20E0
:10FBD800DA6E5DC0DFFF000E4D6E010E4C6E5D4AA1
:10FBE8005E2A5EBE78D75E5001E16FD74C504D104B
:10FBF800D8A407D08B0E166EFE0E176E0AEC79F09D
:10FC080006D0000E4F6E010E4E6E404A412A4E50ED
:10FC18004F10D8B4C6D6000E516E000E8FD0AD0E60
:10FC2800076EFF0E086ED5EC7AF0010E076E0E0E09
:10FC380077EC79F01DEC79F05F6ED00E5F24596E89
:10FC48005A6AFF0E5A225F50DFEC78F01A0E1B6ECC
:10FC58005E0E1A6E6E0EE82EFED71A2EFCD71B2EDD
:10FC6800FAD700D0000E566E000E556E000E5E6E6E
:10FC7800000E5D6E5EBE06D05E5026E1040E5D5C31
:10FC8800D8B022D0620E5B24D96E000E5C20DA6EEA
:10FC9800DF501A6E1A50040D050E1B6EFE0E1C6EF8
:10FCA800F3501B26F4501C225D501B265E501C226C
:10FCB8001BC0F6FF1CC0F7FF0800F5505526000EC4
:10FCC80056225D4A5E2AD6D759C001F05AC002F0C2
:10FCD80055C003F056C004F0F7EC78F002BE06D029
:10FCE800025015E1050E015CD8B011D059C001F0E1
:10FCF8005AC002F055C003F056C004F0F7EC78F093
:10FD080002BE05D002500AE10104D8B007D08B0E1C
:10FD1800166EFE0E176E0AEC79F011D0D8905B348F
:10FD2800D96E5C34DA6E6A0ED926000EDA2259C012
:10FD3800DEFF5AC0DDFF000E516E010E506E5050AE
:10FD48005110D8B46CD7010ED5EC78F0C30E1A6EEA
:10FD5800CD0EE82EFED71A2EFCD700F0800ED5EC7B
:10FD680078F0410E1A6EEE0EE82EFED71A2EFCD74A
:10FD780000D0F80E0D6EFF0E0E6E5BC00FF05CC06B
:10FD880010F046EC7AF0660E1B6E760E1A6EC10EF7
:10FD9800E82EFED71A2EFCD71B2EFAD700F05B4AA6
:10FDA8005C2A5CBEEDD55C5004E1080E5B5CD8A013
:10FDB800E7D5000E436E010E426E42504310D8B490
:10FDC80068D5010ED5EC78F0C30E1A6ECD0EE82E6C
:10FDD800FED71A2EFCD700F0800ED5EC78F0410E35
:10FDE8001A6EEE0EE82EFED71A2EFCD700D0EF0EB4
:10FDF8000D6EFF0E0E6E46EC7AF012000001000048
:10FE080000000100000000010000000001010100E5
:10FE180000010001000100000102010000020001D0
:10FE280000020000010101000101000101010000C0
:10FE380002010100020100010202000101020100A9
:10FE48000101020001010300000100000331323307
:10FE5800423435364E373839532A302357002A3C36
:10FE68002D20202028202D202920202020000100BE
:10FE78000A006400E8031027555B777FFF00010242
:10FE8800100228496E76616C696420656E74727917
:10FE98000A506C65617365207472792061676169C5
:10FEA8006E0000546F6F206D616E79206661737407
:10FEB800656E65727300000000000000000000001D
:10FEC800000000546F6F206D616E7920626F6C7452
:10FED80073000000000000000000000000000000A7
:10FEE800000000546F6F206D616E79206E75747319
:10FEF80000000000000000000000000000000000FA
:10FF0800000000546F6F206D616E7920776173680F
:10FF1800657273000000000000000000000000008F
:10FF2800000000546F6F206D616E792073706163FB
:10FF3800657273000000000000000000000000006F
:10FF48000000004E6F2066617374656E65727320E1
:10FF580073656C6563746564000000000000000050
:10FF6800000000417373656D626C7920737465706D
:10FF7800730A2A3C2D202028342D382920202020BF
:10FF88002000000046617374656E65727320696EA7
:10FF98002043780A2A3C2D28424E535729202020F6
:10FFA800202D3E2300486F77206D616E79207365A0
:10FFB80074733F0A2A3C2D202028312D3429202013
:10FFC800202020000000436F6E6669726D3F0A2A88
:10FFD8003C2D202028413A592F423A4E2920000032
:10FFE80000000000000000576520646F6E65210066
:08FFF800636E3A20256400004D
:020000040020DA
:08000000FFFFFFFFFFFFFFFF00
:020000040030CA
:0E000000FF061F1EFF8181FF0FC00FE00F40A3
:00000001FF
