:0400000007EF00F016
:100008005982DFED0FF079EF10F0010E06EC14F0D5
:10001800C30E00018C6FCD0EE82EFED78C2FFCD7B7
:10002800800E06EC14F0410E00018C6FEE0EE82EE7
:10003800FED78C2FFCD700F0D50E2A6EFE0E2B6E45
:10004800BD0EF66EFC0EF76E000EF86E0800F55049
:1000580030EC10F0000E0001E46F000EE36FFDC0FD
:10006800C8F0FEC0C9F0000EE06F000EDF6F000E92
:10007800CC6F000ECB6F3CD3DF51E011D8A44BD02E
:10008800DFC027F0E0C028F0000E2A6E210E296E8E
:10009800ADEC13F0A40E27242D6EFD0E28202E6E35
:1000A800D7EC0AF070EC13F00001E76FD00EE725EB
:1000B800E16FE26BFF0EE223E751FCEC13F01A0E3E
:1000C80000018D6F5E0E8C6F6E0EE82EFED78C2FA2
:1000D800FCD78D2FFAD700F00001E2BF15D0E2510E
:1000E80004E1040EE15DD8A00FD0E2BF06D0E251D2
:1000F8000BE1090EE15DD8B007D0E1C0A3F1E2C081
:10010800A4F1DF4BE02BF4D2C40E326EFC0E336E3A
:100118009AEC13F0EDD20001DF05E011D8A4E8D283
:10012800FC0E8C6FFF0E8D6FA3C18EF0A4C18FF0F3
:100138008C518E278D518F23B80E8E25F66EFC0EAE
:100148008F21F76EF86A000EF8220800F5CFCAF082
:10015800000EE46F000EE36FE4BF08D0E45105E140
:10016800080EE35DD8B0B2D201D0B0D2E3C08CF0B3
:10017800CAC08DF08C2B02D0D8908D338C2FFCD731
:1001880000018DA184D221EE22F010EE90F0170E1E
:10019800DBCFE3FFE806FCE2E351310FA56F900ED9
:1001A8002A6E000E2B6EBD0EF66EFC0EF76E000E5C
:1001B800F86E0800F55030EC10F0000E0001D06F1A
:1001C800000E51D1000ED86F000ED76F000EDA6FF7
:1001D800000ED96F000EDC6F000EDB6F000EDE6FB5
:1001E800000EDD6FA80E2D6E000E2E6EDFC027F0FC
:1001F800E0C028F0000E2A6E210E296EADEC13F037
:10020800A40E27242F6EFD0E2820306E57EC13F015
:100218000001E351310FB66FA80E2D6E000E2E6E41
:10022800D7EC0AF0010E2D6E090EFDEC12F0000E4F
:100238000001D46F000E4DD070EC13F00001E76F91
:10024800420EE719D8B40CD04E0EE719D8B408D02E
:10025800530EE719D8B404D0570EE719D8A422D002
:10026800E751FCEC13F0420E0001E719D8A403D0C3
:10027800D74BD82B14D04E0EE719D8A403D0D94B9E
:10028800DA2B0DD0530EE719D8A403D0DB4BDC2BA7
:1002980006D0570EE719D8A402D0DD4BDE2BD34B7E
:1002A800D42B21D0230EE719D8A415D0D751D811B3
:1002B800D8A40CD0D951DA11D8A408D0DB51DC115C
:1002C800D8A404D0DD51DE11D8B40DD0000ED46FFF
:1002D800040ED36F08D02A0EE719D8A404D0E30778
:1002E800D8A0E407C6D0D4BFA7D7D45104E1040EE0
:1002F800D35DD8A0A1D7000ECE6F000ECD6F000E33
:10030800E66F000EE56FE6BF08D0E65105E1150E71
:10031800E55DD8B099D001D097D0E5C08CF0E6C0A3
:100328008DF0D8908C378D37D8908C378D37280E34
:100338008C25F66EFE0E8D21F76EF86A000EF822F7
:100348000800F5508E6F8F6BD7518E1976E1D85112
:100358008F19D8A472D0E5C08CF0E6C08DF0D89083
:100368008C378D37D8908C378D37010E8C27000E3F
:100378008D23280E8C25F66EFE0E8D21F76EF86AF9
:10038800000EF8220800F5508E6F8F6BD9518E1928
:1003980054E1DA518F19D8A450D0E5C08CF0E6C0EA
:1003A8008DF0D8908C378D37D8908C378D37020EDA
:1003B8008C27000E8D23280E8C25F66EFE0E8D21BF
:1003C800F76EF86A000EF8220800F5508E6F8F6BF2
:1003D800DB518E1932E1DC518F19D8A42ED0E5C03B
:1003E8008CF0E6C08DF0D8908C378D37D8908C374C
:1003F8008D37030E8C27000E8D23280E8C25F66E64
:10040800FE0E8D21F76EF86A000EF8220800F550EE
:100418008E6F8F6BDD518E1910E1DE518F19D8A4C4
:100428000CD0A50EE325D96E010EE421DA6EE5C0E5
:10043800DFFF000ECE6F010ECD6FE54BE62BE6BF5A
:100448006CD7E65101E163D7CD51CE11D8A407D0BE
:10045800C40E326EFC0E336E9AEC13F005D0000E0B
:100468000001D06F010ECF6F0001CF51D011D8B469
:10047800A9D6000ED26F000E03D1E60E2D6EFD0E2A
:100488002E6ED7EC0AF0010E2D6E0E0EFDEC12F05A
:1004980070EC13F00001E76FD00EE725E16FE26B17
:1004A800FF0EE2232A0EE719D8B460D6E751FCEC18
:1004B80013F01A0E00018D6F5E0E8C6F6E0EE82E13
:1004C800FED78C2FFCD78D2FFAD700F0000E000135
:1004D800D66F000ED56F000EE66F000EE56FE6BF13
:1004E80006D0E65127E1040EE55DD8B023D0A50E6D
:1004F800E325D96E010EE421DA6EDF508C6F8C5142
:10050800040D280E8D6FFE0E8E6FF3508D27F4505C
:100518008E23E5518D27E6518E238DC0F6FF8EC0C0
:10052800F7FFF86A0800F550D527000ED623E54BEB
:10053800E62BD5D7E1C027F0E2C028F0D5C029F0D6
:10054800D6C02AF0ADEC13F028BE0DD0285004E137
:10055800050E275CD8A007D0E40E326EFC0E336E71
:100568009AEC13F08ED0E1C027F0E2C028F0D5C095
:1005780029F0D6C02AF0ADEC13F028BE05D02850DB
:100588000AE12704D8B007D0840E326EFD0E336E10
:100598009AEC13F076D0D7C027F0D8C028F0E1C085
:1005A80029F0E2C02AF0ADEC13F028BE0DD0285097
:1005B80004E1030E275CD8A007D0040E326EFD0EAE
:1005C800336E9AEC13F05DD0D9C027F0DAC028F06A
:1005D800E1C029F0E2C02AF0ADEC13F028BE0DD03E
:1005E800285004E1040E275CD8A007D0240E326EF0
:1005F800FD0E336E9AEC13F044D0DBC027F0DCC05C
:1006080028F0E1C029F0E2C02AF0ADEC13F028BED2
:100618000DD0285004E1030E275CD8A007D0640E43
:10062800326EFD0E336E9AEC13F02BD0DDC027F03E
:10063800DEC028F0E1C029F0E2C02AF0ADEC13F0EA
:1006480028BE0DD0285004E1050E275CD8A007D09D
:10065800440E326EFD0E336E9AEC13F012D0D89021
:100668000001E335D96EE435DA6EAD0ED926010EF8
:10067800DA22E1C0DEFFE2C0DDFF000ED26F010E1C
:10068800D16F0001D151D211D8A416D0F6D6A50E3B
:10069800E325D96E010EE421DA6E000EDF6ED890E4
:1006A800E335D96EE435DA6EAD0ED926010EDA22BD
:1006B800000EDE6E000EDD6EE34BE42BE4BF56D574
:1006C800E45104E1080EE35DD8A050D5000ECC6FCC
:1006D800010ECB6FB10E2A6EFF0E2B6EBD0EF66E9D
:1006E800FC0EF76E000EF86E0800F55030EC10F0B6
:1006F8000001CB51CC11D8A41200BED40ED2250EC5
:1007080000019A19D8B436D020EE02F08951D926C2
:100718008A51DA22DE50DE10D8B416D020EE02F06C
:100728008951D9268A51DA22DECF8FF0DDCF90F0B9
:1007380001D8F3D10500FA6E8F51FD6E9051FE6E0F
:10074800FF6AFA509A51120089C0D9FF8AC0DAFFAD
:10075800DECF8FF0DDCF90F08FC0D9FF90C0DAFFE9
:100768009AC0DFFF89C0D9FF8AC0DAFFDE2A000EEF
:10077800DD22D3D1000E0001936F91D093898FD0E1
:100788008DC0D9FF8EC0DAFFDFCF8FF0020EDE26D4
:10079800DFCF90F0000EDD228FC0D9FF90C0DAFFC6
:1007A800DECF98F0DDCF99F098519911D8A462D096
:1007B800ED0E986FFF0E996F5DD0000120EE02F0EC
:1007C8008951D9268A51DA22DE50DE10D8B42AD0CF
:1007D80020EE02F08951D9268A51DA22DECF8FF035
:1007E800DDCF90F001D81AD00500FA6E8F51FD6E5A
:1007F8009051FE6EFF6AFA5098C0F6FF99C0F7FF55
:10080800000EF86E0F0EF76403D00800F55005D0FF
:10081800F6CFE9FFF7CFEAFFEF5012000001984B3F
:10082800992B28D098C0F6FF99C0F7FF000EF86EF4
:1008380089C0D9FF8AC0DAFFDECF8FF0DDCF90F014
:100848008FC0D9FF90C0DAFF0F0EF76403D00800FD
:10085800F55005D0F6CFE9FFF7CFEAFFEF50DF6E8E
:100868000001984B992B89C0D9FF8AC0DAFFDE2A8C
:10087800000EDD2298C0F6FF99C0F7FF000EF86E53
:100888000F0EF76403D00800F55005D0F6CFE9FF46
:10089800F7CFEAFFEF500009D8B43FD18ED78BC00D
:1008A800F6FF8CC0F7FF00018B4B8C2BF86A080011
:1008B800F5CF9AF09A51000AD8B43DD1640AD8B459
:1008C8000AD00D0AD8B407D0050AD8B457D71F0ADA
:1008D800D8B456D722D1000193A919D08DC0D9FF19
:1008E8008EC0DAFFDFCF8FF0040EDE26DFCF90F068
:1008F800000EDD228FC0D9FF90C0DAFFDECF94F062
:10090800DECF95F0DECF96F0DECF97F019D08DC010
:10091800D9FF8EC0DAFFDFCF8FF0020EDE26DFCFE1
:1009280090F0000EDD228FC0D9FF90C0DAFFDECF35
:1009380094F0DDCF95F0000E95BFFF0E966F976F80
:1009480097AF0AD0030E9313971F961F951F946DA8
:10095800000E952396239723010E9A6F0A0E9A1973
:10096800D8B41BD09A51040D6F0EF324F66EFC0E0A
:10097800F420F76EF86A000EF8220900F550945D2D
:100988000900F55095590900F55096590900F55098
:100998009759D8A002D09A2BE1D793C08FF0030EB5
:1009A8008F17D8B435D020EE02F08951D9268A5154
:1009B800DA22DE50DE10D8B416D020EE02F08951CB
:1009C800D9268A51DA22DECF8FF0DDCF90F001D818
:1009D8001FD00500FA6E8F51FD6E9051FE6EFF6AB2
:1009E800FA502D0E120089C0D9FF8AC0DAFFDECF77
:1009F8008FF0DDCF90F08FC0D9FF90C0DAFF2D0EB9
:100A0800DF6E89C0D9FF8AC0DAFFDE2A000EDD2238
:100A180000019A51916F926B91BF920775D091C066
:100A28008FF092C090F0D8908F379037D8908F374A
:100A380090376F0E8F25F66EFC0E9021F76EF86AD0
:100A4800000EF8220900F5CF2BF00900F5CF2CF0A5
:100A58000900F5CF2DF00A00F5CF2EF094C027F04D
:100A680095C028F096C029F097C02AF0FCEC10F049
:100A780027C080F028C081F029C082F02AC083F006
:100A88000A0E0001846F000E856F000E866F000E3F
:100A9800876F29EC12F000018051300F9A6F20EE19
:100AA80002F08951D9268A51DA22DE50DE10D8B4F4
:100AB80016D020EE02F08951D9268A51DA22DECFEB
:100AC8008FF0DDCF90F001D81FD00500FA6E8F515E
:100AD800FD6E9051FE6EFF6AFA509A51120089C05D
:100AE800D9FF8AC0DAFFDECF8FF0DDCF90F08FC05C
:100AF800D9FF90C0DAFF9AC0DFFF89C0D9FF8AC04A
:100B0800DAFFDE2A000EDD2200019107D8A0920745
:100B1800912985E19229D8A482D78BC0F6FF8CC091
:100B2800F7FF00018B4B8C2BF86A0800F5CF9AF081
:100B38009A51D8A4E4D5000E8A6F000E896F12006E
:100B480000018E6F9268000E276E000EDAEC0EF030
:100B5800000E276E010EDAEC0EF0000E276E020E64
:100B6800DAEC0EF0000E276E030EDAEC0EF0000E33
:100B78000001A06F000E9F6F000EA26F000EA16F04
:100B8800000EA46F000EA36F000EA66F000EA56FD7
:100B9800000EA86F000EA76F000EAA6F000EA96FB7
:100BA800000EAC6F000EAB6F000EAE6F000EAD6F97
:100BB800000E8F6F000E906F000E916F000E926FF7
:100BC800000E936F000E946F000E956F000E966FD7
:100BD800000E976F000E986F000E996F000E9A6FB7
:100BE800000E9B6F000E9C6F000E9D6F000E9E6F97
:100BF800020EAF6F10EC14F022EC14F027C02AF0AC
:100C080028C02BF029C02CF05EEC0EF02AC0B0F002
:100C18002BC0B1F02CC0B2F02DC0B3F080B035D0ED
:100C28000001AF518F25896F000E90218A6F000E49
:100C380091218B6F000E92218C6FB051895DB1515B
:100C48008A59B2518B598C51800A8D6FB351800AE1
:100C58008D59D8B01AD0B0C08FF0B1C090F0B2C0E2
:100C680091F0B3C092F09F4BA02B344A352A930ED3
:100C78002A6EFF0E2B6EBD0EF66EFC0EF76E000E82
:100C8800F86E0800F55030EC10F080B235D0000155
:100C9800AF519325896F000E94218A6F000E95211C
:100CA8008B6F000E96218C6FB051895DB1518A59B6
:100CB800B2518B598C51800A8D6FB351800A8D596E
:100CC800D8B01AD0B0C093F0B1C094F0B2C095F0CB
:100CD800B3C096F0A14BA22B364A372ABF0E2A6E14
:100CE800FF0E2B6EBD0EF66EFC0EF76E000EF86E44
:100CF8000800F55030EC10F080B435D00001AF5149
:100D08009725896F000E98218A6F000E99218B6FA5
:100D1800000E9A218C6FB051895DB1518A59B25138
:100D28008B598C51800A8D6FB351800A8D59D8B078
:100D38001AD0B0C097F0B1C098F0B2C099F0B3C063
:100D48009AF0A34BA42B384A392A610E2A6EFF0E5B
:100D58002B6EBD0EF66EFC0EF76E000EF86E0800D8
:100D6800F55030EC10F080B635D00001AF519B251E
:100D7800896F000E9C218A6F000E9D218B6F000EDB
:100D88009E218C6FB051895DB1518A59B2518B59EE
:100D98008C51800A8D6FB351800A8D59D8B01AD002
:100DA800B0C09BF0B1C09CF0B2C09DF0B3C09EF043
:100DB800A54BA62B3A4A3B2A720E2A6EFF0E2B6EC3
:100DC800BD0EF66EFC0EF76E000EF86E0800F550BC
:100DD80030EC10F000018E51896F8A6B89519F5D4C
:100DE800A051800A8B6F8A51800A8B59D8A00AD0EB
:100DF800020E276E000EDAEC0EF0000E0001A86F4E
:100E0800010EA76F8651896F8A6B8951A15DA25126
:100E1800800A8B6F8A51800A8B59D8A00AD0020E9B
:100E2800276E010EDAEC0EF0000E0001AA6F010E1B
:100E3800A96F8751896F8A6B8951A35DA451800A74
:100E48008B6F8A51800A8B59D8A00AD0020E276E60
:100E5800020EDAEC0EF0000E0001AC6F010EAB6F63
:100E68008851896F8A6B8951A55DA651800A8B6F5D
:100E78008A51800A8B59D8A00AD0020E276E030E19
:100E8800DAEC0EF0000E0001AE6F010EAD6FA75147
:100E9800A811D8B4B1D6A951AA11D8B4ADD6AB51BE
:100EA800AC11D8B4A9D6AD51AE11D8B4A5D62C0E74
:100EB8002A6EFF0E2B6EBD0EF66EFC0EF76E000E40
:100EC800F86E0800F55030EC10F0020E2A6E000E95
:100ED8002B6EBD0EF66EFC0EF76E000EF86E080057
:100EE800F55030EC10F0FE0E00018A6FA70E896FE6
:100EF800650EE82EFED7892FFCD78A2FFAD700D0A7
:100F08001200000E0001F36F010EF26F0001F251A2
:100F1800F311D8B40BD09D0E2D6EFE0E2E6ED7ECAD
:100F28000AF0000E0001F36F000EF26F70EC13F080
:100F38000001E86FE851F46FF56BF451FCEC13F025
:100F4800D00E0001E86FFF0EE96FF4C0EAF0F5C0BB
:100F5800EBF0E851EA27E951EB23EA51EB11D8A469
:100F680003D01DEC13F0CDD7D00EE86FFF0EE96F5C
:100F7800F4C0EAF0F5C0EBF0E851EA27E951EB23B9
:100F8800EA05EB11D8A473D109EC00F0010E06ECC8
:100F980014F0C30E0001E86FCD0EE82EFED7E82F3F
:100FA800FCD7800E06EC14F0410E0001E86FEE0E3F
:100FB800E82EFED7E82FFCD700F0500E00019B6FFB
:100FC800FF0E9C6F3BEC13F0C00E06EC14F0220EE3
:100FD80000019B6FFF0E9C6F3BEC13F070EC13F05D
:100FE80002D070EC13F00001E86FE851F06FF16B7C
:100FF800D00EE86FFF0EE96FF0C0EAF0F1C0EBF039
:10100800E851EA27E951EB23EA05EB11D8A4E9D71F
:10101800F1EC13F0010E06EC14F0C30E0001E86FBA
:10102800CD0EE82EFED7E82FFCD7800E06EC14F084
:10103800410E0001E86FEE0EE82EFED7E82FFCD730
:1010480000F0190E00019B6FFF0E9C6F3BEC13F034
:10105800040E2A6EFF0E2B6EBD0EF66EFC0EF76E9A
:10106800000EF86E0800F55030EC10F050EC09F066
:1010780039EC0CF08CEC12F08BC0ECF08CC0EDF07D
:101088008DC0EEF08EC0EFF0E40E00019B6FFF0EF6
:101098009C6F3BEC13F0330E0001E96FBB0EE86F59
:1010A800DF0EE82EFED7E82FFCD7E92FFAD700D0BD
:1010B800000E0001F76F000EF66FF7BF06D0F7516C
:1010C80055E1080EF65DD8B051D0010E06EC14F0CB
:1010D800C30E0001E86FCD0EE82EFED7E82FFCD72F
:1010E800800E06EC14F0410E0001E86FEE0EE82EBB
:1010F800FED7E82FFCD700F0CD0E00019B6FFF0E46
:101108009C6F010EF6259D6F000EF7219E6FA50EB0
:10111800F625D96E010EF721DA6EDF50E86FE85137
:10112800050D3A0EF3249F6F010EF420A06FD8909E
:10113800F635D96EF735DA6EAD0ED926010EDA22FC
:10114800DECFA1F0DDCFA2F03BEC13F0660E00017C
:10115800E96F760EE86FC10EE82EFED7E82FFCD7B0
:10116800E92FFAD70001F64BF72BA7D7010E06ECAB
:1011780014F0C30E0001E86FCD0EE82EFED7E82F5D
:10118800FCD7800E06EC14F0410E0001E86FEE0E5D
:10119800E82EFED7E82FFCD700F0D90E00019B6F90
:1011A800FF0E9C6F3BEC13F0C00E06EC14F0830EA0
:1011B80000019B6FFF0E9C6F3CC09DF03DC09EF0F0
:1011C8003EC09FF03FC0A0F040C0A1F041C0A2F0D7
:1011D80042C0A3F043C0A4F03BEC13F0660E00013C
:1011E800E96F760EE86FC10EE82EFED7E82FFCD720
:1011F800E92FFAD7010E06EC14F0C30E0001E86FD0
:10120800CD0EE82EFED7E82FFCD7800E06EC14F0A2
:10121800410E0001E86FEE0EE82EFED7E82FFCD74E
:1012280000F0F40E00019B6FFF0E9C6F3BEC13F077
:10123800C00E06EC14F0FA0E00019B6FFF0E9C6FB7
:10124800ECC09DF0EDC09EF0EEC09FF0EFC0A0F0A6
:101258003BEC13F0660E0001E96F760EE86FC10EE5
:10126800E82EFED7E82FFCD7E92FFAD721D7D00EE2
:101278000001E86FFF0EE96FF4C0EAF0F5C0EBF08B
:10128800E851EA27E951EB23020EEA19EB11D8A439
:101298003DD687EC13F035D6000E356E000E346E51
:1012A800000E376E000E366E000E396E000E386E68
:1012B800000E3B6E000E3A6E7C0E2A6EFE0E2B6EF2
:1012C800BD0EF66EFC0EF76E000EF86E0800F550B7
:1012D80030EC10F0000E0201436F080E426F43BF5E
:1012E8001200435103E14205D8A0120021EE00F09C
:1012F80012EE00F0210EDBCFE3FFE806FCE24251DC
:10130800300F1F6F000E2A6E020E2B6EBD0EF66E8A
:10131800FC0EF76E000EF86E0800F55030EC10F079
:10132800FF0E0001B46FFF0EB56F42C2B6F043C2A4
:10133800B7F0B451B627B551B723A50EB625D96E67
:10134800010EB721DA6EDF50D8B423D1FF0EB46F87
:10135800FF0EB56F42C2B6F043C2B7F0B451B6271C
:10136800B551B723A50EB625D96E010EB721DA6E91
:10137800DF50B86FB851040D280EF3240201446FF2
:10138800FE0EF420456FFE0E0001B46FFF0EB56F20
:1013980042C2B6F043C2B7F0D890B637B737B451A7
:1013A800B627B551B723AD0EB625D96E010EB721B4
:1013B800DA6EDECF46F2DDCF47F2220E9B6F020EC9
:1013C8009C6FEE0E9D6FFE0E9E6F44C2F6FF45C2E7
:1013D800F7FFF86A0800F550276E286A46C229F018
:1013E80047C22AF0ADEC13F027C09FF028C0A0F048
:1013F800010E020144250001B46F000E02014521CF
:101408000001B56FB4C0F6FFB5C0F7FFF86A080071
:10141800F550276E286A46C229F047C22AF0ADEC7B
:1014280013F027C0A1F028C0A2F0020E0201442543
:101438000001B66F000E020145210001B76FB6C06A
:10144800F6FFB7C0F7FFF86A0800F550276E286A5C
:1014580046C229F047C22AF0ADEC13F027C0A3F02A
:1014680028C0A4F0030E020144250001B86F000E45
:10147800020145210001B96FB8C0F6FFB9C0F7FFF6
:10148800F86A0800F550276E286A46C229F047C254
:101498002AF0ADEC13F027C0A5F028C0A6F0DBECCD
:1014A80012F0220E2A6E020E2B6EBD0EF66EFC0E88
:1014B800F76E000EF86E0800F55030EC10F0010ED3
:1014C80006EC14F0C30E0001B46FCD0EE82EFED763
:1014D800B42FFCD7800E06EC14F0410E0001B46F57
:1014E800EE0EE82EFED7B42FFCD700F0A20E0001B6
:1014F8009B6FFF0E9C6F42C29DF043C29EF03BEC77
:1015080013F0010E020144250001B46F000E020120
:1015180045210001B56FB4C0F6FFB5C0F7FFF86A02
:101528000800F55002014603F3CF86F0020E442569
:101538000001B66F000E020145210001B76FB6C069
:10154800F6FFB7C0F7FFF86A0800F5500201460336
:10155800F3CF87F0030E44250001B86F000E020197
:1015680045210001B96FB8C0F6FFB9C0F7FFF86AA6
:101578000800F55002014603F3CF88F044C2F6FF95
:1015880045C2F7FFF86A0800F5504603F350A4EC8B
:1015980005F002014207D8A0430743BF1200435198
:1015A80001E1A1D6A3D6000E0001816F010E806F64
:1015B800000E856F100E846F86698769000E836F31
:1015C800000E826F010E06EC14F0C30E2F6ECD0EC6
:1015D800E82EFED72F2EFCD700F0800E06EC14F074
:1015E800410E2F6EEE0EE82EFED72F2EFCD700D020
:1015F800000E0001896F000E886F89BF08D08951DD
:1016080005E1110E885DD8B08DD001D08BD08851FE
:101618002D242F6E89512E20306E2FC0F6FF30C03A
:10162800F7FF000EF86E0F0EF76403D00800F550B0
:1016380005D0F6CFE9FFF7CFEAFFEF500009D8B49D
:1016480071D0000188512D242F6E89512E20306EC3
:101658002FC0F6FF30C0F7FF000EF86E0F0EF764CC
:1016680003D00800F55005D0F6CFE9FFF7CFEAFF21
:10167800EF50200AD8A404D088C082F089C083F033
:10168800000188512D242F6E89512E20306E2FC0D5
:10169800F6FF30C0F7FF000EF86E0F0EF76403D0A8
:1016A8000800F55005D0F6CFE9FFF7CFEAFFEF5075
:1016B8000A0AD8A408D088C086F089C087F086C0F6
:1016C80084F087C085F0100E000188198911D8A40C
:1016D80021D088512D242F6E89512E20306E2FC095
:1016E800F6FF30C0F7FF000EF86E0F0EF76403D058
:1016F8000800F55005D0F6CFE9FFF7CFEAFFEF5025
:10170800200AD8B407D0000187AF04D082C084F083
:1017180083C085F00001884B892B89BF78D7895110
:1017280001E16FD7000E0001896F000E886F89BF35
:1017380008D0895105E1200E885DD8B0120001D08B
:10174800120088512D242F6E89512E20306E2FC003
:10175800F6FF30C0F7FF000EF86E0F0EF76403D0E7
:101768000800F55005D0F6CFE9FFF7CFEAFFEF50B4
:101778000009D8B4120000018451881953E1855139
:101788008919D8A44FD0C00EF66EFC0EF76E000E65
:10179800F86E0800F5502F6E306A2F50805D815129
:1017A800800A316E3050800A3158D8B03BD0804B17
:1017B800812BC00E06EC14F0000188512D242F6EE9
:1017C80089512E20306E2FC0F6FF30C0F7FF000E73
:1017D800F86E0F0EF76403D00800F55005D0F6CF69
:1017E800E9FFF7CFEAFFEF50200AD8B435D000015F
:1017F80088512D242F6E89512E20306E2FC0F6FF70
:1018080030C0F7FF000EF86E0F0EF76403D0080023
:10181800F55005D0F6CFE9FFF7CFEAFFEF500A0AF7
:10182800D8B41AD0000188512D242F6E89512E204A
:10183800306E2FC0F6FF30C0F7FF000EF86E0F0EA7
:10184800F76403D00800F55005D0F6CFE9FFF7CFCD
:10185800EAFFEF50FCEC13F00001884B892B89BF9D
:1018680070D7895101E167D71200030E2A6E000E66
:101878002B6EBD0EF66EFC0EF76E000EF86E0800AD
:10188800F55030EC10F0000E0001816F640E806F8F
:10189800000E3D6E000E3C6E000E3F6E000E3E6E5A
:1018A800000E416E000E406E000E436E000E426E3A
:1018B800000E276E000EDAEC0EF0000E0001836FAA
:1018C800000E826F1DD080B002D03C4A3D2A3450B1
:1018D8003C24326E35503D20336E140E32183310CE
:1018E800D8B418D0020E336E450E326EAA0EE82E0A
:1018F800FED7322EFCD7332EFAD70001824B832B2A
:101908008051825D8351800A326E8151800A32583B
:10191800D8A0D9D7020E276E000EDAEC0EF0040E0E
:101928002A6E000E2B6EBD0EF66EFC0EF76E000EC4
:10193800F86E0800F55030EC10F0FE0E336EA70E6E
:10194800326E660EE82EFED7322EFCD7332EFAD72B
:10195800000E276E010EDAEC0EF0000E0001836F08
:10196800000E826F1DD080B202D03E4A3F2A365008
:101978003E24326E37503F20336E190E3218331022
:10198800D8B418D0020E336E450E326EAA0EE82E69
:10199800FED7322EFCD7332EFAD70001824B832B89
:1019A8008051825D8351800A326E8151800A32589B
:1019B800D8A0D9D7020E276E010EDAEC0EF0050E6C
:1019C8002A6E000E2B6EBD0EF66EFC0EF76E000E24
:1019D800F86E0800F55030EC10F0FE0E336EA70ECE
:1019E800326E660EE82EFED7322EFCD7332EFAD78B
:1019F800000E276E020EDAEC0EF0000E0001836F67
:101A0800000E826F1DD080B402D0404A412A38505F
:101A18004024326E39504120336E140E3218331080
:101A2800D8B418D0020E336E450E326EAA0EE82EC8
:101A3800FED7322EFCD7332EFAD70001824B832BE8
:101A48008051825D8351800A326E8151800A3258FA
:101A5800D8A0D9D7020E276E020EDAEC0EF0060EC9
:101A68002A6E000E2B6EBD0EF66EFC0EF76E000E83
:101A7800F86E0800F55030EC10F0FE0E336EA70E2D
:101A8800326E660EE82EFED7322EFCD7332EFAD7EA
:101A9800000E276E030EDAEC0EF0000E0001836FC5
:101AA800000E826F11D080B602D0424A432A3A50C3
:101AB8004224326E3B504320336E230E32183310CB
:101AC800D8B40CD0824B832B8051825D8351800A1D
:101AD800326E8151800A3258D8A0E5D7000EC7B8B7
:101AE800010E276E030EDAEC0EF0070E2A6E000EBA
:101AF8002B6EBD0EF66EFC0EF76E000EF86E08002B
:101B0800F55030EC10F012000BC00FF0106A116A9B
:101B18000A340F3601E310800F50146E0EC00FF018
:101B2800106A116A0D340F3601E310800F50136EDE
:101B38001450D8B40BD01350145CD8B00ED0145035
:101B4800000813240F6E180E0F6407D00CC009F09C
:101B58000DC00AF00EC00BF012001350D8B40BD011
:101B68001450135CD8B00ED01350000814240F6E14
:101B7800180E0F6407D009C009F00AC00AF00BC09C
:101B88000BF01200060E126E0BBE128E0EBE128CD9
:101B98000A8EFF0E0916FF0E0A16000E0B160D8E82
:101BA800FF0E0C16FF0E0D16000E0E161350145CC9
:101BB800D8B01BD0D8900C360D360E3613061450FC
:101BC8001318D8B40DD0120612C00FF0070E0F1656
:101BD800D8B406D0EFD7D8900B320A320932142A7B
:101BE80013501418D8B41FD0F6D71450135CD8B0BB
:101BF8001AD0D89009360A360B3614061450131822
:101C0800D8B40DD0120612C00FF0070E0F16D8B4B4
:101C180006D0EFD7D8900E320D320C32132A13505B
:101C28001418D8A4F7D712AE0CD0FF0E091AFF0E5D
:101C38000A1AFF0E0B1A010E0926000E0A22000EC0
:101C48000B2212AC0CD0FF0E0C1AFF0E0D1AFF0E51
:101C58000E1A010E0C26000E0D22000E0E22000E8A
:101C6800126E09500C260A500D220B500E220EAE91
:101C78000ED0FF0E0C1AFF0E0D1AFF0E0E1A010ED3
:101C88000C26000E0D22000E0E22010E126E0CC044
:101C980001F00DC002F00EC003F014C004F012C031
:101CA80005F036EC0FF001C009F002C00AF003C0DD
:101CB8000BF012002CC02EF02F6A306A2B342E360F
:101CC80001E32F802E500001856F8551D8A409D0DB
:101CD800000E2A6E000E2B6E000E2C6E000E2D6E5E
:101CE8001200170E2E6E2AC02FF02BC030F02CC019
:101CF80031F02E28326E04D0D890313230322F3263
:101D0800322EFAD72F500001806F2B8EFF0E2A1625
:101D1800FF0E2B16000E2C162A50816F2B50826F47
:101D28002C50836F846B8E0E855F85AF16D08551DE
:101D3800800A8F0FD8B009D0000E2A6E000E2B6EC5
:101D4800000E2C6E000E2D6E1200D8908433833353
:101D580082338133853FF9D715D0170E85650FD0AB
:101D6800000E2A6E000E2B6E000E2C6E000E2D6ECD
:101D78001200D89081378237833784378507855199
:101D8800D8A4F7D78051D8B408D0841F831F821FE6
:101D9800816D000E82238323842381C02AF082C0B0
:101DA8002BF083C02CF084C02DF01200286E4CD08C
:101DB8002750D8A403D08A868B9012002704D8A471
:101DC80003D08A968B801200020E2718D8A412001E
:101DD8008A868B8012002750D8A403D08B828B94DC
:101DE80012002704D8A403D08B928B841200020E11
:101DF8002718D8A412008B828B8412002750D8A4ED
:101E080003D08B8A8B9C12002704D8A403D08B9A0A
:101E18008B8C1200020E2718D8A412008B8A8B8C88
:101E280012002750D8A403D08B8E8D90120027045F
:101E3800D8A403D08B9E8D801200020E2718D8A438
:101E480012008B8E8D8012002850000AD8B4B0D7AB
:101E5800010AD8B4C0D7030AD8B4D0D7010AD8A485
:101E68001200DFD70450D8B405D001500210031077
:101E7800D8A40CD0000E016E000E026E000E036E88
:101E88001200042AD890033202320132000E0114E3
:101E9800066E000E0214076EFE0E0314086E06503E
:101EA80007100810D8B40CD0ECD7042A010E01266C
:101EB800000E0222000E0322D890033202320132B1
:101EC800000E0114066E000E0214076EFF0E0314B6
:101ED800086E065007100810D8B406D0E6D70406D6
:101EE800D89001360236033602BE03D0020E0460D3
:101EF800F6D704A0029ED89004320450031205506D
:101F0800D8A4038E01C001F002C002F003C003F0A0
:101F180012000153746172746564207061636B61AF
:101F280067696E6720636F6D706172746D656E743A
:101F380020780000015374617274656420636F6DCA
:101F4800706172746D656E74207800004E4F4E4556
:101F58000042000000004E00000000530000000096
:101F68005700000000424E000000425300000042AB
:101F78005700000042424E000042425300004242D5
:101F8800570000424E57000042535700004257572F
:101F98000000424E4E570042535757004242535793
:101FA8000042424E5700424E4E5700424E4E4E009F
:051FB8004257575700DD
:101FBE000600FACF15F0FBCF16F0E9CF17F0EACFF7
:101FCE0018F0E1CF19F0E2CF1AF0D9CF1BF0DACF2B
:101FDE001CF0F3CF1DF0F4CF1EF0F6CF1FF0F7CFAD
:101FEE0020F0F8CF21F0F5CF22F059C023F05AC0DF
:101FFE0024F05BC025F05CC026F0F2BAF2A403D048
:10200E00F294F2EC11F026C05CF025C05BF024C017
:10201E005AF023C059F022C0F5FF21C0F8FF20C0AE
:10202E00F7FF1FC0F6FF1EC0F4FF1DC0F3FF1CC05C
:10203E00DAFF1BC0D9FF1AC0E2FF19C0E1FF18C0BA
:10204E00EAFF17C0E9FF16C0FBFF15C0FAFF599251
:10205E0011002F6E000E316E000E306E32EC14F049
:10206E002FC028F0296A29EC14F01FD030502A24F2
:10207E002C6E31502B202D6E2CC0F6FF2DC0F7FF8D
:10208E00000EF86E0F0EF76403D00800F55005D061
:10209E00F6CFE9FFF7CFEAFFEF502E6E2E50286EE7
:1020AE00296A29EC14F0304A312A30502A242C6E39
:1020BE0031502B202D6E2CC0F6FF2DC0F7FF000ED9
:1020CE00F86E0F0EF76403D00800F55005D0F6CF6A
:1020DE00E9FFF7CFEAFFEF500009D8A4C7D72EECDF
:1020EE0014F012001A0EF66E1F0EF76E000EF86E3A
:1020FE0001EE00F010EEA3F00900F5CFEEFFE55073
:10210E00E150FAE1720EF66E280EF76E000EF86EC2
:10211E000900F5CFFDF00900F5CFFEF06C0EF66E5E
:10212E00280EF76E000EF86E00EE53F010EE06F06D
:10213E000900F5CFEEFFE550E150FAE101EEA3F014
:10214E001A0EEE6AE806FDE10001FC6BFB6BFA6B02
:10215E00F96B00EE34F01F0EEE6AE806FDE15990C1
:10216E0059920001BBEF10F0000E896E000E8A6EC0
:10217E00000E8B6E000E8C6E000E8D6E9268F70E3A
:10218E00936E000E946E000E956E000E966E000EFF
:10219E00C26E0F0EC16EA00E0001806F860E816F93
:1021AE00010E826F000E836F5DEC12F0B5EC12F033
:1021BE00010E06EC14F0C30E0001F86FCD0EE82EE2
:1021CE00FED7F82FFCD7800E06EC14F0410E00015E
:1021DE00F86FEE0EE82EFED7F82FFCD700F01DECB0
:1021EE0013F085EC07F007EF00F0000E2F6E000ED7
:1021FE00306E000E316E000E326E2B502C102D10E4
:10220E002E10D8B42AD0010E336E06D0D8902B36AD
:10221E002C362D362E36332A2EAEF8D7D8902F36B2
:10222E003036313632362B50275C2C5028582D50F4
:10223E0029582E502A58D8A009D02B50275E2C5042
:10224E00285A2D50295A2E502A5A2F80D8902E3285
:10225E002D322C322B32332EE1D72FC027F030C047
:10226E0028F031C029F032C02AF01200286E285012
:10227E00F00B276E8C500F0B8C6E27508C108C6EC3
:10228E00000EF2BE010E526EF29E8C86530EE82E9A
:10229E00FED700F08C96C80E00D0E82EFDD752B0B7
:1022AE0002D0F29E01D0F28E2838F00B286E285004
:1022BE00F00B276E8C500F0B8C6E27508C108C6E83
:1022CE00000EF2BE010E526EF29E8C86530EE82E5A
:1022DE00FED700F08C96C80E00D0E82EFDD752B077
:1022EE0002D0F29E01D0F28E1200800E2A6E000EE7
:1022FE002B6EB9EC11F082C027F0286A0E0E2A6EF2
:10230E00100E296EADEC13F0000181513C0D805181
:10231E00316E326AF3503126F45032222750312674
:10232E002850322283C027F0286A510E2A6E800E62
:10233E00296EADEC13F0275031262850322231C0D1
:10234E0087F032C088F00001000E88BFFF0E896F43
:10235E008A6F87C02DF088C02EF089C02FF08AC0FA
:10236E0030F0120032EC14F0000E296ED00E286EF2
:10237E0029EC14F0000E296E000E286E29EC14F0D4
:10238E002EEC14F032EC14F0000E296ED10E286EE5
:10239E0029EC14F0000E2C6E050E2C6401D00ED01C
:1023AE002C50010DF3502A24D96EF4502B20DA6EE6
:1023BE00000EC0EC13F0DF6E2C2AEED720EE06F0E6
:1023CE002A50D9262B50DA22010EC0EC13F0DF6E04
:1023DE002EEC14F0120053C009F054C00AF055C090
:1023EE000BF0CD0E0C6ECC0E0D6E3D0E0E6E88ECFF
:1023FE000DF009C053F00AC054F00BC055F0010E99
:10240E000001F927000EFA23FB23FC235150D8B408
:10241E0014D056C009F057C00AF058C00BF0CD0EBC
:10242E000C6ECC0E0D6E3D0E0E6E88EC0DF009C0CE
:10243E0056F00AC057F00BC058F0F20ED76EC00E11
:10244E00D66E120000018451851186118711D8B401
:10245E0024D0010E886F06D0D89084378537863702
:10246E008737882B87AFF8D78451805D8551815986
:10247E008651825987518359D8A008D08451805FE4
:10248E008551815B8651825B8751835BD890873300
:10249E00863385338433882FE7D780C080F081C0A0
:1024AE0081F082C082F083C083F01200C69A9486B7
:1024BE009488800EC76E280EC66E000EC56E000E76
:1024CE00276E5A0E286E620E296E020E2A6E80C07C
:1024DE0084F081C085F082C086F083C087F0020E42
:1024EE00D89000018437853786378737E82EF8D79E
:1024FE0084C02BF085C02CF086C02DF087C02EF046
:10250E00FCEC10F02704C86E12007CEC11F02DC00C
:10251E0044F02EC045F02FC046F030C047F048C002
:10252E008FF049C090F04AC091F04BC092F000017C
:10253E008F1F901F911F921F8F2B000E90239123A0
:10254E00922344508F258B6F455090218C6F4650AF
:10255E0091218D6F475092218E6F1200C30E2A6EFD
:10256E00CD0EE82EFED72A2EFCD700F0330E06EC49
:10257E0014F0320E06EC14F0280E06EC14F00F0ECA
:10258E0006EC14F0060E06EC14F0010E06EC14F038
:10259E00C30E2A6ECD0EE82EFED72A2EFCD700F0E3
:1025AE000F0E06EC14F012009BC0A9F09CC0AAF00E
:1025BE00000E0001AB6F000EAC6F9F0EA76F000EEA
:1025CE00A86FA90E896F000E8A6F9DC08BF09EC0FA
:1025DE008CF0A70E8D6F000E8E6F82EC03F0A9C0EB
:1025EE00D9FFAAC0DAFF000EDF6E1200306E800E29
:1025FE0006EC14F0410E2E6EEE0EE82EFED72E2EA9
:10260E00FCD700D0000E2F6E04D0C00E06EC14F0D6
:10261E002F2A2D502F5CD8A0F8D73050D8B41200E6
:10262E00010E2A6E3050E3EC13F012003F0E2D6EA9
:10263E00FF0E2E6ED7EC0AF070EC13F000018A6FCD
:10264E008A51326E336AD00E8A6FFF0E8B6F32C094
:10265E008CF033C08DF08A518C278B518D238C05D5
:10266E008D11D8B41200E8D7000E0001A76F000E2E
:10267E00A86FF80EA96F270EAA6F9D0EA56F000EFC
:10268E00A66FA70E896F000E8A6F9BC08BF09CC041
:10269E008CF0A50E8D6F000E8E6F82EC03F0120083
:1026AE002DC031F02EC032F004D0314A322A2F4ADA
:1026BE00302A2FC0F6FF30C0F7FFF86A31C0D9FFBD
:1026CE0032C0DAFF0800F5CFDFFFDF50D8B41200BA
:1026DE00ECD781A2FED781380F0B0F0B276E81B27C
:1026EE00FED700F02750010D970EF324F66EFC0E68
:1026FE00F420F76EF86A000EF8220800F55012006A
:10270E00BB0E2D6EFE0E2E6ED7EC0AF070EC13F093
:10271E00326E325000018A6F8B6B2A0E8A198B1122
:10272E00D8B41200F3D732C02DF033C02EF0D7EC50
:10273E000AF0660E00018B6F760E8A6FC10EE82EC0
:10274E00FED78A2FFCD78B2FFAD7120027502902DB
:10275E00F3CF2BF0F4CF2CF027502A02F3502C2677
:10276E0028502902F3502C262BC027F02CC028F01D
:10277E001200286E19EC14F0C58619EC14F0C9CFAE
:10278E0029F019EC14F028B002D0C59A01D0C58AF0
:10279E00C588295012005050D8A41200D59CD59A45
:1027AE00D596D584D582D580F20ED76EC00ED66E54
:1027BE00D58EF28AF28E12002B6E2BC02CF02C507E
:1027CE00D8B412002A44E846FC0B100906EC14F0AB
:1027DE002C06F5D77CEC11F02DC048F02EC049F038
:1027EE002FC04AF030C04BF01200296E8C84295055
:1027FE003DEC11F0C80E00D0E82EFDD71200296E68
:10280E008C9429503DEC11F0C80E00D0E82EFDD767
:10281E001200D2EC13F0000E536E000E546E000E2A
:10282E00556E1200C7B4FED7C5CF27F01F0E271660
:10283E00D8B41200F7D753C027F054C028F055C0B3
:10284E0029F0120019EC14F028C0C9FF120019EC7F
:10285E0014F0C584120019EC14F0C580120000802B
:06286E00BF0080BF4330F3
:10FC6E0000010000000A00000064000000E803002C
:10FC7E000010270000A086010040420F00809698D9
:10FC8E000000E1F50500CA9A3B3132334234353675
:10FC9E004E373839532A302357002A3C2D20202046
:10FCAE0028202D20292020202000555B777FFF1053
:10FCBE00000102100228496E76616C696420656E3F
:10FCCE007472790A506C6561736520747279206163
:10FCDE006761696E0000546F6F206D616E792066EA
:10FCEE00617374656E6572730000000000000000A1
:10FCFE00000000000000546F6F206D616E7920626D
:10FD0E006F6C747300000000000000000000000023
:10FD1E00000000000000546F6F206D616E79206E40
:10FD2E007574730000000000000000000000000069
:10FD3E00000000000000546F6F206D616E79207717
:10FD4E00617368657273000000000000000000001F
:10FD5E00000000000000546F6F206D616E792073FB
:10FD6E007061636572730000000000000000000007
:10FD7E000000000000004E6F2066617374656E65B2
:10FD8E0072732073656C6563746564000000000017
:10FD9E00000000000000417373656D626C79207382
:10FDAE00746570730A2A3C2D202028342D382920A2
:10FDBE002020202000000046617374656E6572730A
:10FDCE0020696E2043780A2A3C2D28424E5357292B
:10FDDE00202020202D3E2300486F77206D616E7904
:10FDEE0020736574733F0A2A3C2D202028312D3450
:10FDFE00292020202020000000436F6E6669726D5E
:10FE0E003F0A2A3C2D202028413A592F423A4E29AA
:10FE1E0020000000000000000000000000000100B3
:10FE2E0000000001000000000100000000010101BF
:10FE3E0000000100010001000001020100000200AB
:10FE4E000100020000010101000101000101010099
:10FE5E000002010100020100010202000101020183
:10FE6E000001010200010103000001000003014531
:10FE7E006E746572656420746865207061636B6171
:10FE8E0067696E672066756E6374696F6E00003009
:10FE9E003A536C65657020313A426567696E200A87
:10FEAE00323A2056696577204C6F6773004E6F7437
:10FEBE00207468657265207965740A2A20746F2033
:10FECE0072657475726E0053746172746564206924
:10FEDE006E70757420656E7472792C2068690000DE
:10FEEE0001423A2564204E3A256420533A25642077
:10FEFE00573A25640000015374617274696E67206D
:10FF0E007061636B6167696E670000537461727430
:10FF1E00696E67207061636B6167696E670001448B
:10FF2E006F6E6520636F6D706172746D656E7400B7
:10FF3E00005072657373203120746F20626567699B
:10FF4E006E005072657373203120746F207374616C
:10FF5E007274000153706163657220436F756E7425
:10FF6E00656400000157617368657220436F756E9A
:10FF7E007465640000422564204E25642053256478
:10FF8E00205725640001426F6C7420436F756E74A8
:10FF9E0065640000436F6D706172746D656E7420E0
:10FFAE0025640001446F6E6520696E707574730070
:10FFBE0000014E757420436F756E746564000043C6
:10FFCE0025643A202573207825640052656D616999
:10FFDE006E696E673A0053756D6D6172793A0028DD
:10FFEE006E756C6C290054696D653A00256C640061
:01FFFE000002
:020000040020DA
:08000000FFFFFFFFFFFFFFFF00
:020000040030CA
:0E000000FF061F1EFF8181FF0FC00FE00F40A3
:00000001FF
