:0400000069EF77F03D
:10EC8800433052EC76F0C580120052EC76F0C58421
:10EC9800120052EC76F002C0C9FF1200C7B4FED7CA
:10ECA800C5CF01F01F0E0116D8B41200F7D7036EB6
:10ECB8008C94035089EC78F0C80E00D0E82EFDD76C
:10ECC8001200036E8C84035089EC78F0C80E00D0D3
:10ECD800E82EFDD71200056E05C006F00650D8B420
:10ECE80012000444E846FC0B10095BEC76F00606BB
:10ECF800F5D79E0E076EFF0E086EA3EC7AF0B5EC02
:10ED080076F0166E1650176E186A2A0E1718181015
:10ED1800D8B41200F4D701500302F3CF05F0F4CFB2
:10ED280006F001500402F350062602500302F35085
:10ED3800062605C001F006C002F0120016C007F052
:10ED480017C008F0A3EC7AF0660E196E760E186EEE
:10ED5800C10EE82EFED7182EFCD7192EFAD700F0D0
:10ED6800120081A2FED781380F0B0F0B016E81B202
:10ED7800FED700F00150010DE50EF324F66EFD0EEE
:10ED8800F420F76EF86A000EF8220800F550120019
:10ED980007C00BF008C00CF004D00B4A0C2A094A33
:10EDA8000A2A09C0F6FF0AC0F7FFF86A0BC0D9FFA4
:10EDB8000CC0DAFF0800F5CFDFFFDF50D8B412002F
:10EDC800ECD7D10E076EFF0E086EA3EC7AF0B5EC07
:10EDD80076F0166E16501A6E1B6AD00E166EFF0E5F
:10EDE800176E1AC018F01BC019F0165018261750C5
:10EDF800192218041910D8B41200E9D70A6E800E27
:10EE08005BEC76F0410E086EEE0EE82EFED7082E6B
:10EE1800FCD700D0000E096E04D0C00E5BEC76F073
:10EE2800092A0750095CD8A0F8D70A50D8B41200AC
:10EE3800010E046E0A506FEC76F012000A500B10A7
:10EE4800D8B418D0010E0C6E04D0D8900A360B3600
:10EE58000C2A0BAEFAD70A50085C0B500958D8A0F8
:10EE680004D00A50085E0B50095AD8900B320A3267
:10EE78000C2EF1D708C008F009C009F01200C30E23
:10EE8800046ECD0EE82EFED7042EFCD700F0330E0C
:10EE98005BEC76F0320E5BEC76F0280E5BEC76F0ED
:10EEA8000F0E5BEC76F0060E5BEC76F0010E5BEC79
:10EEB80076F0C30E046ECD0EE82EFED7042EFCD7D6
:10EEC80000F00F0E5BEC76F01200330EF66EF00ECB
:10EED800F76E000EF86E01EE00F010EE69F0090012
:10EEE800F5CFEEFFE550E150FAE1880EF66EEC0E34
:10EEF800F76E000EF86E0900F5CF69F00900F5CF3E
:10EF08006AF000EE80F01A0EEE6AE806FDE16B6A20
:10EF180000014EEF78F0000E066E000E056E0350ED
:10EF28000410D8B41CD0010E076E04D0D890033654
:10EF38000436072A04AEFAD7D890053606360350A9
:10EF4800015C04500258D8A005D00350015E04505B
:10EF5800025A0580D89004320332072EEDD705C037
:10EF680001F006C002F01200C69A94869488800EBA
:10EF7800C76E280EC66E000EC56E000E016E5A0EC4
:10EF8800026E620E036E020E046E0EC012F00FC007
:10EF980013F010C014F011C015F0020ED8901236FC
:10EFA800133614361536E82EF9D712C005F013C0FB
:10EFB80006F014C007F015C008F0C8EC78F001049A
:10EFC800C86E1200086E000E0A6E000E096E45EC3F
:10EFD80076F008C002F0036A4DEC76F013D00950C1
:10EFE8000424066E0A500520076E06C0F6FF07C007
:10EFF800F7FFF86A0800F550026E036A4DEC76F0E8
:10F00800094A0A2A09500424066E0A500520076E88
:10F0180006C0F6FF07C0F7FFF86A0800F5500009B8
:0AF02800D8A4DDD749EC76F0120001
:10F033004E4F4E450042000000004E0000000053BA
:10F04300000000005700000000424E000000425341
:10F05300000000425700000042424E00004242536B
:10F0630000004242570000424E57000042535700EF
:10F07300004257570000424E4E5700425357570025
:10F08300424253570042424E5700424E4E570042AF
:10F093004E4E4E004257575700000E896E000E8A9F
:10F0A3006E000E8B6E000E8C6E000E8D6E9268F7E6
:10F0B3000E936E000E946E000E956E000E966EA06B
:10F0C3000E0E6E860E0F6E010E106E000E116EB8D0
:10F0D300EC77F043EC77F0010E5BEC76F0C30E684F
:10F0E3006ECD0EE82EFED7682EFCD700F0800E5BA7
:10F0F300EC76F0410E686EEE0EE82EFED7682EFC1D
:10F10300D700D0E5EC76F009EC79F000EF00F002DF
:10F113006E0250F00B016E8C500F0B8C6E01508CF5
:10F12300108C6E000EF2BE010E6B6EF29E8C865337
:10F133000EE82EFED700F08C96C80E00D0E82EFD08
:10F14300D76BB002D0F29E01D0F28E0238F00B02E0
:10F153006E0250F00B016E8C500F0B8C6E01508CB5
:10F16300108C6E000EF2BE010E6B6EF29E8C8653F7
:10F173000EE82EFED700F08C96C80E00D0E82EFDC8
:10F18300D76BB002D0F29E01D0F28E1200000E09AE
:10F193006E000E0A6E000E0B6E000E0C6E0550060E
:10F1A3001007100810D8B42AD0010E0D6E06D0D85F
:10F1B3009005360636073608360D2A08AEF8D7D836
:10F1C3009009360A360B360C360550015C065002A0
:10F1D300580750035808500458D8A009D0055001C7
:10F1E3005E0650025A0750035A0850045A0980D841
:10F1F3009008320732063205320D2EE1D709C001DD
:10F20300F00AC002F00BC003F00CC004F0120000BF
:10F213000E636E010E626E62506310D8B40AD08022
:10F223000E076EFF0E086EA3EC7AF0000E636E00FD
:10F233000E626EB5EC76F05E6E5E50646E656A6467
:10F243005065EC76F0D00E5E6EFF0E5F6E64C060AC
:10F25300F065C061F05E5060265F506122605061CE
:10F2630010D8A403D0E5EC76F0D2D7D00E5E6EFFB3
:10F273000E5F6E64C060F065C061F05E5060265F33
:10F2830050612260046110D8A46DD0F7EC7BF0EEDE
:10F293000E0D6EFF0E0E6EC8EC79F0330E5F6EBB73
:10F2A3000E5E6EE00EE82EFED75E2EFCD75F2EFAC2
:10F2B300D7000E676E000E666E67BE06D06750F805
:10F2C300E1080E665CD8B0F4D7010E5BEC76F0C3B0
:10F2D3000E5E6ECD0EE82EFED75E2EFCD700F080BC
:10F2E3000E5BEC76F0410E5E6EEE0EE82EFED75E00
:10F2F3002EFCD700D0E20E0D6EFF0E0E6E010E66D1
:10F30300240F6E000E6720106E820E6624D96E00E5
:10F313000E6720DA6EDF505E6E5E50050D000EF351
:10F3230024116E010EF420126ED8906634D96E67E4
:10F3330034DA6E8A0ED926000EDA22DECF13F0DD20
:10F34300CF14F0C8EC79F0660E5F6E760E5E6EC178
:10F353000EE82EFED75E2EFCD75F2EFAD700F0669E
:10F363004A672AAAD7D00E5E6EFF0E5F6E64C06036
:10F37300F065C061F05E5060265F506122020E604E
:10F38300186110D8A448D77DEC76F041D70F0E183A
:10F393006E000E196EC8D0250E1E18D8B404D01EE8
:10F3A3005065EC76F0C0D0000E166E3FD018C0D971
:10F3B300FF19C0DAFFDECF1AF0DDCF1BF0020E1803
:10F3C30026000E19221A501B10D8A41AD0F70E1AB1
:10F3D3006EFF0E1B6E15D01AC0F6FF1BC0F7FF00A1
:10F3E3000EF86E0F0EF76403D00800F55005D0F643
:10F3F300CFE9FFF7CFEAFFEF5065EC76F01A4A1B2F
:10F403002A1AC0F6FF1BC0F7FF000EF86E0F0EF7A7
:10F413006403D00800F55005D0F6CFE9FFF7CFEA33
:10F42300FFEF500009D8B47FD0D6D70DC0F6FF0E3A
:10F43300C0F7FF0D4A0E2AF86A0800F5CF1EF01E2A
:10F4430050000AD8B41200640AD8B407D00D0AD801
:10F45300B404D01A0AD8B4AAD766D018C0D9FF19F1
:10F46300C0DAFFDECF1CF0DDCF1DF0020E18260040
:10F473000E19221DAE06D0030E16121C6C1D1ED8CB
:10F48300B01D2A010E1E6E050E1E18D8B415D01E0F
:10F4930050020D060EF324F66EFE0EF420F76EF8FE
:10F4A3006A000EF8220900F5501C5C0900F5501D96
:10F4B30058D8A002D01E2AE7D716C015F0030E15A0
:10F4C30016D8B403D02D0E65EC76F01EC017F027C6
:10F4D300D01750020D060EF324F66EFE0EF420F73D
:10F4E3006EF86A000EF8220900F5CF03F00A00F562
:10F4F300CF04F01CC001F01DC002F08FEC77F001C7
:10F50300C008F002C009F0000E0B6E0A0E0A6E224C
:10F51300EC77F00850300F1E6E1E5065EC76F01736
:10F52300061728D8A4D5D70DC0F6FF0EC0F7FF0DD8
:10F533004A0E2AF86A0800F5CF1EF01E50D8B412FE
:10F54300002AD7000E0D6E010E0C6E000E116E1008
:10F553000E106E12681368000E0F6E000E0E6E0111
:10F563000E5BEC76F0C30E096ECD0EE82EFED709C6
:10F573002EFCD700F0800E5BEC76F0410E096EEEA8
:10F583000EE82EFED7092EFCD700D0000E156E0014
:10F593000E146E15BE08D0155005E1110E145CD87B
:10F5A300B087D001D085D014500724096E155008B8
:10F5B300200A6E09C0F6FF0AC0F7FF000EF86E0FAF
:10F5C3000EF76403D00800F55005D0F6CFE9FFF736
:10F5D300CFEAFFEF500009D8B46BD01450072409C9
:10F5E3006E155008200A6E09C0F6FF0AC0F7FF0027
:10F5F3000EF86E0F0EF76403D00800F55005D0F631
:10F60300CFE9FFF7CFEAFFEF50200AD8A404D014C4
:10F61300C00EF015C00FF014500724096E155008E2
:10F62300200A6E09C0F6FF0AC0F7FF000EF86E0F3E
:10F633000EF76403D00800F55005D0F6CFE9FFF7C5
:10F64300CFEAFFEF500A0AD8A408D014C012F0156D
:10F65300C013F012C010F013C011F0100E141815DF
:10F6630010D8A41FD014500724096E155008200A7F
:10F673006E09C0F6FF0AC0F7FF000EF86E0F0EF713
:10F683006403D00800F55005D0F6CFE9FFF7CFEAC1
:10F69300FFEF50200AD8A413AE04D00EC010F00F11
:10F6A300C011F0144A152A15BE7ED7155001E17515
:10F6B300D7000E156E000E146E15BE08D01550053A
:10F6C300E1200E145CD8B0120001D01200145007D0
:10F6D30024096E155008200A6E09C0F6FF0AC0F708
:10F6E300FF000EF86E0F0EF76403D00800F5500507
:10F6F300D0F6CFE9FFF7CFEAFFEF500009D8B412F5
:10F70300001050141851E111501518D8A44DD018F9
:10F713000EF66EFE0EF76E000EF86E0800F5500939
:10F723006E0A6A09500C5C0D50800A0B6E0A5080F9
:10F733000A0B58D8B039D00C4A0D2AC00E5BEC76B0
:10F74300F014500724096E155008200A6E09C0F6FC
:10F75300FF0AC0F7FF000EF86E0F0EF76403D00820
:10F7630000F55005D0F6CFE9FFF7CFEAFFEF5020C1
:10F773000AD8B433D014500724096E155008200A50
:10F783006E09C0F6FF0AC0F7FF000EF86E0F0EF702
:10F793006403D00800F55005D0F6CFE9FFF7CFEAB0
:10F7A300FFEF500A0AD8B419D014500724096E1574
:10F7B3005008200A6E09C0F6FF0AC0F7FF000EF8D2
:10F7C3006E0F0EF76403D00800F55005D0F6CFE9AD
:10F7D300FFF7CFEAFFEF5065EC76F0144A152A15D0
:10F7E300BE75D7155001E16CD71200010E5BEC76A4
:10F7F300F0C30E1A6ECD0EE82EFED71A2EFCD700DC
:10F80300F0800E5BEC76F0410E1A6EEE0EE82EFEE3
:10F81300D71A2EFCD700D0B80E046EFF0E056E1556
:10F823000EF66EFE0EF76E000EF86E0800F550E64B
:10F83300EC77F0000E5A6E000E596E69C03EF06A06
:10F84300C03FF0000E566E000E556E000E416E0066
:10F853000E97D255505610D8A448D055C001F05633
:10F86300C002F0000E046E210E036E8FEC76F0FCE6
:10F873000E0124076EFE0E0220086EA3EC7AF0B58B
:10F88300EC76F05D6ED00E5D24576E586AFF0E580D
:10F89300225D5065EC76F01A0E1B6E5E0E1A6E6ECC
:10F8A3000EE82EFED71A2EFCD71B2EFAD700D058FF
:10F8B300BE15D0585004E1040E575CD8A00FD058A1
:10F8C300BE06D058500BE1090E575CD8B007D0578D
:10F8D300C080F058C081F0554A562A53D21C0E16E8
:10F8E3006EFE0E176EA2EC76F04CD255045610D86D
:10F8F300A448D2FC0E1A6EFF0E1B6E80C01CF08152
:10F90300C01DF01A501C261B501D22100E1C24F67D
:10F913006EFE0E1D20F76EF86A000EF8220800F541
:10F92300CF48F0000E5A6E000E596E5ABE08D05AD8
:10F933005005E1080E595CD8B020D201D01ED2592F
:10F94300C01AF048C01BF01A2A02D0D8901B321AF2
:10F953002EFCD71BA0F3D1000E456E000E4CD10038
:10F963000E4C6E000E4B6E000E4E6E000E4D6E0072
:10F973000E506E000E4F6E000E526E000E516E1E34
:10F983000E076E000E086E55C001F056C002F0005F
:10F993000E046E210E036E8FEC76F0FC0E0124092B
:10F9A3006EFE0E02200A6ECCEC76F05950310F2C0D
:10F9B3006E1E0E076E000E086EA3EC7AF0010E07A2
:10F9C3006E090E02EC77F0000E4A6E000E4BD0B5B6
:10F9D300EC76F05D6E420E5D18D8B40CD04E0E5D21
:10F9E30018D8B408D0530E5D18D8B404D0570E5DA0
:10F9F30018D8A421D05D5065EC76F0420E5D18D87E
:10FA0300A403D04B4A4C2A14D04E0E5D18D8A4033D
:10FA1300D04D4A4E2A0DD0530E5D18D8A403D04FB3
:10FA23004A502A06D0570E5D18D8A402D0514A5224
:10FA33002A494A4A2A21D0230E5D18D8A415D04B4F
:10FA4300504C10D8A40CD04D504E10D8A408D04F11
:10FA5300505010D8A404D051505210D8B40DD00037
:10FA63000E4A6E040E496E08D02A0E5D18D8A404FF
:10FA7300D05906D8A05A06C4D04ABEA9D74A5004C2
:10FA8300E1040E495CD8A0A3D7000E436E000E42DA
:10FA93006E000E5C6E000E5B6E5CBE08D05C5005A3
:10FAA300E1150E5B5CD8B099D001D097D05BC01A3A
:10FAB300F05CC01BF0D8901A361B36D8901A361B50
:10FAC30036910E1A24F66EFD0E1B20F76EF86A00AF
:10FAD3000EF8220800F5501C6E1D6A4B501C187658
:10FAE300E14C501D18D8A472D05BC01AF05CC01B47
:10FAF300F0D8901A361B36D8901A361B36010E1AD8
:10FB030026000E1B22910E1A24F66EFD0E1B20F703
:10FB13006EF86A000EF8220800F5501C6E1D6A4D3F
:10FB2300501C1854E14E501D18D8A450D05BC01A75
:10FB3300F05CC01BF0D8901A361B36D8901A361BCF
:10FB430036020E1A26000E1B22910E1A24F66EFDA3
:10FB53000E1B20F76EF86A000EF8220800F5501C01
:10FB63006E1D6A4F501C1832E150501D18D8A42E38
:10FB7300D05BC01AF05CC01BF0D8901A361B36D885
:10FB8300901A361B36030E1A26000E1B22910E1AEC
:10FB930024F66EFD0E1B20F76EF86A000EF822089D
:10FBA30000F5501C6E1D6A51501C1810E152501D77
:10FBB30018D8A40CD0820E5924D96E000E5A20DA1C
:10FBC3006E5BC0DFFF000E436E010E426E5B4A5C4C
:10FBD3002A5CBE6CD75C5001E163D742504310D816
:10FBE300A407D01C0E166EFE0E176EA2EC76F00460
:10FBF300D0000E456E010E446E44504510D8B4AF8C
:10FC0300D6000E476E000E94D03E0E076EFF0E0810
:10FC13006EA3EC7AF0010E076E0E0E02EC77F0B5D0
:10FC2300EC76F05D6ED00E5D24576E586AFF0E5869
:10FC3300222A0E5D18D8B483D65D5065EC76F01A8F
:10FC43000E1B6E5E0E1A6E6E0EE82EFED71A2EFC7B
:10FC5300D71B2EFAD700D0000E546E000E536E0041
:10FC63000E5C6E000E5B6E5CBE06D05C5027E1043A
:10FC73000E5B5CD8B023D0820E5924D96E000E5A85
:10FC830020DA6EDF501A6E1A50040D910E1B6EFDB2
:10FC93000E1C6EF3501B26F4501C225B501B265C7B
:10FCA300501C221BC0F6FF1CC0F7FFF86A0800F5C2
:10FCB300505326000E54225B4A5C2AD5D757C00105
:10FCC300F058C002F053C003F054C004F08FEC7638
:10FCD300F002BE06D0025015E1050E015CD8B0114A
:10FCE300D057C001F058C002F053C003F054C00411
:10FCF300F08FEC76F002BE05D002500AE10104D881
:10FD0300B007D03C0E166EFE0E176EA2EC76F01105
:10FD1300D0D8905934D96E5A34DA6E8A0ED9260067
:10FD23000EDA2257C0DEFF58C0DDFF000E476E011A
:10FD33000E466E46504710D8A416D066D7820E5989
:10FD430024D96E000E5A20DA6E000EDF6ED8905959
:10FD530034D96E5A34DA6E8A0ED926000EDA2200AE
:10FD63000EDE6E000EDD6E594A5A2A5ABEE8D55A87
:10FD73005004E1080E595CD8A0E2D5000E416E0193
:10FD83000E406E40504110D8A4120063D50000000D
:10FD9300000001000000000100000000010000005D
:10FDA3000001010100000100010001000001020146
:10FDB3000000020001000200000101010001010036
:10FDC3000101010000020101000201000102020021
:10FDD3000101020100010102000101030000010011
:10FDE3000003313233423435364E373839532A30F3
:10FDF3002357002A3C2D20202028202D2029202095
:10FE030020200001000A006400E8031027555B77F7
:10FE13007FFF10000102100228496E76616C69644D
:10FE230020656E7472790A506C6561736520747213
:10FE33007920616761696E0000546F6F206D616E98
:10FE4300792066617374656E65727300000000004B
:10FE5300000000000000000000546F6F206D616E11
:10FE63007920626F6C7473000000000000000000D2
:10FE7300000000000000000000546F6F206D616EF1
:10FE830079206E757473000000000000000000000C
:10FE9300000000000000000000546F6F206D616ED1
:10FEA30079207761736865727300000000000000B9
:10FEB300000000000000000000546F6F206D616EB1
:10FEC30079207370616365727300000000000000A5
:10FED3000000000000000000004E6F206661737494
:10FEE300656E6572732073656C6563746564000089
:10FEF300000000000000000000417373656D626C38
:10FF0300792073746570730A2A3C2D202028342DC0
:10FF13003829202020202000000046617374656E7C
:10FF230065727320696E2043780A2A3C2D28424E5D
:10FF3300535729202020202D3E2300486F77206D22
:10FF4300616E7920736574733F0A2A3C2D20202843
:10FF5300312D34292020202020000000436F6E66BD
:10FF630069726D3F0A2A3C2D202028413A592F42BD
:10FF73003A4E2920000000000000000000303A53F0
:10FF83006C65657020313A426567696E200A323AC2
:10FF93002056696577204C6F6773004E6F74207429
:10FFA30068657265207965740A2A20746F2072650A
:10FFB3007475726E005374617274656420696E7037
:10FFC300757420656E7472792C2068690000507214
:10FFD300657373203120746F20626567696E004317
:10FFE30025643A202573207825640053756D6D616F
:0CFFF30072793A00286E756C6C290000D1
:020000040020DA
:08000000FFFFFFFFFFFFFFFF00
:020000040030CA
:0E000000FF061F1EFF8181FF0FC00FE00F40A3
:00000001FF
