:0400000007EF00F016
:10000800658232ED15F01CEF16F0010E83EC19F045
:10001800C30E0001996FCD0EE82EFED7992FFCD79D
:10002800800E83EC19F0410E0001996FEE0EE82E58
:10003800FED7992FFCD700F0970E0001836FFE0EB4
:10004800846F3F0EF66EFC0EF76E000EF86E080019
:10005800F55083EC15F0000E0101546F000E536F3C
:100068005FC038F160C039F1000E506F000E4F6F5D
:10007800000E3C6F000E3B6F6CD34F515011D8A44B
:100088004ED04FC180F050C181F0000E0001836F47
:10009800210E826F22EC19F0260E00018025866F52
:1000A800FD0E8121876FBEEC0FF0E0EC18F0010126
:1000B800576FD00E5725516F526BFF0E5223575171
:1000C80077EC19F01A0E00019A6F5E0E996F6E0E9A
:1000D800E82EFED7992FFCD79A2FFAD700F0010106
:1000E80052BF15D0525104E1040E515DD8A00FD073
:1000F80052BF06D052510BE1090E515DD8B007D05E
:1001080051C1BCF152C1BDF14F4B502B22D3460E09
:100118000001956FFC0E966F36EC19F01AD30101A9
:100128004F055011D8A415D3FC0E0001996FFF0E8E
:100138009A6FBCC19BF0BDC19CF099519B279A5105
:100148009C233A0E9B25F66EFC0E9C21F76EF86AEE
:10015800000EF8220800F5CF3AF1000E0101546FA5
:10016800000E536F54BF08D0545105E1080E535D7B
:10017800D8B0DCD201D0DAD253C199F03AC19AF0A2
:100188000001992B02D0D8909A33992FFCD70001FF
:100198009AA1ACD221EEA0F011EE00F0170EDBCF41
:1001A800E3FFE806FCE201015351310F156F000E21
:1001B8000001836F010E846F3F0EF66EFC0EF76E22
:1001C800000EF86E0800F55083EC15F0000E0101E2
:1001D800406F000E69D1000E486F000E476F000E89
:1001E8004A6F000E496F000E4C6F000E4B6F000EE9
:1001F8004E6F000E4D6F180E0001866F010E876F4F
:100208004FC180F050C181F0000E836F210E826FC4
:1002180022EC19F0260E00018025886FFD0E812141
:10022800896FC6EC18F001015351310F266F180E73
:100238000001866F010E876FBEEC0FF0010E000102
:10024800866F090E26EC18F0000E0101446F000EAF
:100258004DD0E0EC18F00101576F420E5719D8B491
:100268000CD04E0E5719D8B408D0530E5719D8B41D
:1002780004D0570E5719D8A422D0575177EC19F04B
:10028800420E01015719D8A403D0474B482B14D06C
:100298004E0E5719D8A403D0494B4A2B0DD0530EF4
:1002A8005719D8A403D04B4B4C2B06D0570E5719CF
:1002B800D8A402D04D4B4E2B434B442B21D0230EB8
:1002C8005719D8A415D047514811D8A40CD0495172
:1002D8004A11D8A408D04B514C11D8A404D04D5180
:1002E8004E11D8B40DD0000E446F040E436F08D0E1
:1002F8002A0E5719D8A404D05307D8A05407DAD027
:1003080044BFA7D7445104E1040E435DD8A0A1D748
:10031800000E3E6F000E3D6F000E566F000E556FBB
:1003280056BF08D0565105E1150E555DD8B0ACD072
:1003380001D0AAD055C199F056C19AF00001D890C1
:1003480099379A37D89099379A37AA0E9925F66E21
:10035800FD0E9A21F76EF86A000EF8220800F55093
:100368009B6F9C6B0101475100019B1905E101013D
:10037800485100019C19D8A47FD055C199F056C1A5
:100388009AF0D89099379A37D89099379A37010EBA
:100398009927000E9A23AA0E9925F66EFD0E9A212A
:1003A800F76EF86A000EF8220800F5509B6F9C6BF8
:1003B8000101495100019B195FE101014A51000106
:1003C8009C19D8A459D055C199F056C19AF0D89023
:1003D80099379A37D89099379A37020E9927000E8D
:1003E8009A23AA0E9925F66EFD0E9A21F76EF86AE1
:1003F800000EF8220800F5509B6F9C6B01014B51D1
:1004080000019B1939E101014C5100019C19D8A444
:1004180033D055C199F056C19AF0D89099379A3788
:10042800D89099379A37030E9927000E9A23AA0E67
:100438009925F66EFD0E9A21F76EF86A000EF822DD
:100448000800F5509B6F9C6B01014D5100019B19F1
:1004580013E101014E5100019C19D8A40DD0BE0E24
:1004680001015325D96E010E5421DA6E55C1DFFF03
:10047800000E3E6F010E3D6F0101554B562B56BFC6
:1004880059D7565101E150D73D513E11D8A408D053
:10049800460E0001956FFC0E966F36EC19F005D0EC
:1004A800000E0101406F010E3F6F01013F514011E5
:1004B800D8B491D6000E426F000E11D1680E00011B
:1004C800866FFD0E876FBEEC0FF0010E0001866F80
:1004D8000E0E26EC18F0E0EC18F00101576FD00E64
:1004E8005725516F526BFF0E52232A0E5719D8B455
:1004F80043D6575177EC19F01A0E00019A6F5E0E29
:10050800996F6E0EE82EFED7992FFCD79A2FFAD73F
:1005180000F0000E0101466F000E456F000E566F89
:10052800000E556F56BF06D056512DE1040E555D8D
:10053800D8B029D0BE0E5325D96E010E5421DA6EDB
:10054800DF500001996F9951040DAA0E9A6FFD0EA4
:100558009B6FF3509A27F4509B23010155510001DA
:100568009A270101565100019B239AC0F6FF9BC0B0
:10057800F7FFF86A0800F55001014527000E4623E9
:10058800554B562BCFD751C180F052C181F045C190
:1005980082F046C183F022EC19F0000181BF0DD032
:1005A800815104E1050E805DD8A007D0660E956FD5
:1005B800FC0E966F36EC19F093D051C180F052C101
:1005C80081F045C182F046C183F022EC19F00001A8
:1005D80081BF05D081510AE18005D8B007D0060E49
:1005E800956FFD0E966F36EC19F07AD047C180F002
:1005F80048C181F051C182F052C183F022EC19F058
:10060800000181BF0DD0815104E1030E805DD8A0A7
:1006180007D0860E956FFC0E966F36EC19F060D0F9
:1006280049C180F04AC181F051C182F052C183F0C2
:1006380022EC19F0000181BF0DD0815104E1040EB4
:10064800805DD8A007D0A60E956FFC0E966F36EC8D
:1006580019F046D04BC180F04CC181F051C182F0F5
:1006680052C183F022EC19F0000181BF0DD08151F5
:1006780004E1030E805DD8A007D0E60E956FFC0E4E
:10068800966F36EC19F02CD04DC180F04EC181F038
:1006980051C182F052C183F022EC19F0000181BFF0
:1006A8000DD0815104E1050E805DD8A007D0C60E9B
:1006B800956FFC0E966F36EC19F012D0D8900101A8
:1006C8005335D96E5435DA6EC60ED926010EDA22A4
:1006D80051C1DEFF52C1DDFF000E426F010E416FB6
:1006E800010141514211D8A417D0E8D6BE0E01012C
:1006F8005325D96E010E5421DA6E000EDF6ED890A4
:100708005335D96E5435DA6EC60ED926010EDA2263
:10071800000EDE6E000EDD6E534B542B54BF2CD5ED
:10072800545104E1080E535DD8A026D5000E3C6F45
:10073800010E3B6FA40E0001836FFF0E846F3F0E06
:10074800F66EFC0EF76E000EF86E0800F55083EC9E
:1007580015F001013B513C11D8A412008ED4000EB3
:10076800496E040E486E61C09FF062C0A0F09F0EF3
:100778000001836F000E846F3F0EF66EFC0EF76E5D
:10078800000EF86E0800F55083EC15F080BAFED71D
:10079800000E0001A16F700EA26F410EA36F000E34
:1007A800A46F000EA56F000EA66F000EE56F000E79
:1007B800E46F000EE76F000EE66F000EE96F000EA3
:1007C800E86F000EEB6F000EEA6FB2EC19F0000E46
:1007D800496E030E486E000E0001806F000E66EC35
:1007E80013F051D0ABEC19F080C0A7F081C0A8F08D
:1007F80082C0A9F080B636D0000E00018B6F800E43
:100808008C6F3F0E8D6FA4C088F0A5C089F0A6C07C
:100818008AF021EC11F088C094F089C095F08AC064
:1008280096F0A7C097F0A8C098F0A9C099F0D3ECAB
:1008380015F00001D8B016D0A7C0A4F0A8C0A5F044
:10084800A9C0A6F0E44BE52B860E836FFF0E846FDC
:100858003F0EF66EFC0EF76E000EF86E0800F550AF
:1008680083EC15F0A7C094F0A8C095F0A9C096F045
:10087800A1C097F0A2C098F0A3C099F0D3EC15F0EE
:100888000001D8B00FD00001DC51E4259D6FDD5187
:10089800E5219E6F9EBFA6D79E5104E1140E9D5D73
:1008A800D8A0A0D7020E806F000E66EC13F0000EE1
:1008B800496E040E486E040E00019F6F9F0E836FF1
:1008C800000E846F3F0EF66EFC0EF76E000EF86E8B
:1008D8000800F55083EC15F080BAFED7B2EC19F099
:1008E800000E0001A46F000EA56F000EA66F000E8B
:1008F800496E030E486E000E806F010E66EC13F011
:1009080051D0ABEC19F080C0A7F081C0A8F082C02C
:10091800A9F080B236D0000E00018B6F800E8C6F6C
:100928003F0E8D6FA4C088F0A5C089F0A6C08AF0DC
:1009380021EC11F088C094F089C095F08AC096F037
:10094800A7C097F0A8C098F0A9C099F0D3EC15F00B
:100958000001D8B016D0A7C0A4F0A8C0A5F0A9C0BF
:10096800A6F0E64BE72BC00E836FFF0E846F3F0E99
:10097800F66EFC0EF76E000EF86E0800F55083EC6C
:1009880015F0A7C094F0A8C095F0A9C096F0A1C032
:1009980097F0A2C098F0A3C099F0D3EC15F000012D
:1009A800D8B00FD00001DE51E6259D6FDF51E72159
:1009B8009E6F9EBFA6D79E5104E1190E9D5DD8A0DB
:1009C800A0D7020E806F010E66EC13F0000E496E80
:1009D800040E486E050E00019F6F9F0E836F000E78
:1009E800846F3F0EF66EFC0EF76E000EF86E080070
:1009F800F55083EC15F080BAFED7B2EC19F0000E72
:100A08000001A46F000EA56F000EA66F000E496EC0
:100A1800030E486E000E806F020E66EC13F051D084
:100A2800ABEC19F080C0A7F081C0A8F082C0A9F093
:100A380080B036D0000E00018B6F800E8C6F3F0E99
:100A48008D6FA4C088F0A5C089F0A6C08AF021ECFB
:100A580011F088C094F089C095F08AC096F0A7C0BC
:100A680097F0A8C098F0A9C099F0D3EC15F0000150
:100A7800D8B016D0A7C0A4F0A8C0A5F0A9C0A6F009
:100A8800E84BE92B450E836FFF0E846F3F0EF66E21
:100A9800FC0EF76E000EF86E0800F55083EC15F0AA
:100AA800A7C094F0A8C095F0A9C096F0A1C097F08F
:100AB800A2C098F0A3C099F0D3EC15F00001D8B00B
:100AC8000FD00001E051E8259D6FE151E9219E6FAB
:100AD8009EBFA6D79E5104E1140E9D5DD8A0A0D755
:100AE800020E806F020E66EC13F0000E496E040EC3
:100AF800486E060E00019F6F9F0E836F000E846F75
:100B08003F0EF66EFC0EF76E000EF86E0800F550FC
:100B180083EC15F080BAFED7B2EC19F0000E000194
:100B2800A46F000EA56F000EA66F000E496E030E8F
:100B3800486E000E806F030E66EC13F051D0ABECDC
:100B480019F080C0A7F081C0A8F082C0A9F080B4D5
:100B580036D0000E00018B6F800E8C6F3F0E8D6FAC
:100B6800A4C088F0A5C089F0A6C08AF021EC11F0D5
:100B780088C094F089C095F08AC096F0A7C097F015
:100B8800A8C098F0A9C099F0D3EC15F00001D8B02E
:100B980016D0A7C0A4F0A8C0A5F0A9C0A6F0EA4B3B
:100BA800EB2B560E836FFF0E846F3F0EF66EFC0E16
:100BB800F76E000EF86E0800F55083EC15F0A7C02C
:100BC80094F0A8C095F0A9C096F0A1C097F0A2C073
:100BD80098F0A3C099F0D3EC15F00001D8B00FD06D
:100BE8000001E251EA259D6FE351EB219E6F9EBF04
:100BF800A6D79E5104E1230E9D5DD8A0A0D7020E72
:100C0800806F030E66EC13F0000E496E040E486EFA
:100C1800070E00019F6F9F0E836F000E846F3F0EBB
:100C2800F66EFC0EF76E000EF86E0800F55083ECB9
:100C380015F080AA1200FDD70ED2250E0001A719C3
:100C4800D8B436D020EE02F09651D9269751DA2240
:100C5800DE50DE10D8B416D020EE02F09651D92618
:100C68009751DA22DECF9CF0DDCF9DF001D8F3D189
:100C78000500FA6E9C51FD6E9D51FE6EFF6AFA509A
:100C8800A751120096C0D9FF97C0DAFFDECF9CF0BB
:100C9800DDCF9DF09CC0D9FF9DC0DAFFA7C0DFFF64
:100CA80096C0D9FF97C0DAFFDE2A000EDD22D3D125
:100CB800000E0001A06F91D0A0898FD09AC0D9FFF3
:100CC8009BC0DAFFDFCF9CF0020EDE26DFCF9DF05F
:100CD800000EDD229CC0D9FF9DC0DAFFDECFA5F053
:100CE800DDCFA6F0A551A611D8A462D0EE0EA56F4F
:100CF800FF0EA66F5DD0000120EE02F09651D926B6
:100D08009751DA22DE50DE10D8B42AD020EE02F055
:100D18009651D9269751DA22DECF9CF0DDCF9DF08F
:100D280001D81AD00500FA6E9C51FD6E9D51FE6ED9
:100D3800FF6AFA50A5C0F6FFA6C0F7FF000EF86ECE
:100D48000F0EF76403D00800F55005D0F6CFE9FF81
:100D5800F7CFEAFFEF5012000001A54BA62B28D0D1
:100D6800A5C0F6FFA6C0F7FF000EF86E96C0D9FF23
:100D780097C0DAFFDECF9CF0DDCF9DF09CC0D9FF95
:100D88009DC0DAFF0F0EF76403D00800F55005D0B8
:100D9800F6CFE9FFF7CFEAFFEF50DF6E0001A54B72
:100DA800A62B96C0D9FF97C0DAFFDE2A000EDD22F7
:100DB800A5C0F6FFA6C0F7FF000EF86E0F0EF76489
:100DC80003D00800F55005D0F6CFE9FFF7CFEAFFCA
:100DD800EF500009D8B43FD18ED798C0F6FF99C01C
:100DE800F7FF0001984B992BF86A0800F5CFA7F098
:100DF800A751000AD8B43DD1640AD8B40AD00D0A64
:100E0800D8B407D0050AD8B457D71F0AD8B456D7CC
:100E180022D10001A0A919D09AC0D9FF9BC0DAFF3E
:100E2800DFCF9CF0040EDE26DFCF9DF0000EDD2222
:100E38009CC0D9FF9DC0DAFFDECFA1F0DECFA2F0C3
:100E4800DECFA3F0DECFA4F019D09AC0D9FF9BC0A3
:100E5800DAFFDFCF9CF0020EDE26DFCF9DF0000E1A
:100E6800DD229CC0D9FF9DC0DAFFDECFA1F0DDCF27
:100E7800A2F0000EA2BFFF0EA36FA46FA4AF0AD00A
:100E8800030EA013A41FA31FA21FA16D000EA2236F
:100E9800A323A423010EA76F0A0EA719D8B41BD049
:100EA800A751040DF10EF324F66EFB0EF420F76E35
:100EB800F86A000EF8220900F550A15D0900F55006
:100EC800A2590900F550A3590900F550A459D8A012
:100ED80002D0A72BE1D7A0C09CF0030E9C17D8B472
:100EE80035D020EE02F09651D9269751DA22DE50FD
:100EF800DE10D8B416D020EE02F09651D9269751BC
:100F0800DA22DECF9CF0DDCF9DF001D81FD005009E
:100F1800FA6E9C51FD6E9D51FE6EFF6AFA502D0EC1
:100F2800120096C0D9FF97C0DAFFDECF9CF0DDCF64
:100F38009DF09CC0D9FF9DC0DAFF2D0EDF6E96C0D4
:100F4800D9FF97C0DAFFDE2A000EDD220001A75183
:100F58009E6F9F6B9EBF9F0775D09EC09CF09FC0E1
:100F68009DF0D8909C379D37D8909C379D37F10ECF
:100F78009C25F66EFB0E9D21F76EF86A000EF8228E
:100F88000900F5CF84F00900F5CF85F00900F5CF09
:100F980086F00A00F5CF87F0A1C080F0A2C081F0EA
:100FA800A3C082F0A4C083F0E7EC16F080C08DF0F7
:100FB80081C08EF082C08FF083C090F00A0E0001CD
:100FC800916F000E926F000E936F000E946F9CEC61
:100FD80017F000018D51300FA76F20EE02F09651E7
:100FE800D9269751DA22DE50DE10D8B416D020EE7A
:100FF80002F09651D9269751DA22DECF9CF0DDCF48
:101008009DF001D81FD00500FA6E9C51FD6E9D51D0
:10101800FE6EFF6AFA50A751120096C0D9FF97C01A
:10102800DAFFDECF9CF0DDCF9DF09CC0D9FF9DC0DC
:10103800DAFFA7C0DFFF96C0D9FF97C0DAFFDE2A24
:10104800000EDD2200019E07D8A09F079E2985E19A
:101058009F29D8A482D798C0F6FF99C0F7FF00014E
:10106800984B992BF86A0800F5CFA7F0A751D8A498
:10107800E4D5000E976F000E966F12000001A56F61
:10108800000E496E020E486E9268000E0001806FD5
:10109800000E66EC13F0000E0001806F010E66EC86
:1010A80013F0000E0001806F020E66EC13F0000EC4
:1010B8000001806F030E66EC13F0000E0001B36FA1
:1010C800000EB26F000EB56F000EB46F000EB76F52
:1010D800000EB66F000EB96F000EB86F000EBB6F32
:1010E800000EBA6F000EBD6F000EBC6F000EBF6F12
:1010F800000EBE6F000EC16F000EC06F000EA66F0F
:10110800000EA76F000EA86F000EA96F000EAA6F41
:10111800000EAB6F000EAC6F000EAD6F000EAE6F21
:10112800000EAF6F000EB06F000EB16FB2EC19F089
:10113800ABEC19F080C0C2F081C0C3F082C0C4F02B
:1011480080B638D0000E00018B6F800E8C6F3F0E7A
:101158008D6FA6C088F0A7C089F0A8C08AF021ECDE
:1011680011F088C094F089C095F08AC096F0C2C08A
:1011780097F0C3C098F0C4C099F0D3EC15F0000103
:10118800D8B018D0C2C0A6F0C3C0A7F0C4C0A8F099
:10119800B24BB32BDC4BDD2B770E836FFF0E846FC6
:1011A8003F0EF66EFC0EF76E000EF86E0800F55056
:1011B80083EC15F080B238D0000E00018B6F800EE2
:1011C8008C6F3F0E8D6FA9C088F0AAC089F0ABC0A4
:1011D8008AF021EC11F088C094F089C095F08AC09B
:1011E80096F0C2C097F0C3C098F0C4C099F0D3EC91
:1011F80015F00001D8B018D0C2C0A9F0C3C0AAF039
:10120800C4C0ABF0B44BB52BDE4BDF2BB20E836FF3
:10121800FF0E846F3F0EF66EFC0EF76E000EF86E32
:101228000800F55083EC15F080B038D0000E0001AE
:101238008B6F800E8C6F3F0E8D6FACC088F0ADC089
:1012480089F0AEC08AF021EC11F088C094F089C012
:1012580095F08AC096F0C2C097F0C3C098F0C4C099
:1012680099F0D3EC15F00001D8B018D0C2C0ACF09A
:10127800C3C0ADF0C4C0AEF0B64BB72BE04BE12B0A
:10128800230E836FFF0E846F3F0EF66EFC0EF76E13
:10129800000EF86E0800F55083EC15F080B438D0D5
:1012A800000E00018B6F800E8C6F3F0E8D6FAFC0EC
:1012B80088F0B0C089F0B1C08AF021EC11F088C084
:1012C80094F089C095F08AC096F0C2C097F0C3C068
:1012D80098F0C4C099F0D3EC15F00001D8B018D03C
:1012E800C2C0AFF0C3C0B0F0C4C0B1F0B84BB92BA6
:1012F800E24BE32B340E836FFF0E846F3F0EF66EC6
:10130800FC0EF76E000EF86E0800F55083EC15F031
:101318000001A551A06FA16BA051B25DB351800A25
:10132800A26FA151800AA259D8A00AD0020E806FDC
:10133800000E66EC13F0000E0001BB6F010EBA6FD1
:101348009D51A06FA16BA051B45DB551800AA26FE9
:10135800A151800AA259D8A00AD0020E806F010EAE
:1013680066EC13F0000E0001BD6F010EBC6F9E51BC
:10137800A06FA16BA051B65DB751800AA26FA151B1
:10138800800AA259D8A00AD0020E806F020E66EC1D
:1013980013F0000E0001BF6F010EBE6F9F51A06FCA
:1013A800A16BA051B85DB951800AA26FA151800A02
:1013B800A259D8A00AD0020E806F030E66EC13F073
:1013C800000E0001C16F010EC06FBA51BB11D8B435
:1013D800AFD6BC51BD11D8B4ABD6BE51BF11D8B42D
:1013E800A7D6C051C111D8B4A3D6EE0E836FFE0E96
:1013F800846F3F0EF66EFC0EF76E000EF86E080056
:10140800F55083EC15F0610E0001836FFE0E846FBA
:101418003F0EF66EFC0EF76E000EF86E0800F550E3
:1014280083EC15F0660E0001A16F760EA06FC10E59
:10143800E82EFED7A02FFCD7A12FFAD763C0A3F0C0
:1014480064C0A4F0A30E0001836F000E846F3F0EEA
:10145800F66EFC0EF76E000EF86E0800F55083EC81
:1014680015F080AA1200FDD7000E0001DD6F000EF6
:10147800DC6F000EDF6F000EDE6F000EE16F000EF6
:10148800E06F000EE36F000EE26F220E836FFE0E18
:10149800846F3F0EF66EFC0EF76E000EF86E0800B5
:1014A800F55083EC15F0BAC174F1BBC175F1740E37
:1014B8000001836F010E846F3F0EF66EFC0EF76E0F
:1014C800000EF86E0800F55083EC15F080BAFED7D0
:1014D800000E01017D6F080E7C6F7DBF12007D51EB
:1014E80003E17C05D8A0120021EE7EF011EE00F099
:1014F800210EDBCFE3FFE806FCE27C51300F1F6FC3
:10150800000E0001836F010E846F3F0EF66EFC0E15
:10151800F76E000EF86E0800F55083EC15F0FF0E1C
:101528000001C56FFF0EC66F7CC1C7F07DC1C8F052
:10153800C551C727C651C823BE0EC725D96E010E8F
:10154800C821DA6EDF50D8A415D0B8C176F1B9C178
:1015580077F1760E836F010E846F3F0EF66EFC0EE8
:10156800F76E000EF86E0800F55083EC15F080AAAF
:1015780051D1FDD7FF0E0001C56FFF0EC66F7CC1AC
:10158800C7F07DC1C8F0C551C727C651C823BE0ED4
:10159800C725D96E010EC821DA6EDF50C96FC9514F
:1015A800040DAA0EF3240101786FFD0EF420796F63
:1015B800FE0E0001C56FFF0EC66F7CC1C7F07DC16E
:1015C800C8F0D890C737C837C551C727C651C823F0
:1015D800C60EC725D96E010EC821DA6EDECF7AF1A4
:1015E800DDCF7BF1540EA86F010EA96FB00EAA6F64
:1015F800FE0EAB6F78C1F6FF79C1F7FFF86A0800F5
:10160800F550806F816B7AC182F07BC183F022EC48
:1016180019F080C0ACF081C0ADF0010E0101782551
:101628000001C56F000E010179210001C66FC5C018
:10163800F6FFC6C0F7FFF86A0800F550806F816BA7
:101648007AC182F07BC183F022EC19F080C0AEF041
:1016580081C0AFF0020E010178250001C76F000EAE
:10166800010179210001C86FC7C0F6FFC8C0F7FFA4
:10167800F86A0800F550806F816B7AC182F07BC1EF
:1016880083F022EC19F080C0B0F081C0B1F0030EF5
:10169800010178250001C96F000E010179210001BF
:1016A800CA6FC9C0F6FFCAC0F7FFF86A0800F5504C
:1016B800806F816B7AC182F07BC183F022EC19F0D4
:1016C80080C0B2F081C0B3F04AEC18F0540E0001AB
:1016D800836F010E846F3F0EF66EFC0EF76E000EE0
:1016E800F86E0800F55083EC15F0010E83EC19F044
:1016F800C30E0001C56FCD0EE82EFED7C52FFCD74F
:10170800800E83EC19F0410E0001C56FEE0EE82E35
:10171800FED7C52FFCD700F0950E0001A86FFF0E6D
:10172800A96F7CC1AAF07DC1ABF0AAEC18F0010E3C
:10173800010178250001C56F000E01017921000122
:10174800C66FC5C0F6FFC6C0F7FFF86A0800F550B7
:1017580001017A03F3CF9DF0020E78250001C76FCF
:10176800000E010179210001C86FC7C0F6FFC8C08B
:10177800F7FFF86A0800F55001017A03F3CF9EF0ED
:10178800030E78250001C96F000E010179210001BF
:10179800CA6FC9C0F6FFCAC0F7FFF86A0800F5505B
:1017A80001017A03F3CF9FF078C1F6FF79C1F7FF03
:1017B800F86A0800F5507A03F35042EC08F0220E5C
:1017C8000001A86F010EA96FFE0EAA6FFD0EAB6F88
:1017D8007CC1ACF07DC1ADF04AEC18F0220E0001DE
:1017E800836F010E846F3F0EF66EFC0EF76E000ECF
:1017F800F86E0800F55083EC15F0000E496E040EE3
:10180800486E820E0001C56FDD0EE82EFED7C52F8B
:10181800FCD700D001017C07D8A07D077DBF12004E
:101828007D5101E15ED660D659C009F05AC00AF070
:101838005BC00BF0CD0E0C6ECC0E0D6E3D0E0E6E19
:10184800F8EC11F009C059F00AC05AF00BC05BF06F
:10185800010E0101DA27000EDB23DC23DD234B50C8
:10186800D8B414D05CC009F05DC00AF05EC00BF0BB
:10187800CD0E0C6ECC0E0D6E3D0E0E6EF8EC11F00A
:1018880009C05CF00AC05DF00BC05EF0F90ED76EBF
:101898005F0ED66E1A50156E1B50166E176A186AB0
:1018A8001550515C16505258175053585450800ACE
:1018B800196E1850800A1958D8A007D0010E1A249A
:1018C8001A6E000E1B201B6E04D0000E1B6E000E3D
:1018D8001A6E1C50156E1D50166E176A186A155030
:1018E800515C16505258175053585450800A196E6C
:1018F8001850800A1958D8A007D0010E1C241C6E55
:10190800000E1D201D6E04D0000E1D6E000E1C6EF4
:101918001E50156E1F50166E176A186A1550515CC6
:1019280016505258175053585450800A196E185070
:10193800800A1958D8A007D0010E1E241E6E000E6A
:101948001F201F6E04D0000E1F6E000E1E6E20504A
:10195800156E2150166E176A186A1550515C16508C
:101968005258175053585450800A196E1850800A0C
:101978001958D8A007D0010E2024206E000E21206F
:10198800216E1AD1000E216E000E206E15D1020EA6
:101998005818D8B43FD04350D8A41CD02050156E46
:1019A8002150166E176A186A5150151833E15250B3
:1019B800161830E1535017182DE154501818D8A4B0
:1019C80029D05850A3EC19F0026E030EC9EC13F09D
:1019D800010E1BD02050156E2150166E176A186A1A
:1019E8004D50151817E14E50161814E14F5017189E
:1019F80011E150501818D8A40DD05850A3EC19F084
:101A0800026E030EC9EC13F0000E436E000E216E39
:101A1800000E206E020E5518D8B43FD04050D8A4FE
:101A28001CD01A50156E1B50166E176A186A515042
:101A3800151833E15250161830E1535017182DE19C
:101A480054501818D8A429D05550A3EC19F0026E98
:101A5800000EC9EC13F0010E1BD01A50156E1B5066
:101A6800166E176A186A4D50151817E14E50161859
:101A780014E14F50171811E150501818D8A40DD080
:101A88005550A3EC19F0026E000EC9EC13F0000ECD
:101A9800406E000E1B6E000E1A6E020E5618D8B459
:101AA8003FD04150D8A41CD01C50156E1D50166E46
:101AB800176A186A5150151833E15250161830E158
:101AC800535017182DE154501818D8A429D056503F
:101AD800A3EC19F0026E010EC9EC13F0010E1BD035
:101AE8001C50156E1D50166E176A186A4D50151841
:101AF80017E14E50161814E14F50171811E15050C5
:101B08001818D8A40DD05550A3EC19F0026E010E88
:101B1800C9EC13F0000E416E000E1D6E000E1C6E17
:101B2800020E5718D8B412004250D8A421D01E5023
:101B3800156E1F50166E176A186A515015184CE129
:101B48005250161849E15350171846E154501818C6
:101B5800D8A412005750A3EC19F0026E020EC9EC7B
:101B680013F0010E426E000E1F6E000E1E6E120064
:101B78001E50156E1F50166E176A186A4D501518AC
:101B88002BE14E50161828E14F50171825E15050F8
:101B98001818D8A412005750A3EC19F0026E020EC0
:101BA800C9EC13F0000E426E000E1F6E000E1E6E82
:101BB800120099EC19F0120048C015F049C016F04F
:101BC8001650000AD8A4F5D71550020AD8B4DFD6A3
:101BD800010AD8B4DCD6EDD71200000E0001D66F8A
:101BE800010ED56F0001D551D611D8B40BD0430ED4
:101BF800866FFE0E876FBEEC0FF0000E0001D66FE9
:101C0800000ED56FE0EC18F00001CB6FCB51D76F09
:101C1800D86BD75177EC19F0D00E0001CB6FFF0EBF
:101C2800CC6FD7C0CDF0D8C0CEF0CB51CD27CC519A
:101C3800CE23CD51CE11D8A403D08BEC18F0CDD73C
:101C4800D00ECB6FFF0ECC6FD7C0CDF0D8C0CEF082
:101C5800CB51CD27CC51CE23CD05CE11D8A475D1EB
:101C680009EC00F0010E83EC19F0C30E0001CB6FF4
:101C7800CD0EE82EFED7CB2FFCD7800E83EC19F0C3
:101C8800410E0001CB6FEE0EE82EFED7CB2FFCD70E
:101C980000F0120E0001A86FFF0EA96FAAEC18F051
:101CA800C00E83EC19F0E40E0001A86FFE0EA96FB8
:101CB800AAEC18F0E0EC18F002D0E0EC18F0000103
:101CC800CB6FCB51D36FD46BD00ECB6FFF0ECC6FD5
:101CD800D3C0CDF0D4C0CEF0CB51CD27CC51CE233C
:101CE800CD05CE11D8A4E9D763EC16F0010E83EC2C
:101CF80019F0C30E0001CB6FCD0EE82EFED7CB2F07
:101D0800FCD7800E83EC19F0410E0001CB6FEE0E6C
:101D1800E82EFED7CB2FFCD700F0DB0E0001A86F12
:101D2800FE0EA96FAAEC18F0C60E0001836FFE0E16
:101D3800846F3F0EF66EFC0EF76E000EF86E08000C
:101D4800F55083EC15F038EC0AF0B3EC03F0CEEC68
:101D580012F0000186C0CFF087C0D0F0000ED0BFCF
:101D6800FF0ED16FD26FE50EA86FFF0EA96FAAEC18
:101D780018F0330E0001CC6FBB0ECB6FDF0EE82ED0
:101D8800FED7CB2FFCD7CC2FFAD700D0000E0001FE
:101D9800DA6F000ED96FDABF06D0DA5155E1080EB6
:101DA800D95DD8B051D0010E83EC19F0C30E0001F3
:101DB800CB6FCD0EE82EFED7CB2FFCD7800E83EC51
:101DC80019F0410E0001CB6FEE0EE82EFED7CB2F97
:101DD800FCD700F0CE0E0001A86FFF0EA96F010E10
:101DE800D925AA6F000EDA21AB6FBE0ED925D96EA0
:101DF800010EDA21DA6EDF50CB6FCB51050D000EE4
:101E0800F324AC6F020EF420AD6FD890D935D96E9B
:101E1800DA35DA6EC60ED926010EDA22DECFAEF03A
:101E2800DDCFAFF0AAEC18F0660E0001CC6F760E8D
:101E3800CB6FC10EE82EFED7CB2FFCD7CC2FFAD70D
:101E48000001D94BDA2BA7D7010E83EC19F0C30E8A
:101E58000001CB6FCD0EE82EFED7CB2FFCD7800E1E
:101E680083EC19F0410E0001CB6FEE0EE82EFED781
:101E7800CB2FFCD700F0DA0E0001A86FFF0EA96F78
:101E8800AAEC18F0C00E83EC19F0670E0001A86FD9
:101E9800FF0EA96FE4C0AAF0E5C0ABF0E6C0ACF055
:101EA800E7C0ADF0E8C0AEF0E9C0AFF0EAC0B0F00E
:101EB800EBC0B1F0AAEC18F0660E0001CC6F760EFC
:101EC800CB6FC10EE82EFED7CB2FFCD7CC2FFAD77D
:101ED800010E83EC19F0C30E0001CB6FCD0EE82E76
:101EE800FED7CB2FFCD7800E83EC19F0410E0001F2
:101EF800CB6FEE0EE82EFED7CB2FFCD700F0F50EF9
:101F08000001A86FFF0EA96FAAEC18F0C00E83ECB1
:101F180019F0FB0E0001A86FFF0EA96FCFC0AAF041
:101F2800D0C0ABF0D1C0ACF0D2C0ADF0AAEC18F084
:101F3800660E0001CC6F760ECB6FC10EE82EFED771
:101F4800CB2FFCD7CC2FFAD721D7D00E0001CB6FDF
:101F5800FF0ECC6FD7C0CDF0D8C0CEF0CB51CD2777
:101F6800CC51CE23020ECD19CE11D8A43BD60EECFF
:101F780019F033D6000E00018C6F010E8B6F000E26
:101F8800906F100E8F6F91699269000E8E6F000E20
:101F98008D6F010E83EC19F0C30E0001886FCD0E12
:101FA800E82EFED7882FFCD7800E83EC19F0410E5F
:101FB8000001886FEE0EE82EFED7882FFCD700F0C0
:101FC800000E0001946F000E936F94BF08D09451D7
:101FD80005E1110E935DD8B08DD001D08BD093510F
:101FE8008625886F94518721896F88C0F6FF89C03C
:101FF800F7FF000EF86E0F0EF76403D00800F550D7
:1020080005D0F6CFE9FFF7CFEAFFEF500009D8B4C3
:1020180071D0000193518625886F94518721896F6B
:1020280088C0F6FF89C0F7FF000EF86E0F0EF76440
:1020380003D00800F55005D0F6CFE9FFF7CFEAFF47
:10204800EF50200AD8A404D093C08DF094C08EF02D
:10205800000193518625886F94518721896F88C024
:10206800F6FF89C0F7FF000EF86E0F0EF76403D075
:102078000800F55005D0F6CFE9FFF7CFEAFFEF509B
:102088000A0AD8A408D093C091F094C092F091C0E5
:102098008FF092C090F0100E000193199411D8A4FB
:1020A80021D093518625886F94518721896F88C0E4
:1020B800F6FF89C0F7FF000EF86E0F0EF76403D025
:1020C8000800F55005D0F6CFE9FFF7CFEAFFEF504B
:1020D800200AD8B407D0000192AF04D08DC08FF089
:1020E8008EC090F00001934B942B94BF78D79451F5
:1020F80001E16FD7000E0001946F000E936F94BF3B
:1021080008D0945105E1200E935DD8B0120001D09B
:10211800120093518625886F94518721896F88C052
:10212800F6FF89C0F7FF000EF86E0F0EF76403D0B4
:102138000800F55005D0F6CFE9FFF7CFEAFFEF50DA
:102148000009D8B4120000018F51931953E190513E
:102158009419D8A44FD0420EF66EFC0EF76E000EFE
:10216800F86E0800F550886F896B88518B5D8C512B
:10217800800A8A6F8951800A8A59D8B03BD08B4B24
:102188008C2BC00E83EC19F0000193518625886FC3
:1021980094518721896F88C0F6FF89C0F7FF000E28
:1021A800F86E0F0EF76403D00800F55005D0F6CF8F
:1021B800E9FFF7CFEAFFEF50200AD8B435D0000185
:1021C80093518625886F94518721896F88C0F6FFBF
:1021D80089C0F7FF000EF86E0F0EF76403D00800F1
:1021E800F55005D0F6CFE9FFF7CFEAFFEF500A0A1E
:1021F800D8B41AD0000193518625886F945187214D
:10220800896F88C0F6FF89C0F7FF000EF86E0F0EC1
:10221800F76403D00800F55005D0F6CFE9FFF7CFF3
:10222800EAFFEF5077EC19F00001934B942B94BF21
:1022380070D7945101E167D712008AC08EF000016F
:102248008F6B906B89358E3701E38F818E51936F39
:102258008DC08EF08F6B906B8C358E3701E38F813C
:102268008E51926F9351D8B40BD09251935DD8B0E0
:102278000ED09351000892258E6F180E8E6507D0E8
:102288008BC088F08CC089F08DC08AF01200925102
:10229800D8B40BD09351925DD8B00ED092510008AB
:1022A80093258E6F180E8E6507D088C088F089C078
:1022B80089F08AC08AF01200060E916F8ABF918F4A
:1022C8008DBF918D898FFF0E8817FF0E8917000E1D
:1022D8008A178C8FFF0E8B17FF0E8C17000E8D1729
:1022E8009251935DD8B01BD0D8908B378C378D37EF
:1022F800920793519219D8B40DD0910791C08EF0DE
:10230800070E8E17D8B406D0EFD7D8908A33893302
:102318008833932B92519319D8B41FD0F6D7935181
:10232800925DD8B01AD0D890883789378A37930702
:1023380093519219D8B40DD0910791C08EF0070E21
:102348008E17D8B406D0EFD7D8908D338C338B3313
:10235800922B92519319D8A4F7D791AF0CD0FF0EB6
:10236800881BFF0E891BFF0E8A1B010E8827000E93
:102378008923000E8A2391AD0CD0FF0E8B1BFF0E14
:102388008C1BFF0E8D1B010E8B27000E8C23000E5D
:102398008D23000E916F88518B2789518C238A5188
:1023A8008D238DAF0ED0FF0E8B1BFF0E8C1BFF0EE7
:1023B8008D1B010E8B27000E8C23000E8D23010E22
:1023C800916F8BC080F08CC081F08DC082F093C07B
:1023D80083F091C084F083EC14F080C088F081C051
:1023E80089F082C08AF012000BC00FF0106A116ADF
:1023F8000A340F3601E310800F50146E0EC00FF030
:10240800106A116A0D340F3601E310800F50136EF5
:102418001450D8B40BD01350145CD8B00ED014504C
:10242800000813240F6E180E0F6407D00CC009F0B3
:102438000DC00AF00EC00BF012001350D8B40BD028
:102448001450135CD8B00ED01350000814240F6E2B
:10245800180E0F6407D009C009F00AC00AF00BC0B3
:102468000BF01200060E126E0BBE128E0EBE128CF0
:102478000A8EFF0E0916FF0E0A16000E0B160D8E99
:10248800FF0E0C16FF0E0D16000E0E161350145CE0
:10249800D8B01BD0D8900C360D360E361306145013
:1024A8001318D8B40DD0120612C00FF0070E0F166D
:1024B800D8B406D0EFD7D8900B320A320932142A92
:1024C80013501418D8B41FD0F6D71450135CD8B0D2
:1024D8001AD0D89009360A360B3614061450131839
:1024E800D8B40DD0120612C00FF0070E0F16D8B4CC
:1024F80006D0EFD7D8900E320D320C32132A135073
:102508001418D8A4F7D712AE0CD0FF0E091AFF0E74
:102518000A1AFF0E0B1A010E0926000E0A22000ED7
:102528000B2212AC0CD0FF0E0C1AFF0E0D1AFF0E68
:102538000E1A010E0C26000E0D22000E0E22000EA1
:10254800126E09500C260A500D220B500E220EAEA8
:102558000ED0FF0E0C1AFF0E0D1AFF0E0E1A010EEA
:102568000C26000E0D22000E0E22010E126E0CC05B
:1025780001F00DC002F00EC003F014C004F012C048
:1025880005F0DBEC14F001C009F002C00AF003C04A
:102598000BF012008A0E0001836F000E846F29EC85
:1025A80017F08CC088F00001883B0F0E88170F0EBB
:1025B800881788510A0D8CC089F00F0E8917895128
:1025C800F324346E000EF420356E8BC088F0883BFF
:1025D8000F0E88170F0E881788510A0D8BC089F0C7
:1025E8000F0E89178951F324366E000EF420376ECA
:1025F8008AC088F0883B0F0E88170F0E88178851FD
:102608000A0D8AC089F00F0E89178951F324386E94
:10261800000EF420396E3AC088F03BC089F0881F5C
:10262800891F884B892B34508825936F3550892111
:10263800946F20EE3CF0DECF88F0DDCF89F0881F64
:10264800891F884B892B36508825956F37508921EB
:10265800966F20EE3EF0DECF88F0DDCF89F0881F40
:10266800891F884B892B38508825976F39508921C5
:10267800986F93C080F094C081F00E0E836F100E97
:10268800826F22EC19F080C088F081C089F095C073
:1026980080F096C081F0000E0001836F3C0E826FBF
:1026A80022EC19F000018051882781518923975124
:1026B8008825916F98518921926F91C086F092C0B8
:1026C80087F012000001816F51D000018051D8A419
:1026D80003D08A868B900BD08005D8A402D08A9626
:1026E80005D0020E8019D8A402D08A868B8080C0BB
:1026F80057F012008051D8A403D08B828B940BD052
:102708008005D8A402D08B9205D0020E8019D8A4D7
:1027180002D08B828B8480C056F012008051D8A4DE
:1027280003D08B8A8B9C0BD08005D8A402D08B9ABF
:1027380005D0020E8019D8A402D08B8A8B8C80C059
:1027480058F012008051D8A403D08B8E8D900BD0F6
:102758008005D8A402D08B9E05D0020E8019D8A47B
:1027680002D08B8E8D8080C055F0120000018151FF
:10277800000AD8B4E7D7010AD8B4BCD7030AD8B43A
:10278800A4D7010AD8A41200C9D7036E50D00250AA
:10279800D8A403D08A868B900BD00204D8A402D088
:1027A8008A9605D0020E0218D8A402D08A868B8099
:1027B80002C057F012000250D8A403D08B828B9429
:1027C8000BD00204D8A402D08B9205D0020E0218B6
:1027D800D8A402D08B828B8402C056F0120002501B
:1027E800D8A403D08B8A8B9C0BD00204D8A402D027
:1027F8008B9A05D0020E0218D8A402D08B8A8B8C33
:1028080002C058F012000250D8A403D08B8E8D90CD
:102818000BD00204D8A402D08B9E05D0020E021859
:10282800D8A402D08B8E8D8002C055F012000350C0
:10283800000AD8B4E8D7010AD8B4BDD7030AD8B477
:10284800A6D7010AD8A41200CAD7000E896E000EB6
:102858008A6E000E8B6E000E8C6E000E8D6E926866
:10286800F70E936E000E946E000E956E000E966E27
:10287800000EC26E0F0EC16EA00E00018D6F860E87
:102888008E6F010E8F6F000E906FD0EC17F049EC31
:1028980019F000EC18F0010E83EC19F0C30E0001DA
:1028A800DB6FCD0EE82EFED7DB2FFCD7800E83EC36
:1028B80019F0410E0001DB6FEE0EE82EFED7DB2F7C
:1028C800FCD700F0020E0001806F000E66EC13F0DA
:1028D800020E0001806F010E66EC13F0020E00017B
:1028E800806F020E66EC13F0020E0001806F030E7B
:1028F80066EC13F08BEC18F0F1EC0DF0FFD700014B
:102908008351D8B405D0805181118211D8A40CD03C
:10291800000E806F000E816F000E826F1200832BF5
:10292800D890823381338033000E8015856F000E76
:102938008115866FFE0E8215876F85518611871166
:10294800D8B40CD0ECD7832B010E8027000E81233E
:10295800000E8223D890823381338033000E801595
:10296800856F000E8115866FFF0E8215876F855162
:1029780086118711D8B406D0E6D78307D890803758
:102988008137823781BF03D0020E8361F6D783A1D6
:10299800819FD8908333835182138451D8A4828F26
:1029A80080C080F081C081F082C082F012000450A3
:1029B800D8B405D0015002100310D8A40CD0000ED2
:1029C800016E000E026E000E036E1200042AD890EB
:1029D800033202320132000E0114066E000E021498
:1029E800076EFE0E0314086E065007100810D8B4C0
:1029F8000CD0ECD7042A010E0126000E0222000E8C
:102A08000322D890033202320132000E0114066EFE
:102A1800000E0214076EFF0E0314086E065007100E
:102A28000810D8B406D0E6D70406D8900136023686
:102A3800033602BE03D0020E0460F6D704A0029E3D
:102A4800D8900432045003120550D8A4038E01C054
:102A580001F002C002F003C003F012000600FACF32
:102A680022F0FBCF23F0E9CF24F0EACF25F0E1CF25
:102A780026F0E2CF27F0D9CF28F0DACF29F0F3CF2C
:102A88002AF0F4CF2BF0F6CF2CF0F7CF2DF0F8CFBB
:102A98002EF0F5CF2FF065C030F066C031F067C07A
:102AA80032F068C033F0F2BAF2A403D0F29418EC12
:102AB8000CF033C068F032C067F031C066F030C047
:102AC80065F02FC0F5FF2EC0F8FF2DC0F7FF2CC012
:102AD800F6FF2BC0F4FF2AC0F3FF29C0DAFF28C095
:102AE800D9FF27C0E2FF26C0E1FF25C0EAFF24C0C6
:102AF800E9FF23C0FBFF22C0FAFF65921100000125
:102B0800886F000E00018A6F000E896FC2EC19F001
:102B180088C081F00001826BB9EC19F022D0000165
:102B280089518325856F8A518421866F85C0F6FF78
:102B380086C0F7FF000EF86E0F0EF76403D008008A
:102B4800F55005D0F6CFE9FFF7CFEAFFEF500001C7
:102B5800876F8751816F826BB9EC19F00001894B3F
:102B68008A2B000189518325856F8A518421866FBC
:102B780085C0F6FF86C0F7FF000EF86E0F0EF764EB
:102B880003D00800F55005D0F6CFE9FFF7CFEAFFEC
:102B9800EF500009D8A4C3D7BEEC19F01200000109
:102BA80096AF16D094C09AF095C09BF096C09CF052
:102BB8009A1F9B1F9C1F9A2B000E9B239C23000E81
:102BC8009A25946F000E9B21956F800E9C21966F1D
:102BD80099AF16D097C09AF098C09BF099C09CF016
:102BE8009A1F9B1F9C1F9A2B000E9B239C23000E51
:102BF8009A25976F000E9B21986F800E9C21996FE4
:102C0800000E941B000E951B800E961B000E971B42
:102C1800000E981B800E991B9751945D98519559F9
:102C280099519659D8B002D0D8901200D880120085
:102C3800CE0EF66E2E0EF76E000EF86E02EE00F057
:102C480010EE69F00900F5CFEEFFE550E150FAE12A
:102C5800D80EF66E300EF76E000EF86E01EE7EF0AE
:102C680010EE3EF00900F5CFEEFFE550E150FAE135
:102C7800D60EF66E320EF76E000EF86E00EE4DF0C0
:102C880010EE18F00900F5CFEEFFE550E150FAE13B
:102C980001EEBCF0220EEE6AE806FDE100EEDCF083
:102CA800100EEE6AE806FDE100EE34F0190EEE6A49
:102CB800E806FDE165906592000129EF14F0880EA1
:102CC8000001836F000E846F29EC17F08AC086F02C
:102CD8000001863B0F0E86170F0E861786510A0DC8
:102CE8008AC087F00F0E87178751F3243A6E000EBB
:102CF800F4203B6E89C086F0863B0F0E86170F0EB8
:102D0800861786510A0D89C087F00F0E87178751DD
:102D1800F3243C6E000EF4203D6E88C086F0863B9E
:102D28000F0E86170F0E861786510A0D88C087F07A
:102D38000F0E87178751F3243E6E000EF4203F6E66
:102D480012000001816F00018151F00B806F8C50DF
:102D58000F0B8C6E80518C108C6E000EF2BE010E23
:102D68004C6EF29E8C86530EE82EFED700F08C96A1
:102D7800C80E00D0E82EFDD74CB002D0F29E01D08C
:102D8800F28E00018139F00B816F8151F00B806F59
:102D98008C500F0B8C6E80518C108C6E000EF2BE16
:102DA800010E4C6EF29E8C86530EE82EFED700F074
:102DB8008C96C80E00D0E82EFDD74CB002D0F29EFB
:102DC80001D0F28E1200000E0001886F000E896F8C
:102DD800000E8A6F000E8B6F845185118611871142
:102DE800D8B42AD0010E8C6F06D0D8908437853796
:102DF800863787378C2B87AFF8D7D89088378937AD
:102E08008A378B378451805D855181598651825923
:102E180087518359D8A009D08451805F8551815B3F
:102E28008651825B8751835B8881D890873386334C
:102E3800853384338C2FE1D788C080F089C081F036
:102E48008AC082F08BC083F01200C2EC19F0000E29
:102E58000001826FD00E816FB9EC19F0000E0001ED
:102E6800826F000E816FB9EC19F0BEEC19F0C2EC5C
:102E780019F0000E0001826FD10E816FB9EC19F0C4
:102E8800000E0001856F050E856501D00FD08551B4
:102E9800010DF3508325D96EF4508421DA6E000EAB
:102EA800F9EC18F0DF6E0001852BEDD720EE06F067
:102EB8008351D9268451DA22010EF9EC18F0DF6E1D
:102EC800BEEC19F012004E4F4E45004200000000C3
:102ED8004E000000005300000000570000000042B0
:102EE8004E000000425300000042570000004242DA
:102EF8004E000042425300004242570000424E57E3
:102F0800000042535700004257570000424E4E57A8
:102F1800004253575700424253570042424E57000F
:0F2F2800424E4E5700424E4E4E004257575700F2
:102F380000019151921193119411D8B424D0010E2B
:102F4800956F06D0D8909137923793379437952B51
:102F580094AFF8D791518D5D92518E5993518F59F5
:102F680094519059D8A008D091518D5F92518E5BA1
:102F780093518F5B9451905BD890943393339233F1
:102F88009133952FE7D78DC08DF08EC08EF08FC00E
:102F98008FF090C090F01200C69A94869488800EA4
:102FA800C76E280EC66E000EC56E000E0001806F3B
:102FB8005A0E816F620E826F020E836F8DC091F080
:102FC8008EC092F08FC093F090C094F0020ED8900B
:102FD8009137923793379437E82EF9D791C084F018
:102FE80092C085F093C086F094C087F0E7EC16F0A5
:102FF80000018005C86E1200C30E0001836FCD0E5C
:10300800E82EFED7832FFCD7330E83EC19F0320E4F
:1030180083EC19F0280E83EC19F00F0E83EC19F0ED
:10302800060E83EC19F0010E83EC19F0C30E0001B3
:10303800836FCD0EE82EFED7832FFCD70F0E83ECBF
:1030480019F012000001896F800E83EC19F0410E0F
:103058000001876FEE0EE82EFED7872FFCD700F011
:10306800000E0001886F05D0C00E83EC19F0000136
:10307800882B8651885DD8A0F7D78951D8B412001B
:10308800010E836F89515AEC19F01200A8C0B6F0EE
:10309800A9C0B7F0000E0001B86F000EB96FAC0EF2
:1030A800B46F000EB56FB60E966F000E976FAAC07C
:1030B80098F0ABC099F0B40E9A6F000E9B6F20EC9D
:1030C80006F0B6C0D9FFB7C0DAFF000EDF6E1200F7
:1030D8000153746172746564207061636B61676920
:1030E8006E6720636F6D706172746D656E742078A1
:1030F8000000015374617274656420636F6D7061C0
:1031080072746D656E742078000002000800010E6C
:103118000001866FFF0E876FBEEC0FF0E0EC18F031
:103128000001956F9551996F9A6BD00E956FFF0EB0
:10313800966F99C097F09AC098F095519727965135
:10314800982397059811D8B41200E8D7000E00010B
:10315800B46F000EB56FEE0EB66F320EB76FAA0ED3
:10316800B26F000EB36FB40E966F000E976FA8C0C3
:1031780098F0A9C099F0B20E9A6F000E9B6F20ECE0
:1031880006F0120086C08AF087C08BF005D00001D7
:103198008A4B8B2B884B892B88C0F6FF89C0F7FF99
:1031A800F86A8AC0D9FF8BC0DAFF0800F5CFDFFFC5
:1031B800DF50D8B41200EBD781A2FED781380F0BAD
:1031C8000F0B0001806F81B2FED700F00001805123
:1031D800010D190EF324F66EFC0EF420F76EF86A52
:1031E800000EF8220800F55012000001816F8FECE4
:1031F80019F0C5868FEC19F0C9CF82F08FEC19F061
:10320800000181B102D0C59A01D0C58AC5880001E4
:10321800825112007D0E0001866FFE0E876FBEEC94
:103228000FF0E0EC18F00001956F9551966F976BD1
:103238002A0E96199711D8B41200F3D700018051BD
:103248008203F3CF84F0F4CF85F080518303F350E9
:10325800852781518203F350852784C080F085C07B
:1032680081F0120095C086F096C087F0BEEC0FF092
:10327800660E0001986F760E976FC10EE82EFED786
:10328800972FFCD7982FFAD712004A50D8A41200CB
:10329800D59CD59AD596D584D582D580F90ED76E8A
:1032A8005F0ED66ED58EF28AF28E12000001846F00
:1032B80084C085F000018551D8B412008345E846E2
:1032C800FC0B100983EC19F000018507F4D71200F4
:1032D80000003C000000020202020080BF0080BF24
:1032E8004330030002000001826F8C840001825188
:1032F800A5EC16F0C80E00D0E82EFDD7120000018C
:10330800826F8C9400018251A5EC16F0C80E00D093
:10331800E82EFDD71200C7B4FED7C5CF80F01F0E28
:1033280000018017D8B41200F6D7000E0101D66F3D
:10333800000ED76F000ED86F000ED96F1200016E05
:103348000150D8A402D0010E1200000E120059C07C
:1033580080F05AC081F05BC082F01200000E596EF6
:10336800000E5A6E000E5B6E12008FEC19F081C0D1
:10337800C9FF12008FEC19F0C58412008FEC19F008
:04338800C5801200EA
:10FBF00000010000000A00000064000000E80300AB
:10FC00000010270000A086010040420F0080969857
:10FC10000000E1F50500CA9A3B31323342343536F3
:10FC20004E373839532A302357002A3C2D202020C4
:10FC300028202D20292020202000555B777FFF10D1
:10FC4000000102100228496E76616C696420656EBD
:10FC50007472790A506C65617365207472792061E1
:10FC60006761696E0000546F6F206D616E79206668
:10FC7000617374656E65727300000000000000001F
:10FC8000000000000000546F6F206D616E792062EB
:10FC90006F6C7473000000000000000000000000A2
:10FCA000000000000000546F6F206D616E79206EBF
:10FCB00075747300000000000000000000000000E8
:10FCC000000000000000546F6F206D616E79207796
:10FCD000617368657273000000000000000000009E
:10FCE000000000000000546F6F206D616E7920737A
:10FCF0007061636572730000000000000000000086
:10FD00000000000000004E6F2066617374656E6530
:10FD100072732073656C6563746564000000000095
:10FD2000000000000000417373656D626C79207300
:10FD3000746570730A2A3C2D202028342D38292020
:10FD40002020202000000046617374656E65727388
:10FD500020696E2043780A2A3C2D28424E535729A9
:10FD6000202020202D3E2300486F77206D616E7982
:10FD700020736574733F0A2A3C2D202028312D34CE
:10FD8000292020202020000000436F6E6669726DDC
:10FD90003F0A2A3C2D202028413A592F423A4E2929
:10FDA0002000000000000000000000000000010032
:10FDB000000000010000000001000000000101013E
:10FDC000000001000100010000010201000002002A
:10FDD0000100020000010101000101000101010018
:10FDE0000002010100020100010202000101020102
:10FDF00000010102000101030000010000030146AF
:10FE0000696E6973686564207061636B6167696EB0
:10FE10006720636F6D706172746D656E7420256408
:10FE2000000001456E746572656420746865207019
:10FE300061636B6167696E672066756E6374696F75
:10FE40006E0000303A536C65657020313A42656748
:10FE5000696E200A323A2056696577204C6F6773C5
:10FE600000014F7574206F662074686520706163AF
:10FE70006B6167696E67206C6F6F7000004E6F7406
:10FE8000207468657265207965740A2A20746F2071
:10FE900072657475726E0053746172746564206962
:10FEA0006E70757420656E7472792C20686900001C
:10FEB00001423A2564204E3A256420533A256420B5
:10FEC000573A25640000015374617274696E6720AB
:10FED0007061636B6167696E67000053746172746F
:10FEE000696E67207061636B6167696E67000144CA
:10FEF0006F6E6520636F6D706172746D656E7400F6
:10FF0000005072657373203120746F2062656769D9
:10FF10006E005072657373203120746F20737461AA
:10FF20007274000153706163657220436F756E7463
:10FF3000656400000157617368657220436F756ED8
:10FF400074656400000153706163657220636F75AE
:10FF50006E74656400000157617368657220636F99
:10FF6000756E7465640000422564204E256420533C
:10FF70002564205725640001426F6C7420436F751F
:10FF80006E746564000001426F6C7420636F756E5F
:10FF90007465640000436F6D706172746D656E749A
:10FFA0002025640001446F6E6520696E707574735E
:10FFB0000000014E757420436F756E746564000017
:10FFC000014E757420636F756E746564000043257F
:10FFD000643A202573207825640052656D61696E4E
:10FFE000696E673A0053756D6D6172793A00286EDB
:10FFF000756C6C290054696D653A00256C640000CD
:020000040020DA
:08000000FFFFFFFFFFFFFFFF00
:020000040030CA
:0E000000FF061F1EFF8181FF0FC00FE00F40A3
:00000001FF
