:040000002FEF7BF073
:10F576004330036E8C940350A4EC7BF0C80E00D08D
:10F58600E82EFDD71200036E8C840350A4EC7BF0AA
:10F59600C80E00D0E82EFDD71200056E05C006F095
:10F5A6000650D8B412000444E846FC0B1009BCEC23
:10F5B6007AF00606F5D701500302F3CF05F0F4CF33
:10F5C60006F001500402F350062602500302F350DF
:10F5D600062605C001F006C002F0120016C007F0AC
:10F5E60017C008F0E3EC7BF0660E196E760E186E07
:10F5F600C10EE82EFED7182EFCD7192EFAD700F02A
:10F60600120081A2FED781380F0B0F0B016E81B25B
:10F61600FED700F00150010D6F0EF324F66EFE0EBC
:10F62600F420F76E0800F5501200000E896E000EE9
:10F636008A6E000E8B6E000E8C6E000E8D6E9268BA
:10F646009368000E946E000E956E000E966E7EEC1C
:10F656007BF035EC7DF0FFD7760EF66EF50EF76E85
:10F66600000EF86E0900F5CF75F00900F5CF76F0BB
:10F6760000EE5AF01B0EEE6AE806FDE1000EF86E8B
:10F68600000118EF7BF007C00BF008C00CF004D0A7
:10F696000B4A0C2A094A0A2A09C0F6FF0AC0F7FFD4
:10F6A6000BC0D9FF0CC0DAFF0800F5CFDFFFDF5033
:10F6B600D8B41200EDD70A6E800EBCEC7AF0410E7B
:10F6C600086EEE0EE82EFED7082EFCD700D0000EF0
:10F6D600096E04D0C00EBCEC7AF0092A0750095C0A
:10F6E600D8A0F8D70A50D8B41200010E046E0A50FA
:10F6F600D0EC7AF01200C30E046ECD0EE82EFED7C3
:10F70600042EFCD700F0330EBCEC7AF0320EBCECC3
:10F716007AF0280EBCEC7AF00F0EBCEC7AF0060EEE
:10F72600BCEC7AF0010EBCEC7AF0C30E046ECD0E82
:10F73600E82EFED7042EFCD700F00F0EBCEC7AF0B4
:10F746001200026E0250F00B016E8C500F0B8C6E85
:10F7560001508C108C6E000EF2BE010E746EF29E7D
:10F766008C86530EE82EFED700F08C96C80E00D07D
:10F77600E82EFDD774B002D0F29E01D0F28E023888
:10F78600F00B026E0250F00B016E8C500F0B8C6E5C
:10F7960001508C108C6E000EF2BE010E746EF29E3D
:10F7A6008C86530EE82EFED700F08C96C80E00D03D
:10F7B600E82EFDD774B002D0F29E01D0F28E120070
:10F7C600000E0D6E010E0C6E000E116E100E106EF8
:10F7D60012681368000E0F6E000E0E6E010EBCEC62
:10F7E6007AF0C30E096ECD0EE82EFED7092EFCD791
:10F7F60000F0800EBCEC7AF0410E096EEE0EE82E9B
:10F80600FED7092EFCD700D0000E156E000E146E22
:10F8160015BE08D0155005E1110E145CD8B087D07E
:10F8260001D085D014500724096E155008200A6EA1
:10F8360009C0F6FF0AC0F7FF000EF86E0F0EF76458
:10F8460003D00800F55005D0F6CFE9FFF7CFEAFF61
:10F85600EF500009D8B46BD014500724096E155028
:10F8660008200A6E09C0F6FF0AC0F7FF000EF86E00
:10F876000F0EF76403D00800F55005D0F6CFE9FF68
:10F88600F7CFEAFFEF50200AD8A404D014C00EF038
:10F8960015C00FF014500724096E155008200A6E83
:10F8A60009C0F6FF0AC0F7FF000EF86E0F0EF764E8
:10F8B60003D00800F55005D0F6CFE9FFF7CFEAFFF1
:10F8C600EF500A0AD8A408D014C012F015C013F0DD
:10F8D60012C010F013C011F0100E14181510D8A491
:10F8E6001FD014500724096E155008200A6E09C04F
:10F8F600F6FF0AC0F7FF000EF86E0F0EF76403D08E
:10F906000800F55005D0F6CFE9FFF7CFEAFFEF5034
:10F91600200AD8A413AE04D00EC010F00FC011F008
:10F92600144A152A15BE7ED7155001E175D7000E6B
:10F93600156E000E146E15BE08D0155005E1200E8A
:10F94600145CD8B0120001D0120014500724096EBE
:10F95600155008200A6E09C0F6FF0AC0F7FF000E10
:10F96600F86E0F0EF76403D00800F55005D0F6CFF9
:10F97600E9FFF7CFEAFFEF500009D8B412001050A4
:10F9860014184FE111501518D8A44BD0970EF66EE7
:10F99600FE0EF76E0800F550096E0A6A09500C5CF7
:10F9A6000D50800A0B6E0A50800A0B58D8B039D019
:10F9B6000C4A0D2AC00EBCEC7AF014500724096ECE
:10F9C600155008200A6E09C0F6FF0AC0F7FF000EA0
:10F9D600F86E0F0EF76403D00800F55005D0F6CF89
:10F9E600E9FFF7CFEAFFEF50200AD8B433D014501E
:10F9F6000724096E155008200A6E09C0F6FF0AC0D2
:10FA0600F7FF000EF86E0F0EF76403D00800F550EE
:10FA160005D0F6CFE9FFF7CFEAFFEF500A0AD8B4D0
:10FA260019D014500724096E155008200A6E09C013
:10FA3600F6FF0AC0F7FF000EF86E0F0EF76403D04C
:10FA46000800F55005D0F6CFE9FFF7CFEAFFEF50F3
:10FA5600C6EC7AF0144A152A15BE77D7155001E17F
:10FA66006ED71200010EBCEC7AF0C30E1A6ECD0EE4
:10FA7600E82EFED71A2EFCD700F0800EBCEC7AF0EA
:10FA8600410E1A6EEE0EE82EFED71A2EFCD700D0C7
:10FA9600000E546E000E536E75C03EF076C03FF0F9
:10FAA600000E566E000E556E000E416E000E406E34
:10FAB600AED155505610D8A446D055C001F056C008
:10FAC60002F0000E046E210E036EDEEC7AF07B0E61
:10FAD6000124076EFF0E0220086EE3EC7BF004ECB7
:10FAE6007BF0596ED00E5924516E526AFF0E522287
:10FAF6005950C6EC7AF01A0E1B6E5E0E1A6E6E0E1A
:10FB0600E82EFED71A2EFCD71B2EFAD700D052BEEF
:10FB160013D0525004E1040E515CD8A00DD052BE51
:10FB260006D0525009E1090E515CD8B005D051C03B
:10FB36005AF052C05BF069D19B0E166EFE0E176E20
:10FB4600F1EC7AF064D155045610D8A460D1FC0EBD
:10FB56001A6EFF0E1B6E5AC01CF05BC01DF01A50C9
:10FB66001C261B501D22900E1C24F66EFE0E1D2018
:10FB7600F76E0800F5CF4EF0000E546E000E536E71
:10FB86003AD153C01AF04EC01BF01A2A02D0D890B0
:10FB96001B321A2EFCD71BA02CD1000E4D6E000E68
:10FBA60023D1000E436E000E426E000E456E000E0F
:10FBB600446E000E476E000E466E000E496E000E35
:10FBC600486E1E0E076E000E086E55C001F056C038
:10FBD60002F0000E046E210E036EDEEC7AF07B0E50
:10FBE6000124096EFF0E02200A6E46EC7BF053508C
:10FBF600310F2C6E1E0E076E000E086EE3EC7BF0C6
:10FC0600010E076E090E5EEC7BF0000E506E000EC4
:10FC16003AD004EC7BF0596E420E5918D8B40CD089
:10FC26004E0E5918D8B408D0530E5918D8B404D06B
:10FC3600570E5918D8A420D05950C6EC7AF00CD0DB
:10FC4600424A432A16D0444A452A13D0464A472AEE
:10FC560010D0484A492A0DD05950420AD8B4F0D794
:10FC66000C0AD8B4F0D71D0AD8B4F0D7040AD8B411
:10FC7600F0D74F4A502A0DD0230E5918D8A405D0D4
:10FC8600000E506E040E4F6E04D02A0E5918D8B4CA
:10FC960008D050BEBED7505004E1040E4F5CD8A029
:10FCA600B8D7000E4B6E000E4A6E000E586E000E50
:10FCB600576E58BE08D0585005E1140E575CD8B0A0
:10FCC60085D001D083D057C01AF058C01BF0D89009
:10FCD6001A361B36D8901A361B361F0E1A24F66EA5
:10FCE600FE0E1B20F76E0800F5501C6E1D6A425072
:10FCF6001C1865E143501D18D8A461D057C01AF0EE
:10FD060058C01BF0D8901A361B36D8901A361B36B8
:10FD1600010E1A26000E1B221F0E1A24F66EFE0E68
:10FD26001B20F76E0800F5501C6E1D6A44501C1807
:10FD360046E145501D18D8A442D057C01AF058C005
:10FD46001BF0D8901A361B36D8901A361B36020E80
:10FD56001A26000E1B221F0E1A24F66EFE0E1B20FC
:10FD6600F76E0800F5501C6E1D6A46501C1827E1F8
:10FD760047501D18D8A423D057C01AF058C01BF0FE
:10FD8600D8901A361B36D8901A361B36030E1A260A
:10FD9600000E1B221F0E1A24F66EFE0E1B20F76E97
:10FDA6000800F5501C6E1D6A48501C1808E14950A1
:10FDB6001D18D8A404D0000E4B6E010E4A6E574A89
:10FDC600582A58BE80D7585001E177D74A504B1071
:10FDD600D8A407D09B0E166EFE0E176EF1EC7AF0C5
:10FDE60004D0000E4D6E010E4C6E4C504D10D8B422
:10FDF600D8D6534A542A5A50535C5450800A1A6E25
:10FE06005B50800A1A58D8A0BCD6554A562A40508C
:10FE16004110D8A412004DD60001000000000100D8
:10FE260000000001000000000101010000010001C6
:10FE360000010000010201000002000100020000B2
:10FE460001010100010100010101000002010100A0
:10FE5600020100010202000101020100010102008B
:10FE6600010103000001000003313233423435360C
:10FE76004E373839532A302357002A3C2D2020206C
:10FE860028202D20292020202000555B777FFF0089
:10FE96000102100228496E76616C696420656E74F1
:10FEA60072790A506C656173652074727920616796
:10FEB60061696E0000546F6F206D616E7920666116
:10FEC6007374656E65727300000000000000000028
:10FED6000000000000546F6F206D616E7920626F24
:10FEE6006C747300000000000000000000000000B9
:10FEF6000000000000546F6F206D616E79206E75F2
:10FF06007473000000000000000000000000000004
:10FF16000000000000546F6F206D616E79207761DC
:10FF260073686572730000000000000000000000A6
:10FF36000000000000546F6F206D616E79207370B1
:10FF4600616365727300000000000000000000009D
:10FF560000000000004E6F2066617374656E657266
:10FF6600732073656C6563746564000000000000AF
:10FF76000000000000417373656D626C7920737434
:10FF86006570730A2A3C2D202028342D382920201C
:10FF960020202000000046617374656E6572732030
:10FFA600696E2043780A2A3C2D28424E5357292051
:10FFB6002020202D3E2300486F77206D616E79202A
:10FFC600736574733F0A2A3C2D202028312D34296D
:10FFD6002020202020000000436F6E6669726D3F6E
:10FFE6000A2A3C2D202028413A592F423A4E2920F0
:0AFFF6000000000000000000000001
:020000040020DA
:08000000FFFFFFFFFFFFFFFF00
:020000040030CA
:0E000000FF061F1EFF8181FF0FC00FE00F40A3
:00000001FF
