:040000008BEF77F01B
:10EDFE0043300DEC77F0C58012000DEC77F0C58432
:10EE0E0012000DEC77F002C0C9FF1200C7B4FED796
:10EE1E00C5CF01F01F0E0116D8B41200F7D7036E3E
:10EE2E008C940350E0EC78F0C80E00D0E82EFDD79D
:10EE3E001200036E8C840350E0EC78F0C80E00D004
:10EE4E00E82EFDD71200026E0DEC77F0C5860DECA4
:10EE5E0077F0C9CF03F00DEC77F002B002D0C59A6F
:10EE6E0001D0C58AC5880350120001500302F3CFAA
:10EE7E0005F0F4CF06F001500402F35006260250BE
:10EE8E000302F350062605C001F006C002F0120080
:10EE9E00000E336E000E346E400E356EEE0E366E74
:10EEAE002B0E316E000E326E330E176E000E186E74
:10EEBE0029C019F02AC01AF0310E1B6E000E1C6EFE
:10EECE002DEC7CF0120029C033F02AC034F0000E75
:10EEDE00356E000E366E2D0E316E000E326E330E06
:10EEEE00176E000E186E2BC019F02CC01AF0310ED2
:10EEFE001B6E000E1C6E2DEC7CF033C0D9FF34C09F
:10EF0E00DAFF000EDF6E12006F0EF66EF00EF76E69
:10EF1E00000EF86E01EE00F010EE69F00900F5CF6C
:10EF2E00EEFFE550E150FAE1FE0EF66EED0EF76ED5
:10EF3E00000EF86E0900F5CF6BF00900F5CF6CF0FE
:10EF4E0000EE40F02B0EEE6AE806FDE10001A9EF9F
:10EF5E0079F0C30E046ECD0EE82EFED7042EFCD72C
:10EF6E0000F0330E16EC77F0320E16EC77F0280E1A
:10EF7E0016EC77F00F0E16EC77F0060E16EC77F017
:10EF8E00010E16EC77F0C30E046ECD0EE82EFED7F2
:10EF9E00042EFCD700F00F0E16EC77F01200C69A76
:10EFAE0094869488800EC76E280EC66E000EC56EAF
:10EFBE00000E016E5A0E026E620E036E020E046E8B
:10EFCE000EC012F00FC013F010C014F011C015F0E7
:10EFDE00020ED8901236133614361536E82EF9D79F
:10EFEE0012C005F013C006F014C007F015C008F0EB
:10EFFE001FEC79F00104C86E120012501310141099
:10F00E001510D8B424D0010E166E06D0D890123634
:10F01E00133614361536162A15AEF8D712500E5C66
:10F02E0013500F581450105815501158D8A008D01E
:10F03E0012500E5E13500F5A1450105A1550115A8A
:10F04E00D8901532143213321232162EE7D70EC064
:10F05E000EF00FC00FF010C010F011C011F0120022
:10F06F004E4F4E450042000000004E00000000537E
:10F07F00000000005700000000424E000000425305
:10F08F00000000425700000042424E00004242532F
:10F09F0000004242570000424E57000042535700B3
:10F0AF00004257570000424E4E57004253575700E9
:10F0BF00424253570042424E5700424E4E57004273
:10F0CF004E4E4E00425757570000EC77F0000E039C
:10F0DF006ED00E026E08EC77F0000E036E000E027B
:10F0EF006E08EC77F004EC77F000EC77F0000E038D
:10F0FF006ED10E026E08EC77F0000E066E050E064E
:10F10F006401D00ED00650010DF3500424D96EF4D3
:10F11F00500520DA6E000E2AEC77F0DF6E062AEE2D
:10F12F00D720EE06F00450D9260550DA22010E2A18
:10F13F00EC77F0DF6E04EC77F012000D0E046E002A
:10F14F000E056E6CEC78F00FC001F0026A0E0E0423
:10F15F006E100E036E3CEC77F00E503C0D0D500B05
:10F16F006E0C6AF3500B26F4500C2201500B260242
:10F17F00500C2210C001F0026A510E046E800E0373
:10F18F006E3CEC77F001500B2602500C220BC01492
:10F19F00F00CC015F0000E15BEFF0E166E176E1494
:10F1AF00C007F015C008F016C009F017C00AF0121A
:10F1BF0000026E0250F00B016E8C500F0B8C6E0123
:10F1CF00508C108C6E000EF2BE010E6A6EF29E8C89
:10F1DF0086530EE82EFED700F08C96C80E00D0E8AE
:10F1EF002EFDD76AB002D0F29E01D0F28E0238F017
:10F1FF000B026E0250F00B016E8C500F0B8C6E01D8
:10F20F00508C108C6E000EF2BE010E6A6EF29E8C48
:10F21F0086530EE82EFED700F08C96C80E00D0E86D
:10F22F002EFDD76AB002D0F29E01D0F28E120000EE
:10F23F000E096E000E0A6E000E0B6E000E0C6E05A0
:10F24F0050061007100810D8B42AD0010E0D6E0604
:10F25F00D0D89005360636073608360D2A08AEF890
:10F26F00D7D89009360A360B360C360550015C0696
:10F27F005002580750035808500458D8A009D00519
:10F28F0050015E0650025A0750035A0850045A099B
:10F29F0080D89008320732063205320D2EE1D70999
:10F2AF00C001F00AC002F00BC003F00CC004F01252
:10F2BF0000096E000E0B6E000E0A6E00EC77F0095F
:10F2CF00C002F0036A08EC77F01FD00A500424063E
:10F2DF006E0B500520076E06C0F6FF07C0F7FF0044
:10F2EF000EF86E0F0EF76403D00800F55005D0F638
:10F2FF00CFE9FFF7CFEAFFEF50086E0850026E0319
:10F30F006A08EC77F00A4A0B2A0A500424066E0B9F
:10F31F00500520076E06C0F6FF07C0F7FF000EF876
:10F32F006E0F0EF76403D00800F55005D0F6CFE945
:10F33F00FFF7CFEAFFEF500009D8A4C7D704EC7747
:10F34F00F01200000E896E000E8A6E000E8B6E009A
:10F35F000E8C6E000E8D6E9268F70E936E000E94EB
:10F36F006E000E956E000E966EA00E0E6E860E0F30
:10F37F006E010E106E000E116ED6EC77F0B0EC77BA
:10F38F00F0010E16EC77F0C30E3F6ECD0EE82EFE99
:10F39F00D73F2EFCD700F0800E16EC77F0410E3FD2
:10F3AF006EEE0EE82EFED73F2EFCD700D0EB0E29C7
:10F3BF006EFF0E2A6E4FEC77F0930E046EFF0E0564
:10F3CF006E3F0EF66EFD0EF76E000EF86E0800F52E
:10F3DF005060EC79F0040E376E040E386E040E395F
:10F3EF006E040EFCEC79F0FFD70001A16F8A868BBB
:10F3FF00828B8A8B8ED80E046EFF0E056E3F0EF633
:10F40F006EFD0EF76E000EF86E0800F55060EC7989
:10F41F00F0000E0001B36F000EB26F000EB56F005B
:10F42F000EB46F000EB76F000EB66F000EB96F00FF
:10F43F000EB86F000EBB6F000EBA6F000EBD6F00DF
:10F44F000EBC6F000EBF6F000EBE6F000EC16F00BF
:10F45F000EC06F000EA26F000EA36F000EA46F0000
:10F46F000EA56F000EA66F000EA76F000EA86F00FF
:10F47F000EA96F000EAA6F000EAB6F000EAC6F00DF
:10F48F000EAD6F000EAE6F000EAF6F000EB06F00BF
:10F49F000EB16F050EC26F010E16EC77F0C30E3A68
:10F4AF006ECD0EE82EFED73A2EFCD700F0800E164A
:10F4BF00EC77F0410E3A6EEE0EE82EFED73A2EFCA8
:10F4CF00D700D0BF0E296EFF0E2A6E4FEC77F06675
:10F4DF000E3B6E760E3A6EC10EE82EFED73A2EFC1C
:10F4EF00D73B2EFAD700F0A5EC78F007C0C3F00891
:10F4FF00C0C4F009C0C5F00AC0C6F0800E296E0066
:10F50F000E2A6EFB0E2B6EFF0E2C6EC3C02DF0C499
:10F51F00C02EF0C5C02FF0C6C030F06AEC77F08176
:10F52F000E0001A06F010E16EC77F0C30E3A6ECDF0
:10F53F000EE82EFED73A2EFCD700F0800E16EC7791
:10F54F00F0410E3A6EEE0EE82EFED73A2EFCD700A3
:10F55F00D0800E296E000E2A6E4FEC77F0660E3BB0
:10F56F006E760E3A6EC10EE82EFED73A2EFCD73BC2
:10F57F002EFAD700F0800E046E000E056E3F0EF6C9
:10F58F006EFD0EF76E000EF86E0800F55060EC7908
:10F59F00F080B035D00001C251A2253A6E000EA303
:10F5AF00213B6E000EA4213C6E000EA5213D6EC3C3
:10F5BF00513A5CC4513B58C5513C583D50800A3EAE
:10F5CF006EC651800A3E58D8B01AD0C3C0A2F0C43C
:10F5DF00C0A3F0C5C0A4F0C6C0A5F0B24BB32B6258
:10F5EF004A632AA30E046EFF0E056E3F0EF66EFDE4
:10F5FF000EF76E000EF86E0800F55060EC79F08093
:10F60F00B235D00001C251A6253A6E000EA7213B9C
:10F61F006E000EA8213C6E000EA9213D6EC3513A1B
:10F62F005CC4513B58C5513C583D50800A3E6EC694
:10F63F0051800A3E58D8B01AD0C3C0A6F0C4C0A794
:10F64F00F0C5C0A8F0C6C0A9F0B44BB52B644A658D
:10F65F002AB20E046EFF0E056E3F0EF66EFD0EF70C
:10F66F006E000EF86E0800F55060EC79F080B4353E
:10F67F00D00001C251AA253A6E000EAB213B6E009D
:10F68F000EAC213C6E000EAD213D6EC3513A5CC4F1
:10F69F00513B58C5513C583D50800A3E6EC6518073
:10F6AF000A3E58D8B01AD0C3C0AAF0C4C0ABF0C538
:10F6BF00C0ACF0C6C0ADF0B64BB72B664A672A7325
:10F6CF000E046EFF0E056E3F0EF66EFD0EF76E000A
:10F6DF000EF86E0800F55060EC79F080B635D0006A
:10F6EF0001C251AE253A6E000EAF213B6E000EB037
:10F6FF00213C6E000EB1213D6EC3513A5CC4513BAB
:10F70F0058C5513C583D50800A3E6EC651800A3E46
:10F71F0058D8B01AD0C3C0AEF0C4C0AFF0C5C0B097
:10F72F00F0C6C0B1F0B84BB92B684A692A830E04F2
:10F73F006EFF0E056E3F0EF66EFD0EF76E000EF8A5
:10F74F006E0800F55060EC79F00001A1513A6E3B64
:10F75F006A3A50B25DB351800A3C6E3B50800A3C0E
:10F76F0058D8A005D08A96000EBB6F010EBA6F371E
:10F77F00503A6E3B6A3A50B45DB551800A3C6E3BCD
:10F78F0050800A3C58D8A005D08B9A000EBD6F014F
:10F79F000EBC6F38503A6E3B6A3A50B65DB7518027
:10F7AF000A3C6E3B50800A3C58D8A005D08B9A007B
:10F7BF000EBF6F010EBE6F39503A6E3B6A3A50B8AA
:10F7CF005DB951800A3C6E3B50800A3C58D8A00569
:10F7DF00D08B9E000EC16F010EC06FBA51BB11D8F6
:10F7EF00B482D6BC51BD11D8B47ED6BE51BF11D88C
:10F7FF00B47AD6C051C111D8B476D64F0E046EFF6D
:10F80F000E056E3F0EF66EFD0EF76E000EF86E08CB
:10F81F0000F55060EC79F0020E046E000E056E3F9D
:10F82F000EF66EFD0EF76E000EF86E0800F55060C6
:10F83F00EC79F0FE0E3B6EA70E3A6E660EE82EFECA
:10F84F00D73A2EFCD73B2EFAD712002AD2250E28F4
:10F85F0018D8B419D020EE02F01750D9261850DA64
:10F86F0022DE50DE10D8B4C0D020EE02F01750D9EF
:10F87F00261850DA22DECF1DF0DDCF1EF001D81092
:10F88F00D20500FA6EA9D0000E216EC4D02188C215
:10F89F00D01BC0D9FF1CC0DAFFDFCF1DF0020EDE78
:10F8AF0026DFCF1EF0000EDD221DC0D9FF1EC0DAED
:10F8BF00FFDECF26F0DDCF27F026502710D8A45F2C
:10F8CF00D0F40E266EFF0E276E5AD020EE02F017E0
:10F8DF0050D9261850DA22DE50DE10D8B429D020A5
:10F8EF00EE02F01750D9261850DA22DECF1DF0DDC8
:10F8FF00CF1EF001D81AD00500FA6E1D50FD6E1EF6
:10F90F0050FE6EFF6AFA5026C0F6FF27C0F7FF00C1
:10F91F000EF86E0F0EF76403D00800F55005D0F601
:10F92F00CFE9FFF7CFEAFFEF501200264A272A2729
:10F93F00D026C0F6FF27C0F7FF000EF86E17C0D90C
:10F94F00FF18C0DAFFDECF1DF0DDCF1EF01DC0D9CE
:10F95F00FF1EC0DAFF0F0EF76403D00800F5500545
:10F96F00D0F6CFE9FFF7CFEAFFEF50DF6E264A2739
:10F97F002A17C0D9FF18C0DAFFDE2A000EDD2226B3
:10F98F00C0F6FF27C0F7FF000EF86E0F0EF76403E7
:10F99F00D00800F55005D0F6CFE9FFF7CFEAFFEF1B
:10F9AF00500009D8B47DD191D720EE02F01750D96D
:10F9BF00261850DA22DE50DE10D8B416D020EE0210
:10F9CF00F01750D9261850DA22DECF1DF0DDCF1EEA
:10F9DF00F001D866D10500FA6E1D50FD6E1E50FE67
:10F9EF006EFF6AFA502850120017C0D9FF18C0DAFC
:10F9FF00FFDECF1DF0DDCF1EF01DC0D9FF1EC0DA18
:10FA0F00FF28C0DFFF17C0D9FF18C0DAFFDE2A00BA
:10FA1F000EDD2246D119501D6E1A501E6E194A1A4C
:10FA2F002A1DC0F6FF1EC0F7FF000EF86E0F0EF76F
:10FA3F006403D00800F55005D0F6CFE9FFF7CFEA01
:10FA4F00FFEF50286E2850000AD8B445D1640AD869
:10FA5F00B40AD00D0AD8B407D0050AD8B417D71FE7
:10FA6F000AD8B416D7A1D721A819D01BC0D9FF1C0B
:10FA7F00C0DAFFDFCF1DF0040EDE26DFCF1EF00051
:10FA8F000EDD221DC0D9FF1EC0DAFFDECF22F0DE51
:10FA9F00CF23F0DECF24F0DECF25F019D01BC0D955
:10FAAF00FF1CC0DAFFDFCF1DF0020EDE26DFCF1EF8
:10FABF00F0000EDD221DC0D9FF1EC0DAFFDECF22FF
:10FACF00F0DDCF23F0000E23BEFF0E246E256E2532
:10FADF00AE0AD0030E2112251E241E231E226C00F7
:10FAEF000E232224222522010E286E0A0E2818D852
:10FAFF00B41BD02850040DF10EF324F66EFC0EF457
:10FB0F0020F76EF86A000EF8220900F550225C0902
:10FB1F0000F55023580900F55024580900F55025D9
:10FB2F0058D8A002D0282AE1D721C01DF0030E1DFE
:10FB3F0016D8B435D020EE02F01750D9261850DA67
:10FB4F0022DE50DE10D8B416D020EE02F01750D9B6
:10FB5F00261850DA22DECF1DF0DDCF1EF001D81FA0
:10FB6F00D00500FA6E1D50FD6E1E50FE6EFF6AFA34
:10FB7F00502D0E120017C0D9FF18C0DAFFDECF1DAF
:10FB8F00F0DDCF1EF01DC0D9FF1EC0DAFF2D0EDF36
:10FB9F006E17C0D9FF18C0DAFFDE2A000EDD22284B
:10FBAF00501F6E206A1FBE200673D01FC01DF0208D
:10FBBF00C01EF0D8901D361E36D8901D361E36F159
:10FBCF000E1D24F66EFC0E1E20F76EF86A000EF85E
:10FBDF00220900F5CF05F00900F5CF06F00900F571
:10FBEF00CF07F00A00F5CF08F022C001F023C002C2
:10FBFF00F024C003F025C004F01FEC79F001C00E13
:10FC0F00F002C00FF003C010F004C011F00A0E1282
:10FC1F006E000E136E000E146E000E156E04EC784F
:10FC2F00F00E50300F286E20EE02F01750D9261824
:10FC3F0050DA22DE50DE10D8B416D020EE02F017C4
:10FC4F0050D9261850DA22DECF1DF0DDCF1EF0017D
:10FC5F00D81FD00500FA6E1D50FD6E1E50FE6EFFB0
:10FC6F006AFA502850120017C0D9FF18C0DAFFDE09
:10FC7F00CF1DF0DDCF1EF01DC0D9FF1EC0DAFF284B
:10FC8F00C0DFFF17C0D9FF18C0DAFFDE2A000EDD74
:10FC9F00221F06D8A020061F2888E12028D8A48577
:10FCAF00D719501D6E1A501E6E194A1A2A1DC0F60A
:10FCBF00FF1EC0F7FF000EF86E0F0EF76403D0089B
:10FCCF0000F55005D0F6CFE9FFF7CFEAFFEF502848
:10FCDF006E2850D8A4BBD5000E186E000E176E12EA
:10FCEF000000010000000A00000064000000E803AB
:10FCFF00000010270000A086010040420F008096F0
:10FD0F00980000E1F50500CA9A3B31323342343591
:10FD1F00364E373839532A302357002A3C2D2020AE
:10FD2F002028202D20292020202000555B777FFFC1
:10FD3F0010000102100228496E76616C696420651B
:10FD4F006E7472790A506C656173652074727920D4
:10FD5F00616761696E0000546F6F206D616E79206D
:10FD6F0066617374656E65727300000000000000B9
:10FD7F0000000000000000546F6F206D616E79204D
:10FD8F00626F6C7473000000000000000000000040
:10FD9F0000000000000000546F6F206D616E79202D
:10FDAF006E7574730000000000000000000000007A
:10FDBF0000000000000000546F6F206D616E79200D
:10FDCF007761736865727300000000000000000027
:10FDDF0000000000000000546F6F206D616E7920ED
:10FDEF007370616365727300000000000000000013
:10FDFF00000000000000004E6F2066617374656E96
:10FE0F006572732073656C65637465640000000030
:10FE1F0000000000000000417373656D626C792073
:10FE2F0073746570730A2A3C2D202028342D3829CD
:10FE3F00202020202000000046617374656E6572DB
:10FE4F007320696E2043780A2A3C2D28424E53575F
:10FE5F0029202020202D3E2300486F77206D616ED2
:10FE6F007920736574733F0A2A3C2D202028312D89
:10FE7F0034292020202020000000436F6E66697215
:10FE8F006D3F0A2A3C2D202028413A592F423A4EE5
:10FE9F002920000000000000000000000000000109
:10FEAF00000000000100000000010000000001013F
:10FEBF000100000100010001000001020100000229
:10FECF000001000200000101010001010001010118
:10FEDF000000020101000201000102020001010203
:10FEEF0001000101020001010300000100000330C5
:10FEFF003A536C65657020313A426567696E200A26
:10FF0F00323A2056696577204C6F6773004E6F74D5
:10FF1F00207468657265207965740A2A20746F20D1
:10FF2F0072657475726E00537461727465642069C2
:10FF3F006E70757420656E7472792C20686900007C
:10FF4F0001446F6E6520636F6D706172746D656EC5
:10FF5F007400005072657373203120746F206265D6
:10FF6F0067696E0053706163657220436F756E74BD
:10FF7F006564000057617368657220436F756E7416
:10FF8F00656400005468697320697320612074658B
:10FF9F007374000001426F6C7420436F756E74654B
:10FFAF006400004E757420436F756E7465640000B5
:10FFBF004E6F7720636F756E74696E6700432564AB
:10FFCF003A20257320782564005374617274696E2A
:10FFDF0067000053756D6D6172793A00436F756EEE
:10FFEF0074696E6700286E756C6C2900256C69004A
:01FFFF000001
:020000040020DA
:08000000FFFFFFFFFFFFFFFF00
:020000040030CA
:0E000000FF061F1EFF8181FF0FC00FE00F40A3
:00000001FF
