:0400000007EF00F016
:10000800598257ED0CF086EF0EF0010E01EC10F05E
:10001800C30E00018E6FCD0EE82EFED78E2FFCD7B3
:10002800800E01EC10F0410E00018E6FEE0EE82EEE
:10003800FED78E2FFCD700F0E70E2A6EFE0E2B6E31
:10004800CF0EF66EFC0EF76E000EF86E0800F55037
:10005800A8EC0CF0000E0001E66F000EE56FF7C08B
:10006800CAF0F8C0CBF0000EE26F000EE16F000E90
:10007800CE6F000ECD6F42D3E151E211D8A44BD020
:10008800E1C027F0E2C028F0000E2A6E210E296E8A
:10009800C4EC0FF0B60E27242D6EFD0E28202E6E10
:1000A80067EC07F087EC0FF00001E96FD00EE92547
:1000B800E36FE46BFF0EE423E951F7EC0FF01A0E3F
:1000C80000018F6F5E0E8E6F6E0EE82EFED78E2F9C
:1000D800FCD78F2FFAD700F00001E4BF15D0E45108
:1000E80004E1040EE35DD8A00FD0E4BF06D0E451CC
:1000F8000BE1090EE35DD8B007D0E3C033F0E4C0EC
:1001080034F0E14BE22BFAD2D60E8A6FFC0E8B6FDD
:10011800B1EC0FF0F3D20001E105E211D8A4EED260
:10012800FC0E8E6FFF0E8F6F33C090F034C091F0CD
:100138008E5190278F519123CA0E9025F66EFC0E92
:100148009121F76EF86A000EF8220800F5CFCCF07E
:10015800000EE66F000EE56FE6BF08D0E65105E138
:10016800080EE55DD8B0B8D201D0B6D2E5C08EF0A1
:10017800CCC08FF08E2B02D0D8908F338E2FFCD727
:1001880000018FA18AD221EE22F010EE92F0170E14
:10019800DBCFE3FFE806FCE2E551310FA76F920ED3
:1001A8002A6E000E2B6ECF0EF66EFC0EF76E000E4A
:1001B800F86E0800F550A8EC0CF0000E0001D26FA4
:1001C800000E51D1000EDA6F000ED96F000EDC6FF1
:1001D800000EDB6F000EDE6F000EDD6F000EE06FAD
:1001E800000EDF6FAA0E2D6E000E2E6EE1C027F0F6
:1001F800E2C028F0000E2A6E210E296EC4EC0FF022
:10020800B60E27242F6EFD0E2820306E55EC0FF009
:100218000001E551310FB86FAA0E2D6E000E2E6E3B
:1002280067EC07F0010E2D6E090EFBEC0EF0000EC8
:100238000001D66F000E4DD087EC0FF00001E96F7A
:10024800420EE919D8B40CD04E0EE919D8B408D02A
:10025800530EE919D8B404D0570EE919D8A422D0FE
:10026800E951F7EC0FF0420E0001E919D8A403D0C8
:10027800D94BDA2B14D04E0EE919D8A403D0DB4B96
:10028800DC2B0DD0530EE919D8A403D0DD4BDE2B9F
:1002980006D0570EE919D8A402D0DF4BE02BD54B76
:1002A800D62B21D0230EE919D8A415D0D951DA11AB
:1002B800D8A40CD0DB51DC11D8A408D0DD51DE1154
:1002C800D8A404D0DF51E011D8B40DD0000ED66FF9
:1002D800040ED56F08D02A0EE919D8A404D0E50772
:1002E800D8A0E607C6D0D6BFA7D7D65104E1040EDA
:1002F800D55DD8A0A1D7000ED06F000ECF6F000E2D
:10030800E86F000EE76FE8BF08D0E85105E1150E69
:10031800E75DD8B099D001D097D0E7C08EF0E8C09B
:100328008FF0D8908E378F37D8908E378F373A0E18
:100338008E25F66EFE0E8F21F76EF86A000EF822F3
:100348000800F550906F916BD951901976E1DA5108
:100358009119D8A472D0E7C08EF0E8C08FF0D89079
:100368008E378F37D8908E378F37010E8E27000E35
:100378008F233A0E8E25F66EFE0E8F21F76EF86AE1
:10038800000EF8220800F550906F916BDB51901920
:1003980054E1DC519119D8A450D0E7C08EF0E8C0E0
:1003A8008FF0D8908E378F37D8908E378F37020ED0
:1003B8008E27000E8F233A0E8E25F66EFE0E8F21A5
:1003C800F76EF86A000EF8220800F550906F916BEE
:1003D800DD51901932E1DE519119D8A42ED0E7C031
:1003E8008EF0E8C08FF0D8908E378F37D8908E3740
:1003F8008F37030E8E27000E8F233A0E8E25F66E4A
:10040800FE0E8F21F76EF86A000EF8220800F550EC
:10041800906F916BDF51901910E1E0519119D8A4B8
:100428000CD0350EE525D96E000EE621DA6EE7C050
:10043800DFFF000ED06F010ECF6FE74BE82BE8BF50
:100448006CD7E85101E163D7CF51D011D8A407D0B8
:10045800D60E8A6FFC0E8B6FB1EC0FF005D0000E34
:100468000001D26F010ED16F0001D151D211D8B461
:10047800A9D6000ED46F000E09D1F80E2D6EFD0E10
:100488002E6E67EC07F0010E2D6E0E0EFBEC0EF0D3
:1004980087EC0FF00001E96FD00EE925E36FE46BFC
:1004A800FF0EE4232A0EE919D8B460D6E951F7EC17
:1004B8000FF01A0E00018F6F5E0E8E6F6E0EE82E13
:1004C800FED78E2FFCD78F2FFAD700F0000E000131
:1004D800D86F000ED76F000EE86F000EE76FE8BF09
:1004E80006D0E85127E1040EE75DD8B023D0350ED9
:1004F800E525D96E000EE621DA6EDF508E6F8E513B
:10050800040D3A0E8F6FFE0E906FF3508F27F45044
:100518009023E7518F27E85190238FC0F6FF90C0B2
:10052800F7FFF86A0800F550D727000ED823E74BE5
:10053800E82BD5D7E3C027F0E4C028F0D7C029F0CE
:10054800D8C02AF0C4EC0FF028BE0ED0285004E121
:10055800050E275CD8A008D0F60E00018A6FFC0EA5
:100568008B6FB1EC0FF093D0E3C027F0E4C028F014
:10057800D7C029F0D8C02AF0C4EC0FF028BE05D0A7
:1005880028500BE12704D8B008D0960E00018A6FD6
:10059800FD0E8B6FB1EC0FF07AD0D9C027F0DAC01E
:1005A80028F0E3C029F0E4C02AF0C4EC0FF028BE1C
:1005B8000ED0285004E1030E275CD8A008D0160EF0
:1005C80000018A6FFD0E8B6FB1EC0FF060D0DBC0BD
:1005D80027F0DCC028F0E3C029F0E4C02AF0C4EC1E
:1005E8000FF028BE0ED0285004E1040E275CD8A0D6
:1005F80008D0360E00018A6FFD0E8B6FB1EC0FF03C
:1006080046D0DDC027F0DEC028F0E3C029F0E4C002
:100618002AF0C4EC0FF028BE0ED0285004E1030ED7
:10062800275CD8A008D0760E00018A6FFD0E8B6F6C
:10063800B1EC0FF02CD0DFC027F0E0C028F0E3C009
:1006480029F0E4C02AF0C4EC0FF028BE0ED02850E0
:1006580004E1050E275CD8A008D0560E00018A6F69
:10066800FD0E8B6FB1EC0FF012D0D8900001E5357C
:10067800D96EE635DA6E3D0ED926000EDA22E3C0D1
:10068800DEFFE4C0DDFF000ED46F010ED36F000162
:10069800D351D411D8A416D0F0D6350EE525D96E8D
:1006A800000EE621DA6E000EDF6ED890E535D96EC1
:1006B800E635DA6E3D0ED926000EDA22000EDE6E21
:1006C800000EDD6EE54BE62BE6BF50D5E65104E1A2
:1006D800080EE55DD8A04AD5000ECE6F010ECD6F8D
:1006E800A30E2A6EFF0E2B6ECF0EF66EFC0EF76E63
:1006F800000EF86E0800F550A8EC0CF00001CD5182
:10070800CE11D8A41200B8D437D2250E00019C19F6
:10071800D8B419D020EE02F08D51D9268E51DA22A4
:10072800DE50DE10D8B4C5D020EE02F08D51D926A7
:100738008E51DA22DECF30F0DDCF31F001D81CD275
:100748000500FA6EAED0000E0001956FC8D09589ED
:10075800C6D091C0D9FF92C0DAFFDFCF30F0020EC9
:10076800DE26DFCF31F0000EDD2230C0D9FF31C0E8
:10077800DAFFDECF9AF0DDCF9BF09A519B11D8A417
:1007880062D0EC0E9A6FFF0E9B6F5DD0000120EED9
:1007980002F08D51D9268E51DA22DE50DE10D8B4FF
:1007A8002AD020EE02F08D51D9268E51DA22DECFE2
:1007B80030F0DDCF31F001D81AD00500FA6E305094
:1007C800FD6E3150FE6EFF6AFA509AC0F6FF9BC06C
:1007D800F7FF000EF86E0F0EF76403D00800F5500F
:1007E80005D0F6CFE9FFF7CFEAFFEF50120000017E
:1007F8009A4B9B2B28D09AC0F6FF9BC0F7FF000EA0
:10080800F86E8DC0D9FF8EC0DAFFDECF30F0DDCFB5
:1008180031F030C0D9FF31C0DAFF0F0EF76403D0D2
:100828000800F55005D0F6CFE9FFF7CFEAFFEF5003
:10083800DF6E00019A4B9B2B8DC0D9FF8EC0DAFF6B
:10084800DE2A000EDD229AC0F6FF9BC0F7FF000EDD
:10085800F86E0F0EF76403D00800F55005D0F6CFF8
:10086800E9FFF7CFEAFFEF500009D8B485D18ED75A
:10087800000120EE02F08D51D9268E51DA22DE5089
:10088800DE10D8B416D020EE02F08D51D9268E5144
:10089800DA22DECF30F0DDCF31F001D86DD105009E
:1008A800FA6E3050FD6E3150FE6EFF6AFA509C5160
:1008B80012008DC0D9FF8EC0DAFFDECF30F0DDCF59
:1008C80031F030C0D9FF31C0DAFF9CC0DFFF8DC0E6
:1008D800D9FF8EC0DAFFDE2A000EDD224DD10001DD
:1008E8008F51306E9051316E8F4B902B30C0F6FF88
:1008F80031C0F7FF000EF86E0F0EF76403D0080042
:10090800F55005D0F6CFE9FFF7CFEAFFEF50000129
:100918009C6F9C51000AD8B44CD1640AD8B40AD050
:100928000D0AD8B407D0050AD8B411D71F0AD8B40D
:1009380010D79ED7000195A919D091C0D9FF92C0B0
:10094800DAFFDFCF30F0040EDE26DFCF31F0000E05
:10095800DD2230C0D9FF31C0DAFFDECF96F0DECF1E
:1009680097F0DECF98F0DECF99F019D091C0D9FF7B
:1009780092C0DAFFDFCF30F0020EDE26DFCF31F093
:10098800000EDD2230C0D9FF31C0DAFFDECF96F08D
:10099800DDCF97F0000E97BFFF0E986F996F99AF54
:1009A8000AD0030E9513991F981F971F966D000E76
:1009B800972398239923010E9C6F0A0E9C19D8B48B
:1009C8001BD09C51040D810EF324F66EFC0EF4200E
:1009D800F76EF86A000EF8220900F550965D0900D6
:1009E800F55097590900F55098590900F55099594B
:1009F800D8A002D09C2BE1D795C030F0030E30165A
:100A0800D8B435D020EE02F08D51D9268E51DA2295
:100A1800DE50DE10D8B416D020EE02F08D51D92663
:100A28008E51DA22DECF30F0DDCF31F001D81FD081
:100A38000500FA6E3050FD6E3150FE6EFF6AFA50B6
:100A48002D0E12008DC0D9FF8EC0DAFFDECF30F038
:100A5800DDCF31F030C0D9FF31C0DAFF2D0EDF6EA7
:100A68008DC0D9FF8EC0DAFFDE2A000EDD2200011C
:100A78009C51936F946B93BF940775D093C030F0DB
:100A880094C031F0D89030363136D890303631367F
:100A9800810E3024F66EFC0E3120F76EF86A000ED7
:100AA800F8220900F5CF2BF00900F5CF2CF009004A
:100AB800F5CF2DF00A00F5CF2EF096C027F097C09D
:100AC80028F098C029F099C02AF0F1EC0CF027C062
:100AD80085F028C086F029C087F02AC088F00A0E61
:100AE8000001896F000E8A6F000E8B6F000E8C6FED
:100AF80023EC0EF000018551300F9C6F20EE02F0C0
:100B08008D51D9268E51DA22DE50DE10D8B416D097
:100B180020EE02F08D51D9268E51DA22DECF30F048
:100B2800DDCF31F001D81FD00500FA6E3050FD6ED0
:100B38003150FE6EFF6AFA509C5112008DC0D9FFE9
:100B48008EC0DAFFDECF30F0DDCF31F030C0D9FF14
:100B580031C0DAFF9CC0DFFF8DC0D9FF8EC0DAFF3D
:100B6800DE2A000EDD2200019307D8A094079329FE
:100B780085E19429D8A482D700018F51306E905115
:100B8800316E8F4B902B30C0F6FF31C0F7FF000E4F
:100B9800F86E0F0EF76403D00800F55005D0F6CFB5
:100BA800E9FFF7CFEAFFEF5000019C6F9C51D8A4F2
:100BB800ACD5000E8E6F000E8D6F1200000E010175
:100BC800F66F010EF56F0101F551F611D8B40BD08F
:100BD800AF0E2D6EFE0E2E6E67EC07F0000E0101B3
:100BE800F66F000EF56F87EC0FF00001EA6FEA511F
:100BF8000101F76FF86BF751F7EC0FF0D00E000119
:100C0800EA6FFF0EEB6FF7C1ECF0F8C1EDF0EA51B7
:100C1800EC27EB51ED23EC51ED11D8A403D01BECDC
:100C28000FF0CCD7D00E0001EA6FFF0EEB6FF7C1C3
:100C3800ECF0F8C1EDF0EA51EC27EB51ED23EC05AF
:100C4800ED11D8A42BD109EC00F072EC0DF02DC0F9
:100C5800EDF12EC0EEF12FC0EFF130C0F0F1010E32
:100C680001EC10F0C30E0001EA6FCD0EE82EFED79E
:100C7800EA2FFCD7800E01EC10F0410E0001EA6F5C
:100C8800EE0EE82EFED7EA2FFCD700F02B0E00015F
:100C98009D6FFF0E9E6F39EC0FF0160E2A6EFF0E39
:100CA8002B6ECF0EF66EFC0EF76E000EF86E080077
:100CB800F550A8EC0CF001EC0AF0C9EC08F072EC65
:100CC8000DF02DC0F1F12EC0F2F12FC0F3F130C0BC
:100CD800F4F1EDC1EAF0EEC1EBF0EFC1ECF0F0C1D8
:100CE800EDF00001EA1FEB1FEC1FED1FEA2B000ED1
:100CF800EB23EC23ED230101F1510001EA25010169
:100D0800E96FF2510001EB210101EA6FF351000193
:100D1800EC210101EB6FF4510001ED210101EC6FB1
:100D2800E30E00019D6FFF0E9E6F39EC0FF0330E3E
:100D38000001EB6FBB0EEA6FDF0EE82EFED7EA2F3D
:100D4800FCD7EB2FFAD700D0000E0101FA6F000E86
:100D5800F96FFABF06D0FA515CE1080EF95DD8B018
:100D680058D0010E01EC10F0C30E0001EA6FCD0E51
:100D7800E82EFED7EA2FFCD7800E01EC10F0410ECA
:100D88000001EA6FEE0EE82EFED7EA2FFCD700F03E
:100D9800CC0E00019D6FFF0E9E6F010E0101F9251B
:100DA80000019F6F000E0101FA210001A06F350EAE
:100DB8000101F925D96E000EFA21DA6EDF50000123
:100DC800EA6FEA51050D3A0EF324A16F010EF420E3
:100DD800A26FD8900101F935D96EFA35DA6E3D0E59
:100DE800D926000EDA22DECFA3F0DDCFA4F039EC4D
:100DF8000FF0660E0001EB6F760EEA6FC10EE82E5B
:100E0800FED7EA2FFCD7EB2FFAD70101F94BFA2BC3
:100E1800A0D7010E01EC10F0C30E0001EA6FCD0E51
:100E2800E82EFED7EA2FFCD7800E01EC10F0410E19
:100E38000001EA6FEE0EE82EFED7EA2FFCD700F08D
:100E4800D80E00019D6FFF0E9E6F39EC0FF0C00E9B
:100E580001EC10F0840E00019D6FFF0E9E6F4DC0D7
:100E68009FF04EC0A0F04FC0A1F050C0A2F051C0FA
:100E7800A3F052C0A4F053C0A5F054C0A6F039ECBA
:100E88000FF0660E0001EB6F760EEA6FC10EE82ECA
:100E9800FED7EA2FFCD7EB2FFAD756D7D00E000192
:100EA800EA6FFF0EEB6FF7C1ECF0F8C1EDF0EA5115
:100EB800EC27EB51ED23020EEC19ED11D8A483D6E3
:100EC8009EEC0FF07BD6000E0001816F010E806F43
:100ED800000E856F100E846F86698769000E836F18
:100EE800000E826F010E01EC10F0C30E2F6ECD0EB6
:100EF800E82EFED72F2EFCD700F0800E01EC10F064
:100F0800410E2F6EEE0EE82EFED72F2EFCD700D006
:100F1800000E0001896F000E886F89BF08D08951C3
:100F280005E1110E885DD8B08DD001D08BD08851E5
:100F38002D242F6E89512E20306E2FC0F6FF30C021
:100F4800F7FF000EF86E0F0EF76403D00800F55097
:100F580005D0F6CFE9FFF7CFEAFFEF500009D8B484
:100F680071D0000188512D242F6E89512E20306EAA
:100F78002FC0F6FF30C0F7FF000EF86E0F0EF764B3
:100F880003D00800F55005D0F6CFE9FFF7CFEAFF08
:100F9800EF50200AD8A404D088C082F089C083F01A
:100FA800000188512D242F6E89512E20306E2FC0BC
:100FB800F6FF30C0F7FF000EF86E0F0EF76403D08F
:100FC8000800F55005D0F6CFE9FFF7CFEAFFEF505C
:100FD8000A0AD8A408D088C086F089C087F086C0DD
:100FE80084F087C085F0100E000188198911D8A4F3
:100FF80021D088512D242F6E89512E20306E2FC07C
:10100800F6FF30C0F7FF000EF86E0F0EF76403D03E
:101018000800F55005D0F6CFE9FFF7CFEAFFEF500B
:10102800200AD8B407D0000187AF04D082C084F06A
:1010380083C085F00001884B892B89BF78D78951F7
:1010480001E16FD7000E0001896F000E886F89BF1C
:1010580008D0895105E1200E885DD8B0120001D072
:10106800120088512D242F6E89512E20306E2FC0EA
:10107800F6FF30C0F7FF000EF86E0F0EF76403D0CE
:101088000800F55005D0F6CFE9FFF7CFEAFFEF509B
:101098000009D8B4120000018451881953E1855120
:1010A8008919D8A44FD0D20EF66EFC0EF76E000E3A
:1010B800F86E0800F5502F6E306A2F50805D815110
:1010C800800A316E3050800A3158D8B03BD0804BFE
:1010D800812BC00E01EC10F0000188512D242F6ED9
:1010E80089512E20306E2FC0F6FF30C0F7FF000E5A
:1010F800F86E0F0EF76403D00800F55005D0F6CF50
:10110800E9FFF7CFEAFFEF50200AD8B435D0000145
:1011180088512D242F6E89512E20306E2FC0F6FF56
:1011280030C0F7FF000EF86E0F0EF76403D008000A
:10113800F55005D0F6CFE9FFF7CFEAFFEF500A0ADE
:10114800D8B41AD0000188512D242F6E89512E2031
:10115800306E2FC0F6FF30C0F7FF000EF86E0F0E8E
:10116800F76403D00800F55005D0F6CFE9FFF7CFB4
:10117800EAFFEF50F7EC0FF00001884B892B89BF8D
:1011880070D7895101E167D71200030E2A6E000E4D
:101198002B6ECF0EF66EFC0EF76E000EF86E080082
:1011A800F550A8EC0CF0000E0001836F640E826FFE
:1011B800000E4E6E000E4D6E000E506E000E4F6EFD
:1011C800000E526E000E516E000E546E000E536EDD
:1011D8008A86000E856F000E846F1FD080B002D003
:1011E8004D4A4E2AEF514D24806FF0514E20816FA9
:1011F800140E80198111D8B41AD0020E0001816F23
:10120800450E806FA90EE82EFED7802FFCD7812FC0
:10121800FAD700D00001844B852B8251845D85511B
:10122800800A806F8351800A8059D8A0D7D78A96C0
:10123800040E2A6E000E2B6ECF0EF66EFC0EF76EA5
:10124800000EF86E0800F550A8EC0CF0FE0E000138
:10125800816FA70E806F650EE82EFED7802FFCD712
:10126800812FFAD700D08B82000E0001856F000E07
:10127800846F1FD080B202D04F4A502AF1514F24B8
:10128800806FF2515020816F190E80198111D8B4E6
:101298001AD0020E0001816F450E806FA90EE82E4C
:1012A800FED7802FFCD7812FFAD700D00001844BBE
:1012B800852B8251845D8551800A806F8351800A15
:1012C8008059D8A0D7D78B92050E2A6E000E2B6EA8
:1012D800CF0EF66EFC0EF76E000EF86E0800F55095
:1012E800A8EC0CF0FE0E0001816FA70E806F650E52
:1012F800E82EFED7802FFCD7812FFAD700D08B8A13
:10130800000E0001856F000E846F1FD080B402D0DC
:10131800514A522AF3515124806FF4515220816F5F
:10132800140E80198111D8B41AD0020E0001816FF1
:10133800450E806FA90EE82EFED7802FFCD7812F8F
:10134800FAD700D00001844B852B8251845D8551EA
:10135800800A806F8351800A8059D8A0D7D78B9A8A
:10136800060E2A6E000E2B6ECF0EF66EFC0EF76E72
:10137800000EF86E0800F550A8EC0CF0FE0E000107
:10138800816FA70E806F650EE82EFED7802FFCD7E1
:10139800812FFAD700D08B8E000E0001856F000ECA
:1013A800846F11D080B602D0534A542AF551532481
:1013B800806FF6515420816F230E80198111D8B4A3
:1013C8000CD0844B852B8251845D8551800A806FB7
:1013D8008351800A8059D8A0E5D78B9E070E2A6EC4
:1013E800000E2B6ECF0EF66EFC0EF76E000EF86E2A
:1013F8000800F550A8EC0CF01200000E0001F06F88
:10140800000EEF6F000EF26F000EF16F000EF46F1A
:10141800000EF36F000EF66F000EF56F8E0E2A6E3B
:10142800FE0E2B6ECF0EF66EFC0EF76E000EF86EEB
:101438000800F550A8EC0CF0000E0101E86F080E4A
:10144800E76FE8BF1200E85103E1E705D8A01200F2
:10145800F30E2A6EFF0E2B6ECF0EF66EFC0EF76E95
:10146800000EF86E0800F550A8EC0CF021EE00F024
:1014780011EEA3F0210EDBCFE3FFE806FCE2010149
:10148800E751300FC26FA30E2A6E010E2B6ECF0EDE
:10149800F66EFC0EF76E000EF86E0800F550A8EC1C
:1014A8000CF0FF0E0001AF6FFF0EB06FE7C1B1F097
:1014B800E8C1B2F0AF51B127B051B223350EB12512
:1014C800D96E000EB221DA6EDF50B36FB351040D3E
:1014D8003A0EF3240101E56FFE0EF420E66FC50E07
:1014E80000019D6F010E9E6F000E9F6FFF0EA06F93
:1014F800E5C1F6FFE6C1F7FFF86A0800F550A16FED
:10150800A26B010E0101E5250001AF6F000E01017C
:10151800E6210001B06FAFC0F6FFB0C0F7FFF86A70
:101528000800F550A36FA46B020E0101E525000128
:10153800B16F000E0101E6210001B26FB1C0F6FFE4
:10154800B2C0F7FFF86A0800F550A56FA66B030E46
:101558000101E5250001B36F000E0101E62100013C
:10156800B46FB3C0F6FFB4C0F7FFF86A0800F550CF
:10157800A76FA86BD9EC0EF0C50E2A6E010E2B6E64
:10158800CF0EF66EFC0EF76E000EF86E0800F550E2
:10159800A8EC0CF00101E707D8A0E807E8BF1200A3
:1015A800E85101E152D754D70BC00FF0106A116A05
:1015B8000A340F3601E310800F50146E0EC00FF07E
:1015C800106A116A0D340F3601E310800F50136E44
:1015D8001450D8B40BD01350145CD8B00ED014509B
:1015E800000813240F6E180E0F6407D00CC009F002
:1015F8000DC00AF00EC00BF012001350D8B40BD077
:101608001450135CD8B00ED01350000814240F6E79
:10161800180E0F6407D009C009F00AC00AF00BC001
:101628000BF01200060E126E0BBE128E0EBE128C3E
:101638000A8EFF0E0916FF0E0A16000E0B160D8EE7
:10164800FF0E0C16FF0E0D16000E0E161350145C2E
:10165800D8B01BD0D8900C360D360E361306145061
:101668001318D8B40DD0120612C00FF0070E0F16BB
:10167800D8B406D0EFD7D8900B320A320932142AE0
:1016880013501418D8B41FD0F6D71450135CD8B020
:101698001AD0D89009360A360B3614061450131887
:1016A800D8B40DD0120612C00FF0070E0F16D8B41A
:1016B80006D0EFD7D8900E320D320C32132A1350C1
:1016C8001418D8A4F7D712AE0CD0FF0E091AFF0EC3
:1016D8000A1AFF0E0B1A010E0926000E0A22000E26
:1016E8000B2212AC0CD0FF0E0C1AFF0E0D1AFF0EB7
:1016F8000E1A010E0C26000E0D22000E0E22000EF0
:10170800126E09500C260A500D220B500E220EAEF6
:101718000ED0FF0E0C1AFF0E0D1AFF0E0E1A010E38
:101728000C26000E0D22000E0E22010E126E0CC0A9
:1017380001F00DC002F00EC003F014C004F012C096
:1017480005F0AEEC0BF001C009F002C00AF003C0CE
:101758000BF012000450D8B405D001500210031049
:10176800D8A40CD0000E016E000E026E000E036E9F
:101778001200042AD890033202320132000E0114FA
:10178800066E000E0214076EFE0E0314086E065055
:1017980007100810D8B40CD0ECD7042A010E012683
:1017A800000E0222000E0322D890033202320132C8
:1017B800000E0114066E000E0214076EFF0E0314CD
:1017C800086E065007100810D8B406D0E6D70406ED
:1017D800D89001360236033602BE03D0020E0460EA
:1017E800F6D704A0029ED890043204500312055084
:1017F800D8A4038E01C001F002C002F003C003F0B8
:1018080012000153746172746564207061636B61C6
:1018180067696E6720636F6D706172746D656E7451
:1018280020780000015374617274656420636F6DE1
:10183800706172746D656E74207800004E4F4E456D
:101848000042000000004E000000005300000000AD
:101858005700000000424E000000425300000042C2
:101868005700000042424E000042425300004242EC
:10187800570000424E570000425357000042575746
:101888000000424E4E5700425357570042425357AA
:101898000042424E5700424E4E5700424E4E4E00B6
:0518A8004257575700F4
:1018AE000600FACF15F0FBCF16F0E9CF17F0EACF0E
:1018BE0018F0E1CF19F0E2CF1AF0D9CF1BF0DACF42
:1018CE001CF0F3CF1DF0F4CF1EF0F6CF1FF0F7CFC4
:1018DE0020F0F8CF21F0F5CF22F059C023F05AC0F6
:1018EE0024F05BC025F05CC026F0F2BAF2A403D05F
:1018FE00F2946EEC0FF026C05CF025C05BF024C0B5
:10190E005AF023C059F022C0F5FF21C0F8FF20C0C5
:10191E00F7FF1FC0F6FF1EC0F4FF1DC0F3FF1CC073
:10192E00DAFF1BC0D9FF1AC0E2FF19C0E1FF18C0D1
:10193E00EAFF17C0E9FF16C0FBFF15C0FAFF599268
:10194E0011002F6E000E316E000E306E1DEC10F079
:10195E002FC028F0296A14EC10F01FD030502A2422
:10196E002C6E31502B202D6E2CC0F6FF2DC0F7FFA4
:10197E00000EF86E0F0EF76403D00800F55005D078
:10198E00F6CFE9FFF7CFEAFFEF502E6E2E50286EFE
:10199E00296A14EC10F0304A312A30502A242C6E69
:1019AE0031502B202D6E2CC0F6FF2DC0F7FF000EF0
:1019BE00F86E0F0EF76403D00800F55005D0F6CF81
:1019CE00E9FFF7CFEAFFEF500009D8A4C7D719EC0B
:1019DE0010F01200000E0001806F000E816F000EDD
:1019EE00826F000E836F2B502C102D102E10D8B43A
:1019FE002AD0010E846F06D0D8902B362C362D3679
:101A0E002E36842B2EAEF8D7D8908037813782377A
:101A1E0083372B50275C2C5028582D5029582E5088
:101A2E002A58D8A009D02B50275E2C50285A2D505A
:101A3E00295A2E502A5A8081D8902E322D322C328D
:101A4E002B32842FE1D780C027F081C028F082C0CE
:101A5E0029F083C02AF01200286E2850F00B276E52
:101A6E008C500F0B8C6E27508C108C6E000EF2BEAD
:101A7E00010E586EF29E8C86530EE82EFED700F0A5
:101A8E008C96C80E00D0E82EFDD758B002D0F29E2C
:101A9E0001D0F28E2838F00B286E2850F00B276EEE
:101AAE008C500F0B8C6E27508C108C6E000EF2BE6D
:101ABE00010E586EF29E8C86530EE82EFED700F065
:101ACE008C96C80E00D0E82EFDD758B002D0F29EEC
:101ADE0001D0F28E1200800E2A6E000E2B6EEAECF2
:101AEE000DF082C027F0286A0E0E2A6E100E296E97
:101AFE00C4EC0FF0000181513C0D8051316E326A01
:101B0E00F3503126F45032222750312628503222FB
:101B1E0083C027F0286A510E2A6E800E296EC4ECFF
:101B2E000FF0275031262850322231C087F032C0B4
:101B3E0088F00001000E88BFFF0E896F8A6F87C084
:101B4E002DF088C02EF089C02FF08AC030F0120020
:101B5E00000E896E000E8A6E000E8B6E000E8C6E5D
:101B6E00000E8D6E9268F70E936E000E946E000E40
:101B7E00956E000E966EA00E2F6E860E306E010EB6
:101B8E00316E000E326E57EC0EF0B3EC0EF0010E0D
:101B9E0001EC10F0C30E0001EE6FCD0EE82EFED755
:101BAE00EE2FFCD7800E01EC10F0410E0001EE6F0F
:101BBE00EE0EE82EFED7EE2FFCD700F01BEC0FF04A
:101BCE00E2EC05F0FFD71DEC10F0000E296ED00EE2
:101BDE00286E14EC10F0000E296E000E286E14EC18
:101BEE0010F019EC10F01DEC10F0000E296ED10E55
:101BFE00286E14EC10F0000E2C6E050E2C6401D025
:101C0E000ED02C50010DF3502A24D96EF4502B20F7
:101C1E00DA6E000ED7EC0FF0DF6E2C2AEED720EE28
:101C2E0006F02A50D9262B50DA22010ED7EC0FF0EF
:101C3E00DF6E19EC10F01200000189518A118B1120
:101C4E008C11D8B424D0010E2F6E06D0D8908937BF
:101C5E008A378B378C372F2A8CAFF8D78951855D11
:101C6E008A5186598B5187598C518859D8A008D0E2
:101C7E008951855F8A51865B8B51875B8C51885B5E
:101C8E00D8908C338B338A3389332F2EE7D785C088
:101C9E0085F086C086F087C087F088C088F0120075
:101CAE00C69A94869488800EC76E280EC66E000E55
:101CBE00C56E000E276E5A0E286E620E296E020E2B
:101CCE002A6E2FC085F030C086F031C087F032C04A
:101CDE0088F0020ED890000185378637873788370F
:101CEE00E82EF8D785C02BF086C02CF087C02DF0DB
:101CFE0088C02EF0F1EC0CF02704C86E12000A0E0C
:101D0E00F66E180EF76E000EF86E01EE00F010EE85
:101D1E00A3F00900F5CFEEFFE550E150FAE1420ED7
:101D2E00F66E200EF76E000EF86E0900F5CFF7F086
:101D3E000900F5CFF8F000EEEFF0080EEE6AE806B7
:101D4E00FDE100EE33F0260EEE6AE806FDE1599055
:101D5E0059920001AFEF0DF0C30E2A6ECD0EE82E94
:101D6E00FED72A2EFCD700F0330E01EC10F0320E07
:101D7E0001EC10F0280E01EC10F00F0E01EC10F03B
:101D8E00060E01EC10F0010E01EC10F0C30E2A6EDF
:101D9E00CD0EE82EFED72A2EFCD700F00F0E01EC4A
:101DAE0010F012009DC0ABF09EC0ACF0000E000112
:101DBE00AD6F000EAE6FA10EA96F000EAA6FAB0E27
:101DCE008D6F000E8E6F9FC08FF0A0C090F0A90E89
:101DDE00916F000E926F88EC03F0ABC0D9FFACC0D0
:101DEE00DAFF000EDF6E1200306E800E01EC10F086
:101DFE00410E2E6EEE0EE82EFED72E2EFCD700D004
:101E0E00000E2F6E04D0C00E01EC10F02F2A2D50B4
:101E1E002F5CD8A0F8D73050D8B41200010E2A6E1D
:101E2E003050E9EC0FF01200510E2D6EFF0E2E6E9B
:101E3E0067EC07F087EC0FF000018A6F8A518E6F06
:101E4E008F6BD00E8A6FFF0E8B6F8EC08CF08FC093
:101E5E008DF08A518C278B518D238C058D11D8B422
:101E6E001200E8D7000E0001A96F000EAA6FEE0E49
:101E7E00AB6F1F0EAC6F9F0EA76F000EA86FA90E53
:101E8E008D6F000E8E6F9DC08FF09EC090F0A70ECE
:101E9E00916F000E926F88EC03F012002DC031F09E
:101EAE002EC032F004D0314A322A2F4A302A2FC0A7
:101EBE00F6FF30C0F7FFF86A31C0D9FF32C0DAFF43
:101ECE000800F5CFDFFFDF50D8B41200ECD755C0B5
:101EDE0009F056C00AF057C00BF0CD0E0C6ECC0EAA
:101EEE000D6E3D0E0E6ED8EC0AF009C055F00AC00C
:101EFE0056F00BC057F0F20ED76EC00ED66E120013
:101F0E0081A2FED781380F0B0F0B276E81B2FED741
:101F1E0000F02750010DA90EF324F66EFC0EF420EE
:101F2E00F76EF86A000EF8220800F5501200CD0E7A
:101F3E002D6EFE0E2E6E67EC07F087EC0FF0326EF4
:101F4E00325000018A6F8B6B2A0E8A198B11D8B40E
:101F5E001200F3D78AC02DF08BC02EF067EC07F07D
:101F6E00660E00018D6F760E8C6FC10EE82EFED7B9
:101F7E008C2FFCD78D2FFAD7120027502902F3CFC2
:101F8E002BF0F4CF2CF027502A02F3502C26285099
:101F9E002902F3502C262BC027F02CC028F012005B
:101FAE00286E0BEC10F0C5860BEC10F0C9CF29F0A3
:101FBE000BEC10F028B002D0C59A01D0C58AC588A6
:101FCE00295012002B6E2BC02CF02C50D8B41200BE
:101FDE002A44E846FC0B100901EC10F02C06F5D74C
:101FEE00296E8C84295033EC0DF0C80E00D0E82EEB
:101FFE00FDD71200296E8C94295033EC0DF0C80ECB
:10200E0000D0E82EFDD71200C7B4FED7C5CF27F0FB
:10201E001F0E2716D8B41200F7D70BEC10F028C0FD
:10202E00C9FF12000BEC10F0C58412000BEC10F07F
:06203E00C58012004330D2
:10FC800000010000000A00000064000000E803001A
:10FC90000010270000A086010040420F00809698C7
:10FCA0000000E1F50500CA9A3B3132334234353663
:10FCB0004E373839532A302357002A3C2D20202034
:10FCC00028202D20292020202000555B777FFF1041
:10FCD000000102100228496E76616C696420656E2D
:10FCE0007472790A506C6561736520747279206151
:10FCF0006761696E0000546F6F206D616E792066D8
:10FD0000617374656E65727300000000000000008E
:10FD1000000000000000546F6F206D616E7920625A
:10FD20006F6C747300000000000000000000000011
:10FD3000000000000000546F6F206D616E79206E2E
:10FD40007574730000000000000000000000000057
:10FD5000000000000000546F6F206D616E79207705
:10FD6000617368657273000000000000000000000D
:10FD7000000000000000546F6F206D616E792073E9
:10FD800070616365727300000000000000000000F5
:10FD90000000000000004E6F2066617374656E65A0
:10FDA00072732073656C6563746564000000000005
:10FDB000000000000000417373656D626C79207370
:10FDC000746570730A2A3C2D202028342D38292090
:10FDD0002020202000000046617374656E657273F8
:10FDE00020696E2043780A2A3C2D28424E53572919
:10FDF000202020202D3E2300486F77206D616E79F2
:10FE000020736574733F0A2A3C2D202028312D343D
:10FE1000292020202020000000436F6E6669726D4B
:10FE20003F0A2A3C2D202028413A592F423A4E2998
:10FE300020000000000000000000000000000100A1
:10FE400000000001000000000100000000010101AD
:10FE50000000010001000100000102010000020099
:10FE60000100020000010101000101000101010087
:10FE70000002010100020100010202000101020171
:10FE8000000101020001010300000100000301451F
:10FE90006E746572656420746865207061636B615F
:10FEA00067696E672066756E6374696F6E000030F7
:10FEB0003A536C65657020313A426567696E200A75
:10FEC000323A2056696577204C6F6773004E6F7425
:10FED000207468657265207965740A2A20746F2021
:10FEE00072657475726E0053746172746564206912
:10FEF0006E70757420656E7472792C2068690000CC
:10FF000001423A2564204E3A256420533A25642064
:10FF1000573A25640000015374617274696E67205A
:10FF20007061636B6167696E67000053746172741E
:10FF3000696E67207061636B6167696E6700014479
:10FF40006F6E6520636F6D706172746D656E7400A5
:10FF5000005072657373203120746F206265676989
:10FF60006E000153706163657220436F756E746536
:10FF70006400000157617368657220436F756E7489
:10FF800065640000422564204E25642053256420CA
:10FF90005725640001426F6C7420436F756E746561
:10FFA00064000001446F6E6520696E7075747300A3
:10FFB00000014E757420436F756E74656400004EC9
:10FFC0006F7720636F756E74696E67004325643ABE
:10FFD000202573207825640052656D61696E696E15
:10FFE000673A0053756D6D6172793A00286E756CD1
:0FFFF0006C2900014C6F6F700000256C690000D8
:020000040020DA
:08000000FFFFFFFFFFFFFFFF00
:020000040030CA
:0E000000FF061F1EFF8181FF0FC00FE00F40A3
:00000001FF
