:0400000007EF00F016
:10000800648274ED1AF0E3EF18F0010EB1EC1FF002
:10001800C30E0001996FCD0EE82EFED7992FFCD79D
:10002800800EB1EC1FF0410E0001996FEE0EE82E24
:10003800FED7992FFCD700F0510E0001836FFE0EFA
:10004800846FA30EF66EFB0EF76E000EF86E0800B6
:10005800F550D9EC1BF0000E0101546F000E536FE0
:10006800E5C038F1E6C039F1000E506F000E4F6F51
:10007800000E3C6F000E3B6F6CD34F515011D8A44B
:100088004ED04FC180F050C181F0000E0001836F47
:10009800210E826F2CEC1FF08A0E00018025866FDE
:1000A800FC0E8121876FBDEC11F0E8EC1EF0010118
:1000B800576FD00E5725516F526BFF0E5223575171
:1000C800A5EC1FF01A0E00019A6F5E0E996F6E0E66
:1000D800E82EFED7992FFCD79A2FFAD700F0010106
:1000E80052BF15D0525104E1040E515DD8A00FD073
:1000F80052BF06D052510BE1090E515DD8B007D05E
:1001080051C1B7F152C1B8F14F4B502B22D3AA0EAF
:100118000001956FFB0E966F40EC1FF01AD301019A
:100128004F055011D8A415D3FC0E0001996FFF0E8E
:100138009A6FB7C19BF0B8C19CF099519B279A510F
:100148009C239E0E9B25F66EFB0E9C21F76EF86A8B
:10015800000EF8220800F5CF3AF1000E0101546FA5
:10016800000E536F54BF08D0545105E1080E535D7B
:10017800D8B0DCD201D0DAD253C199F03AC19AF0A2
:100188000001992B02D0D8909A33992FFCD70001FF
:100198009AA1ACD221EED5F011EE00F0170EDBCF0C
:1001A800E3FFE806FCE201015351310F156F000E21
:1001B8000001836F010E846FA30EF66EFB0EF76EBF
:1001C800000EF86E0800F550D9EC1BF0000E010186
:1001D800406F000E69D1000E486F000E476F000E89
:1001E8004A6F000E496F000E4C6F000E4B6F000EE9
:1001F8004E6F000E4D6F180E0001866F010E876F4F
:100208004FC180F050C181F0000E836F210E826FC4
:100218002CEC1FF08A0E00018025886FFC0E8121CE
:10022800896FCEEC1EF001015351310F266F180E65
:100238000001866F010E876FBDEC11F0010E000101
:10024800866F090E2BEC1EF0000E0101446F000EA4
:100258004DD0E8EC1EF00101576F420E5719D8B483
:100268000CD04E0E5719D8B408D0530E5719D8B41D
:1002780004D0570E5719D8A422D05751A5EC1FF017
:10028800420E01015719D8A403D0474B482B14D06C
:100298004E0E5719D8A403D0494B4A2B0DD0530EF4
:1002A8005719D8A403D04B4B4C2B06D0570E5719CF
:1002B800D8A402D04D4B4E2B434B442B21D0230EB8
:1002C8005719D8A415D047514811D8A40CD0495172
:1002D8004A11D8A408D04B514C11D8A404D04D5180
:1002E8004E11D8B40DD0000E446F040E436F08D0E1
:1002F8002A0E5719D8A404D05307D8A05407DAD027
:1003080044BFA7D7445104E1040E435DD8A0A1D748
:10031800000E3E6F000E3D6F000E566F000E556FBB
:1003280056BF08D0565105E1150E555DD8B0ACD072
:1003380001D0AAD055C199F056C19AF00001D890C1
:1003480099379A37D89099379A370E0E9925F66EBD
:10035800FD0E9A21F76EF86A000EF8220800F55093
:100368009B6F9C6B0101475100019B1905E101013D
:10037800485100019C19D8A47FD055C199F056C1A5
:100388009AF0D89099379A37D89099379A37010EBA
:100398009927000E9A230E0E9925F66EFD0E9A21C6
:1003A800F76EF86A000EF8220800F5509B6F9C6BF8
:1003B8000101495100019B195FE101014A51000106
:1003C8009C19D8A459D055C199F056C19AF0D89023
:1003D80099379A37D89099379A37020E9927000E8D
:1003E8009A230E0E9925F66EFD0E9A21F76EF86A7D
:1003F800000EF8220800F5509B6F9C6B01014B51D1
:1004080000019B1939E101014C5100019C19D8A444
:1004180033D055C199F056C19AF0D89099379A3788
:10042800D89099379A37030E9927000E9A230E0E03
:100438009925F66EFD0E9A21F76EF86A000EF822DD
:100448000800F5509B6F9C6B01014D5100019B19F1
:1004580013E101014E5100019C19D8A40DD0B90E29
:1004680001015325D96E010E5421DA6E55C1DFFF03
:10047800000E3E6F010E3D6F0101554B562B56BFC6
:1004880059D7565101E150D73D513E11D8A408D053
:10049800AA0E0001956FFB0E966F40EC1FF005D079
:1004A800000E0101406F010E3F6F01013F514011E5
:1004B800D8B491D6000E426F000E11D1CC0E0001B7
:1004C800866FFC0E876FBDEC11F0010E0001866F80
:1004D8000E0E2BEC1EF0E8EC1EF00101576FD00E4B
:1004E8005725516F526BFF0E52232A0E5719D8B455
:1004F80043D65751A5EC1FF01A0E00019A6F5E0EF5
:10050800996F6E0EE82EFED7992FFCD79A2FFAD73F
:1005180000F0000E0101466F000E456F000E566F89
:10052800000E556F56BF06D056512DE1040E555D8D
:10053800D8B029D0B90E5325D96E010E5421DA6EE0
:10054800DF500001996F9951040D0E0E9A6FFD0E40
:100558009B6FF3509A27F4509B23010155510001DA
:100568009A270101565100019B239AC0F6FF9BC0B0
:10057800F7FFF86A0800F55001014527000E4623E9
:10058800554B562BCFD751C180F052C181F045C190
:1005980082F046C183F02CEC1FF0000181BF0DD022
:1005A800815104E1050E805DD8A007D0CA0E956F71
:1005B800FB0E966F40EC1FF093D051C180F052C1F2
:1005C80081F045C182F046C183F02CEC1FF0000198
:1005D80081BF05D081510AE18005D8B007D06A0EE5
:1005E800956FFC0E966F40EC1FF07AD047C180F0F3
:1005F80048C181F051C182F052C183F02CEC1FF048
:10060800000181BF0DD0815104E1030E805DD8A0A7
:1006180007D0EA0E956FFB0E966F40EC1FF060D086
:1006280049C180F04AC181F051C182F052C183F0C2
:100638002CEC1FF0000181BF0DD0815104E1040EA4
:10064800805DD8A007D00A0E956FFC0E966F40EC1F
:100658001FF046D04BC180F04CC181F051C182F0EF
:1006680052C183F02CEC1FF0000181BF0DD08151E5
:1006780004E1030E805DD8A007D04A0E956FFC0EEA
:10068800966F40EC1FF02CD04DC180F04EC181F028
:1006980051C182F052C183F02CEC1FF0000181BFE0
:1006A8000DD0815104E1050E805DD8A007D02A0E37
:1006B800956FFC0E966F40EC1FF012D0D890010198
:1006C8005335D96E5435DA6EC10ED926010EDA22A9
:1006D80051C1DEFF52C1DDFF000E426F010E416FB6
:1006E800010141514211D8A417D0E8D6B90E010131
:1006F8005325D96E010E5421DA6E000EDF6ED890A4
:100708005335D96E5435DA6EC10ED926010EDA2268
:10071800000EDE6E000EDD6E534B542B54BF2CD5ED
:10072800545104E1080E535DD8A026D5000E3C6F45
:10073800010E3B6FA70E0001836FFF0E846FA30E9F
:10074800F66EFB0EF76E000EF86E0800F550D9EC49
:100758001BF001013B513C11D8A412008ED474D374
:10076800250E0001A019D8B436D020EE02F08C5125
:10077800D9268D51DA22DE50DE10D8B416D020EEFC
:1007880002F08C51D9268D51DA22DECF92F0DDCFDE
:1007980093F001D859D30500FA6E9251FD6E93512A
:1007A800FE6EFF6AFA50A05112008CC0D9FF8DC0AE
:1007B800DAFFDECF92F0DDCF93F092C0D9FF93C07D
:1007C800DAFFA0C0DFFF8CC0D9FF8DC0DAFFDE2AB8
:1007D800000EDD2239D3000E00019F6F000E9E6FC0
:1007E800000E9D6F04D000019D858E4B8F2B8EC00F
:1007F800F6FF8FC0F7FFF86A0800F550300AD8B442
:10080800F2D78EC0F6FF8FC0F7FFF86A0800F550E0
:1008180075EC1FF0D8A02ED1000E00019F6F000EBE
:100828009E6F9EC080F09FC081F0000E0001836F14
:100838000A0E826F2CEC1FF080C09EF081C09FF0E2
:10084800D00E0001926FFF0E936F8EC0F6FF8FC01F
:10085800F7FFF86A0800F550946F956B925194274A
:100868009351952394519E2795519F238E4B8F2BFF
:100878008EC0F6FF8FC0F7FFF86A0800F55075ECD8
:100888001FF0D8A0F7D0CDD790C0D9FF91C0DAFF1C
:10089800DFCF92F0020EDE26DFCF93F0000EDD22CE
:1008A80092C0D9FF93C0DAFFDECF9BF0DDCF9CF07A
:1008B80000019B519C11D8A404D0F70E9B6FFF0E2A
:1008C8009C6F000E986F000E976F03D00001974B36
:1008D800982B97519B25926F98519C21936F92C0AA
:1008E800F6FF93C0F7FF000EF86E0F0EF76403D003
:1008F8000800F55005D0F6CFE9FFF7CFEAFFEF5033
:100908000009D8A4E3D700019E51975D9F519859DB
:10091800D8B005D097519E5F98519F5B3AD0000E92
:100928009F6F000E9E6F35D020EE02F08C51D926B5
:100938008D51DA22DE50DE10D8B416D020EE02F047
:100948008C51D9268D51DA22DECF92F0DDCF93F08B
:1009580001D81FD00500FA6E9251FD6E9351FE6EBC
:10096800FF6AFA50200E12008CC0D9FF8DC0DAFF42
:10097800DECF92F0DDCF93F092C0D9FF93C0DAFFBB
:10098800200EDF6E8CC0D9FF8DC0DAFFDE2A000E84
:10099800DD2200019E07D8A09F079E29C5E19F2957
:1009A800D8B45DD0C1D720EE02F08C51D9268D5134
:1009B800DA22DE50DE10D8B42AD020EE02F08C51B4
:1009C800D9268D51DA22DECF92F0DDCF93F001D80F
:1009D8001AD00500FA6E9251FD6E9351FE6EFF6AB1
:1009E800FA509BC0F6FF9CC0F7FF000EF86E0F0E82
:1009F800F76403D00800F55005D0F6CFE9FFF7CF2C
:100A0800EAFFEF50120000019B4B9C2B28D09BC0A3
:100A1800F6FF9CC0F7FF000EF86E8CC0D9FF8DC0A2
:100A2800DAFFDECF92F0DDCF93F092C0D9FF93C00A
:100A3800DAFF0F0EF76403D00800F55005D0F6CFA3
:100A4800E9FFF7CFEAFFEF50DF6E00019B4B9C2BCD
:100A58008CC0D9FF8DC0DAFFDE2A000EDD22970791
:100A6800D8A0980797299FE19829D8B4EDD19BD7AA
:100A78009D8D1CD08EC0F6FF8FC0F7FF00018E4BF6
:100A88008F2BF86A0800F5CFA0F0A051000AD8B45F
:100A9800E9D1640AD8B40AD00D0AD8B407D01A0A22
:100AA800D8B4F2D6060AD8B4E3D7CED100019DBD9A
:100AB8001DD090C0D9FF91C0DAFFDFCF92F0020EAF
:100AC800DE26DFCF93F0000EDD2292C0D9FF93C05F
:100AD800DAFFDECF99F0DDCF9AF09AAF1BD0030E84
:100AE8009D13996D9A1FD8B09A2B14D090C0D9FF36
:100AF80091C0DAFFDFCF92F0020EDE26DFCF93F04F
:100B0800000EDD2292C0D9FF93C0DAFFDECF99F044
:100B1800DDCF9AF0010EA06F050EA019D8B415D03C
:100B2800A051020D940EF324F66EFB0EF420F76E1E
:100B3800F86A000EF8220900F550995D0900F55091
:100B48009A59D8A002D0A02BE7D79E519F11D8B4AC
:100B580009D09DC092F0030E9217D8B403D09E0717
:100B6800D8A09F07800EA0BF7F0E926F9E51A05DF8
:100B78009F51800A9259D8B007D0A0519E5F000EAD
:100B8800A0BFFF0E9F5B04D0000E9F6F000E9E6FEC
:100B98009DA57AD09DC092F0030E9217D8B435D097
:100BA80020EE02F08C51D9268D51DA22DE50DE106B
:100BB800D8B416D020EE02F08C51D9268D51DA2205
:100BC800DECF92F0DDCF93F001D81FD00500FA6E8A
:100BD8009251FD6E9351FE6EFF6AFA502D0E12006F
:100BE8008CC0D9FF8DC0DAFFDECF92F0DDCF93F055
:100BF80092C0D9FF93C0DAFF2D0EDF6E8CC0D9FFEB
:100C08008DC0DAFFDE2A000EDD2200019E519F1101
:100C1800D8B4B6D020EE02F08C51D9268D51DA2204
:100C2800DE50DE10D8B416D020EE02F08C51D92652
:100C38008D51DA22DECF92F0DDCF93F001D81FD0AC
:100C48000500FA6E9251FD6E9351FE6EFF6AFA50DE
:100C5800300E12008CC0D9FF8DC0DAFFDECF92F0C3
:100C6800DDCF93F092C0D9FF93C0DAFF300EDF6E6C
:100C78008CC0D9FF8DC0DAFFDE2A000EDD2200010C
:100C88009E07D8A09F07C2D79E519F11D8B43DD0C8
:100C980020EE02F08C51D9268D51DA22DE50DE107A
:100CA800D8B416D020EE02F08C51D9268D51DA2214
:100CB800DECF92F0DDCF93F001D81FD00500FA6E99
:100CC8009251FD6E9351FE6EFF6AFA50200E12008B
:100CD8008CC0D9FF8DC0DAFFDECF92F0DDCF93F064
:100CE80092C0D9FF93C0DAFF200EDF6E8CC0D9FF07
:100CF8008DC0DAFFDE2A000EDD2200019E07D8A093
:100D08009F079E519F11D8A4C3D79DC092F0030E90
:100D18009217D8B435D020EE02F08C51D9268D51D7
:100D2800DA22DE50DE10D8B416D020EE02F08C5154
:100D3800D9268D51DA22DECF92F0DDCF93F001D89B
:100D48001FD00500FA6E9251FD6E9351FE6EFF6A38
:100D5800FA502D0E12008CC0D9FF8DC0DAFFDECFFD
:100D680092F0DDCF93F092C0D9FF93C0DAFF2D0E39
:100D7800DF6E8CC0D9FF8DC0DAFFDE2A000EDD22BF
:100D8800A0C096F05CD000019651020D940EF32499
:100D9800F66EFB0EF420F76EF86A000EF8220900D2
:100DA800F5CF82F00A00F5CF83F099C080F09AC0A1
:100DB80081F0DBEC1DF080C087F081C088F0000E68
:100DC80000018A6F0A0E896F71EC1EF000018751CD
:100DD800300FA06F20EE02F08C51D9268D51DA2207
:100DE800DE50DE10D8B416D020EE02F08C51D92691
:100DF8008D51DA22DECF92F0DDCF93F001D81FD0EB
:100E08000500FA6E9251FD6E9351FE6EFF6AFA501C
:100E1800A05112008CC0D9FF8DC0DAFFDECF92F04E
:100E2800DDCF93F092C0D9FF93C0DAFFA0C0DFFFF7
:100E38008CC0D9FF8DC0DAFFDE2A000EDD2200014A
:100E480096079629D8A49FD78EC0F6FF8FC0F7FFC4
:100E580000018E4B8F2BF86A0800F5CFA0F0A05147
:100E6800D8A47ED4000E00018D6F000E8C6F120086
:100E7800000E4D6E040E4C6EE7C09FF0E8C0A0F067
:100E88009F0E0001836F000E846FA30EF66EFB0E9B
:100E9800F76E000EF86E0800F550D9EC1BF080BA1A
:100EA800FED7000E0001A16F700EA26F410EA36F56
:100EB800000EA46F000EA56F000EA66F000EDE6F69
:100EC800000EDD6F000EE06F000EDF6F000EE26FA8
:100ED800000EE16F000EE46F000EE36FF5EC1FF0FB
:100EE800000E4D6E030E4C6E000E0001806F000E5A
:100EF800B1EC19F051D0EEEC1FF080C0A7F081C022
:100F0800A8F082C0A9F080B636D0000E00018B6F21
:100F1800800E8C6F3F0E8D6FA4C088F0A5C089F03D
:100F2800A6C08AF09EEC16F088C094F089C095F0AF
:100F38008AC096F0A7C097F0A8C098F0A9C099F009
:100F480029EC1CF00001D8B016D0A7C0A4F0A8C0A6
:100F5800A5F0A9C0A6F0DD4BDE2B890E836FFF0E2E
:100F6800846FA30EF66EFB0EF76E000EF86E080087
:100F7800F550D9EC1BF0A7C094F0A8C095F0A9C013
:100F880096F0A1C097F0A2C098F0A3C099F029EC00
:100F98001CF00001D8B00FD00001D551DD259D6FA0
:100FA800D651DE219E6F9EBFA6D79E5104E1140E36
:100FB8009D5DD8A0A0D7020E806F000EB1EC19F08D
:100FC800000E4D6E040E4C6E040E00019F6F9F0EB6
:100FD800836F000E846FA30EF66EFB0EF76E000E85
:100FE800F86E0800F550D9EC1BF080BAFED7F5EC86
:100FF8001FF0000E0001A46F000EA56F000EA66F73
:10100800000E4D6E030E4C6E000E806F010EB1EC9B
:1010180019F051D0EEEC1FF080C0A7F081C0A8F005
:1010280082C0A9F080B236D0000E00018B6F800E0E
:101038008C6F3F0E8D6FA4C088F0A5C089F0A6C044
:101048008AF09EEC16F088C094F089C095F08AC0AA
:1010580096F0A7C097F0A8C098F0A9C099F029EC1D
:101068001CF00001D8B016D0A7C0A4F0A8C0A5F005
:10107800A9C0A6F0DF4BE02BD10E836FFF0E846F63
:10108800A30EF66EFB0EF76E000EF86E0800F55014
:10109800D9EC1BF0A7C094F0A8C095F0A9C096F0B1
:1010A800A1C097F0A2C098F0A3C099F029EC1CF059
:1010B8000001D8B00FD00001D751DF259D6FD8515E
:1010C800E0219E6F9EBFA6D79E5104E1190E9D5D3B
:1010D800D8A0A0D7020E806F010EB1EC19F0000E57
:1010E8004D6E040E4C6E050E00019F6F9F0E836FB0
:1010F800000E846FA30EF66EFB0EF76E000EF86EF0
:101108000800F550D9EC1BF080BAFED7F5EC1FF0BB
:10111800000E0001A46F000EA56F000EA66F000E52
:101128004D6E030E4C6E000E806F020EB1EC19F07E
:1011380051D0EEEC1FF080C0A7F081C0A8F082C0AB
:10114800A9F080B036D0000E00018B6F800E8C6F36
:101158003F0E8D6FA4C088F0A5C089F0A6C08AF0A4
:101168009EEC16F088C094F089C095F08AC096F07D
:10117800A7C097F0A8C098F0A9C099F029EC1CF076
:101188000001D8B016D0A7C0A4F0A8C0A5F0A9C087
:10119800A6F0E14BE22B480E836FFF0E846FA30E7F
:1011A800F66EFB0EF76E000EF86E0800F550D9ECDF
:1011B8001BF0A7C094F0A8C095F0A9C096F0A1C0F4
:1011C80097F0A2C098F0A3C099F029EC1CF0000198
:1011D800D8B00FD00001D951E1259D6FDA51E22135
:1011E8009E6F9EBFA6D79E5104E1140E9D5DD8A0A8
:1011F800A0D7020E806F020EB1EC19F0000E4D6EF2
:10120800040E4C6E060E00019F6F9F0E836F000E3A
:10121800846FA30EF66EFB0EF76E000EF86E0800D4
:10122800F550D9EC1BF080BAFED7F5EC1FF0000E94
:101238000001A46F000EA56F000EA66F000E4D6E84
:10124800030E4C6E000E806F030EB1EC19F051D0F6
:10125800EEEC1FF080C0A7F081C0A8F082C0A9F012
:1012680080B436D0000E00018B6F800E8C6F3F0E5D
:101278008D6FA4C088F0A5C089F0A6C08AF09EEC46
:1012880016F088C094F089C095F08AC096F0A7C07F
:1012980097F0A8C098F0A9C099F029EC1CF00001BB
:1012A800D8B016D0A7C0A4F0A8C0A5F0A9C0A6F0D1
:1012B800E34BE42B590E836FFF0E846FA30EF66E7B
:1012C800FB0EF76E000EF86E0800F550D9EC1BF017
:1012D800A7C094F0A8C095F0A9C096F0A1C097F057
:1012E800A2C098F0A3C099F029EC1CF00001D8B076
:1012F8000FD00001DB51E3259D6FDC51E4219E6F87
:101308009EBFA6D79E5104E1230E9D5DD8A0A0D70D
:10131800020E806F030EB1EC19F0000E4D6E040E34
:101328004C6E070E00019F6F9F0E836F000E846F37
:10133800A30EF66EFB0EF76E000EF86E0800F55061
:10134800D9EC1BF080AA1200FDD7000E02018F6FA6
:10135800010E8E6F02018E518F11D8B40CD0C70EBA
:101368000001866FFD0E876FBDEC11F0000E0201C3
:101378008F6F000E8E6FE8EC1EF00001CB6FCB5123
:101388000201946F956B9451A5EC1FF0D00E0001EB
:10139800CB6FFF0ECC6F94C2CDF095C2CEF0CB517F
:1013A800CD27CC51CE23CD51CE11D8A403D093EC68
:1013B8001EF0CBD7D00E0001CB6FFF0ECC6F94C2BE
:1013C800CDF095C2CEF0CB51CD27CC51CE23CD0553
:1013D800CE11D8A4FAD109EC00F01C0E0001866FDA
:1013E800FE0E876FBDEC11F0E8EC1EF002D0E8ECC1
:1013F8001EF00001CB6FCB510201886F896BD00EB4
:101408000001CB6FFF0ECC6F88C2CDF089C2CEF041
:10141800CB51CD27CC51CE23CD05CE11D8A4E7D7BB
:1014280072EC1CF06A0E0001866FFE0E876FBDEC31
:1014380011F0C60E0001836FFE0E846FA30EF66EC8
:10144800FB0EF76E000EF86E0800F550D9EC1BF095
:10145800F4EC0DF03CEC07F04BEC18F0000186C002
:101468008AF287C08BF20201000E8BBFFF0E8C6FD1
:101478008D6F8AC280F08BC281F08CC282F08DC2DF
:1014880083F03C0E0001846F000E856F000E866F9E
:10149800000E876F4AEC19F080C092F281C093F277
:1014A80092C280F093C281F0000E0001836F3C0E5F
:1014B800826F2CEC1FF00001801F811F804B812B55
:1014C80002018A51000180250201906F8B510001B1
:1014D80081210201916F000E876F000E0001A16F3C
:1014E800020EA26FA70EA36FFD0EA46F4FEC1EF0A5
:1014F800000E0001866F020E876FBDEC11F0200E02
:101508000001A16F020EA26F010EA36FFE0EA46F61
:10151800DDC0A5F0DEC0A6F0DFC0A7F0E0C0A8F0EF
:10152800E1C0A9F0E2C0AAF0E3C0ABF0E4C0ACF0BF
:101538004FEC1EF0400E0001A16F020EA26F9A0E32
:10154800A36FFE0EA46F92C2A5F093C2A6F090C23C
:10155800A7F091C2A8F04FEC1EF0000E0201986FA0
:10156800000E976FE8EC1EF00201966F3E0E96197A
:10157800D8B404D0230E9619D8A411D098BF0AD095
:10158800985104E10A0E975DD8A004D0000E986F18
:10159800000E17D0010E9725976F000E18D03C0E3D
:1015A8009619D8B404D02A0E9619D8A413D098BF87
:1015B80005D0985108E19705D8B005D0000E986F6E
:1015C8000A0E976F74D0FF0E9725976FFF0E98211C
:1015D800986F6DD0300E9619D8B41200310E961946
:1015E800D8A465D08751D8A44FD0800E0001836F4E
:1015F800020E846F38EC1DF0020186390F0B0F0BB9
:101608000A0D86510F0BF324996F85390F0B0F0BB9
:101618000A0D85510F0BF3249B6F84390F0B0F0BA9
:101628000A0D84510F0BF3249A6F92C29CF290C258
:101638009DF2D5C09EF2D7C09FF2D9C0A0F2DBC000
:10164800A1F2DDC0A2F2DFC0A3F2E1C0A4F2E3C0C0
:10165800A5F2990E0001836F020E846F20EC13F03F
:101668006A0E0001866FFF0E876FBDEC11F0660EE3
:101678000001CC6F760ECB6FC10EE82EFED7CB2FB4
:10168800FCD7CC2FFAD713D0B50E0001866FFF0E0A
:10169800876FBDEC11F0660E0001CC6F760ECB6F34
:1016A800C10EE82EFED7CB2FFCD7CC2FFAD70201DC
:1016B80097519811D8A408D0000E0001866F020E29
:1016C800876FBDEC11F04ED7020198BF59D09851E1
:1016D80003E19705D8A054D098BF06D0985150E19F
:1016E800090E975DD8B04CD0600E0001A16F020EB4
:1016F800A26FEB0EA36FFF0EA46F97C2A5F098C25E
:10170800A6F0FF0ECB6FFF0ECC6F97C2CDF098C23C
:10171800CEF0CB51CD27CC51CE23B90ECD25D96EE5
:10172800010ECE21DA6EDF50CF6FCF51050D000EBE
:10173800F324A76F030EF420A86FFE0ED06FFF0EE0
:10174800D16F97C2D2F098C2D3F0D890D237D3379E
:10175800D051D227D151D323C10ED225D96E010E33
:10176800D321DA6EDECFA9F0DDCFAAF04FEC1EF060
:10177800600E0001866F020E876FBDEC11F0F2D685
:10178800020198BFEFD6985104E1090E975DD8A0E1
:10179800E9D6000E0001CB6FFF0ECC6F97C2CDF0DB
:1017A80098C2CEF0050ED890CD37CE37E82EFBD7AD
:1017B800CB51CD27CC51CE23000ECD25866F020EFE
:1017C800CE21876FBDEC11F0CDD6D00E0001CB6FC6
:1017D800FF0ECC6F94C2CDF095C2CEF0CB51CD2781
:1017E800CC51CE23020ECD19CE11D8A4B3D589EC95
:1017F80015F0ABD50001A56F000E4D6E020E4C6EB4
:101808009268000E0001806F000EB1EC19F0000E16
:101818000001806F010EB1EC19F0000E0001806F1D
:10182800020EB1EC19F0000E0001806F030EB1EC4E
:1018380019F0000E0001B36F000EB26F000EB56F05
:10184800000EB46F000EB76F000EB66F000EB96FC2
:10185800000EB86F000EBB6F000EBA6F000EBD6FA2
:10186800000EBC6F000EBF6F000EBE6F000EC16F82
:10187800000EC06F000EA66F000EA76F000EA86FB7
:10188800000EA96F000EAA6F000EAB6F000EAC6FB2
:10189800000EAD6F000EAE6F000EAF6F000EB06F92
:1018A800000EB16FF5EC1FF0EEEC1FF080C0C2F037
:1018B80081C0C3F082C0C4F080B638D0000E0001E9
:1018C8008B6F800E8C6F3F0E8D6FA6C088F0A7C0FF
:1018D80089F0A8C08AF09EEC16F088C094F089C000
:1018E80095F08AC096F0C2C097F0C3C098F0C4C003
:1018F80099F029EC1CF00001D8B018D0C2C0A6F0AD
:10190800C3C0A7F0C4C0A8F0B24BB32BD54BD62B9D
:101918007A0E836FFF0E846FA30EF66EFB0EF76EC2
:10192800000EF86E0800F550D9EC1BF080B238D0E4
:10193800000E00018B6F800E8C6F3F0E8D6FA9C05B
:1019480088F0AAC089F0ABC08AF09EEC16F088C077
:1019580094F089C095F08AC096F0C2C097F0C3C0D1
:1019680098F0C4C099F029EC1CF00001D8B018D048
:10197800C2C0A9F0C3C0AAF0C4C0ABF0B44BB52B29
:10198800D74BD82BC30E836FFF0E846FA30EF66E52
:10199800FB0EF76E000EF86E0800F550D9EC1BF040
:1019A80080B038D0000E00018B6F800E8C6F3F0E18
:1019B8008D6FACC088F0ADC089F0AEC08AF09EECE7
:1019C80016F088C094F089C095F08AC096F0C2C01D
:1019D80097F0C3C098F0C4C099F029EC1CF000013E
:1019E800D8B018D0C2C0ACF0C3C0ADF0C4C0AEF01F
:1019F800B64BB72BD94BDA2B260E836FFF0E846FAD
:101A0800A30EF66EFB0EF76E000EF86E0800F5508A
:101A1800D9EC1BF080B438D0000E00018B6F800E1B
:101A28008C6F3F0E8D6FAFC088F0B0C089F0B1C029
:101A38008AF09EEC16F088C094F089C095F08AC0B0
:101A480096F0C2C097F0C3C098F0C4C099F029ECD2
:101A58001CF00001D8B018D0C2C0AFF0C3C0B0F0BD
:101A6800C4C0B1F0B84BB92BDB4BDC2B370E836FFE
:101A7800FF0E846FA30EF66EFB0EF76E000EF86E67
:101A88000800F550D9EC1BF00001A551A06FA16B1F
:101A9800A051B25DB351800AA26FA151800AA25928
:101AA800D8A00AD0020E806F000EB1EC19F0000E1B
:101AB8000001BB6F010EBA6F9D51A06FA16BA051C1
:101AC800B45DB551800AA26FA151800AA259D8A06D
:101AD8000AD0020E806F010EB1EC19F0000E000161
:101AE800BD6F010EBC6F9E51A06FA16BA051B65D7A
:101AF800B751800AA26FA151800AA259D8A00AD072
:101B0800020E806F020EB1EC19F0000E0001BF6FDB
:101B1800010EBE6F9F51A06FA16BA051B85DB95166
:101B2800800AA26FA151800AA259D8A00AD0020E39
:101B3800806F030EB1EC19F0000E0001C16F010EA9
:101B4800C06FBA51BB11D8B4AFD6BC51BD11D8B40F
:101B5800ABD6BE51BF11D8B4A7D6C051C111D8B4A5
:101B6800A3D6F00E836FFE0E846FA30EF66EFB0EE7
:101B7800F76E000EF86E0800F550D9EC1BF0E50E74
:101B88000001836FFD0E846FA30EF66EFB0EF76ED9
:101B9800000EF86E0800F550D9EC1BF0660E000137
:101BA800A16F760EA06FC10EE82EFED7A02FFCD72E
:101BB800A12FFAD7E9C0A3F0EAC0A4F0A30E000150
:101BC800836F000E846FA30EF66EFB0EF76E000E89
:101BD800F86E0800F550D9EC1BF080AA1200FDD76A
:101BE800000E0001D66F000ED56F000ED86F000EE4
:101BF800D76F000EDA6F000ED96F000EDC6F000E83
:101C0800DB6F860E836FFD0E846FA30EF66EFB0EE0
:101C1800F76E000EF86E0800F550D9EC1BF0EFC116
:101C280074F1F0C175F1740E0001836F010E846FB9
:101C3800A30EF66EFB0EF76E000EF86E0800F55058
:101C4800D9EC1BF080BAFED7000E0101856F080E93
:101C5800846F85BF1200855103E18405D8A0120066
:101C680022EEA6F011EE00F0210EDBCFE3FFE8062E
:101C7800FCE28451300F1F6F000E0001836F010ECC
:101C8800846FA30EF66EFB0EF76E000EF86E08005A
:101C9800F550D9EC1BF0FF0E0001C56FFF0EC66FA3
:101CA80084C1C7F085C1C8F0C551C727C651C8232C
:101CB800B90EC725D96E010EC821DA6EDF50D8A437
:101CC80015D0EDC176F1EEC177F1760E836F010E76
:101CD800846FA30EF66EFB0EF76E000EF86E08000A
:101CE800F550D9EC1BF080AA62D1FDD7FF0E000198
:101CF800C56FFF0EC66F84C1C7F085C1C8F0C55156
:101D0800C727C651C823B90EC725D96E010EC821E9
:101D1800DA6EDF50C96FC951040D0E0EF3240101AC
:101D2800806FFD0EF420816FFE0E0001C56FFF0E5F
:101D3800C66F84C1C7F085C1C8F0D890C737C83707
:101D4800C551C727C651C823C10EC725D96E010E74
:101D5800C821DA6EDECF82F1DDCF83F180C1F6FFD4
:101D680081C1F7FFF86A0800F550806F816B82C166
:101D780082F083C183F02CEC1FF080C078F181C021
:101D880079F1010E010180250001C56F000E0101E6
:101D980081210001C66FC5C0F6FFC6C0F7FFF86A0B
:101DA8000800F550806F816B82C182F083C183F097
:101DB8002CEC1FF080C07AF181C07BF1020E01018A
:101DC80080250001C56F000E010181210001C66F49
:101DD800C5C0F6FFC6C0F7FFF86A0800F550806F67
:101DE800816B82C182F083C183F02CEC1FF080C02C
:101DF8007CF181C07DF1030E010180250001C56FD2
:101E0800000E010181210001C66FC5C0F6FFC6C0E2
:101E1800F7FFF86A0800F550806F816B82C182F085
:101E280083C183F02CEC1FF080C07EF181C07FF16C
:101E3800540E0001A16F010EA26FB00EA36FFE0E2B
:101E4800A46F78C1A5F079C1A6F07AC1A7F07BC1CB
:101E5800A8F07CC1A9F07DC1AAF07EC1ABF07FC11A
:101E6800ACF04FEC1EF0540E0001836F010E846F2E
:101E7800A30EF66EFB0EF76E000EF86E0800F55016
:101E8800D9EC1BF0010EB1EC1FF0C30E0001C56FB9
:101E9800CD0EE82EFED7C52FFCD7800EB1EC1FF073
:101EA800410E0001C56FEE0EE82EFED7C52FFCD7F8
:101EB80000F0980E0001A16FFF0EA26F84C1A3F07D
:101EC80085C1A4F0B2EC1EF0010E010180250001CD
:101ED800C56F000E010181210001C66FC5C0F6FF64
:101EE800C6C0F7FFF86A0800F55001018203F3CF76
:101EF8009DF0020E80250001C76F000E01018121AF
:101F08000001C86FC7C0F6FFC8C0F7FFF86A08002D
:101F1800F55001018203F3CF9EF0030E80250001E6
:101F2800C96F000E010181210001CA6FC9C0F6FF07
:101F3800CAC0F7FFF86A0800F55001018203F3CF21
:101F48009FF080C1F6FF81C1F7FFF86A0800F550DD
:101F58008203F350FEEC0BF0220E0001A16F010E7C
:101F6800A26F620EA36FFD0EA46F84C1A5F085C198
:101F7800A6F04FEC1EF0220E0001836F010E846F55
:101F8800A30EF66EFB0EF76E000EF86E0800F55005
:101F9800D9EC1BF0000E4D6E040E4C6E820E000143
:101FA800C56FDD0EE82EFED7C52FFCD700D0010186
:101FB8008407D8A0850785BF1200855101E14DD659
:101FC8004FD65DC009F05EC00AF05FC00BF0CD0EC1
:101FD8000C6ECC0E0D6E3D0E0E6E75EC17F009C032
:101FE8005DF00AC05EF00BC05FF0010E4426000EE3
:101FF8004522462247224F50D8B414D060C009F079
:1020080061C00AF062C00BF0CD0E0C6ECC0E0D6EE6
:102018003D0E0E6E75EC17F009C060F00AC061F055
:102028000BC062F0F90ED76E5F0ED66E1A50156EA1
:102038001B50166E176A186A1550555C165056587C
:10204800175057585850800A196E1850800A195856
:10205800D8A007D0010E1A241A6E000E1B201B6E82
:1020680004D0000E1B6E000E1A6E1C50156E1D500B
:10207800166E176A186A1550555C16505658175040
:1020880057585850800A196E1850800A1958D8A005
:1020980007D0010E1C241C6E000E1D201D6E04D0DE
:1020A800000E1D6E000E1C6E1E50156E1F50166E13
:1020B800176A186A1550555C1650565817505758D5
:1020C8005850800A196E1850800A1958D8A007D09D
:1020D800010E1E241E6E000E1F201F6E04D0000E5F
:1020E8001F6E000E1E6E2050156E2150166E176A58
:1020F800186A1550555C165056581750575858506E
:10210800800A196E1850800A1958D8A007D0010EF5
:102118002024206E000E2120216E1AD1000E216E7F
:10212800000E206E15D1020E5C18D8B43FD0435073
:10213800D8A41CD02050156E2150166E176A186A44
:102148005550151833E15650161830E157501718E6
:102158002DE158501818D8A429D05C50E6EC1FF08F
:10216800026E030E14EC1AF0010E1BD02050156EEF
:102178002150166E176A186A5150151817E15250F7
:10218800161814E15350171811E154501818D8A410
:102198000DD05C50E6EC1FF0026E030E14EC1AF042
:1021A800000E436E000E216E000E206E020E5918AE
:1021B800D8B43FD04050D8A41CD01A50156E1B502C
:1021C800166E176A186A5550151833E156501618C6
:1021D80030E1575017182DE158501818D8A429D0B5
:1021E8005950E6EC1FF0026E000E14EC1AF0010EC6
:1021F8001BD01A50156E1B50166E176A186A51506C
:10220800151817E15250161814E15350171811E118
:1022180054501818D8A40DD05950E6EC1FF0026E8F
:10222800000E14EC1AF0000E406E000E1B6E000E2D
:102238001A6E020E5A18D8B43FD04150D8A41CD0F8
:102248001C50156E1D50166E176A186A55501518D1
:1022580033E15650161830E1575017182DE15850F1
:102268001818D8A429D05A50E6EC1FF0026E010EB7
:1022780014EC1AF0010E1BD01C50156E1D50166E72
:10228800176A186A5150151817E15250161814E1B8
:102298005350171811E154501818D8A40DD059509C
:1022A800E6EC1FF0026E010E14EC1AF0000E416EFF
:1022B800000E1D6E000E1C6E020E5B18D8B41200C4
:1022C8004250D8A421D01E50156E1F50166E176AA2
:1022D800186A555015184CE15650161849E15750D0
:1022E800171846E158501818D8A412005B50E6ECAD
:1022F8001FF0026E020E14EC1AF0010E426E000E70
:102308001F6E000E1E6E12001E50156E1F50166EA8
:10231800176A186A515015182BE15250161828E1FF
:102328005350171825E154501818D8A412005B50C0
:10233800E6EC1FF0026E020E14EC1AF0000E426E6C
:10234800000E1F6E000E1E6E1200D2EC1FF012005F
:102358004CC015F04DC016F01650000AD8A4F5D799
:102368001550020AD8B4DFD6010AD8B4DCD6EDD7A6
:102378001200000E00018C6F010E8B6F000E906F23
:10238800100E8F6F91699269000E8E6F000E8D6F1F
:10239800010EB1EC1FF0C30E0001886FCD0EE82EC0
:1023A800FED7882FFCD7800EB1EC1FF0410E00013C
:1023B800886FEE0EE82EFED7882FFCD700F0000EAF
:1023C8000001946F000E936F94BF08D0945105E1FB
:1023D800110E935DD8B08DD001D08BD09351862546
:1023E800886F94518721896F88C0F6FF89C0F7FFED
:1023F800000EF86E0F0EF76403D00800F55005D0F4
:10240800F6CFE9FFF7CFEAFFEF500009D8B471D053
:10241800000193518625886F94518721896F88C060
:10242800F6FF89C0F7FF000EF86E0F0EF76403D0B1
:102438000800F55005D0F6CFE9FFF7CFEAFFEF50D7
:10244800200AD8A404D093C08DF094C08EF0000167
:1024580093518625886F94518721896F88C0F6FF2C
:1024680089C0F7FF000EF86E0F0EF76403D008005E
:10247800F55005D0F6CFE9FFF7CFEAFFEF500A0A8B
:10248800D8A408D093C091F094C092F091C08FF076
:1024980092C090F0100E000193199411D8A421D085
:1024A80093518625886F94518721896F88C0F6FFDC
:1024B80089C0F7FF000EF86E0F0EF76403D008000E
:1024C800F55005D0F6CFE9FFF7CFEAFFEF50200A25
:1024D800D8B407D0000192AF04D08DC08FF08EC061
:1024E80090F00001934B942B94BF78D7945101E15D
:1024F8006FD7000E0001946F000E936F94BF08D041
:10250800945105E1200E935DD8B0120001D012005D
:1025180093518625886F94518721896F88C0F6FF6B
:1025280089C0F7FF000EF86E0F0EF76403D008009D
:10253800F55005D0F6CFE9FFF7CFEAFFEF500009D5
:10254800D8B4120000018F51931953E19051941996
:10255800D8A44FD0A60EF66EFB0EF76E000EF86EDE
:102568000800F550886F896B88518B5D8C51800A03
:102578008A6F8951800A8A59D8B03BD08B4B8C2BF3
:10258800C00EB1EC1FF0000193518625886F94515D
:102598008721896F88C0F6FF89C0F7FF000EF86EA3
:1025A8000F0EF76403D00800F55005D0F6CFE9FF09
:1025B800F7CFEAFFEF50200AD8B435D00001935185
:1025C8008625886F94518721896F88C0F6FF89C056
:1025D800F7FF000EF86E0F0EF76403D00800F550F1
:1025E80005D0F6CFE9FFF7CFEAFFEF500A0AD8B4D3
:1025F8001AD0000193518625886F94518721896FDD
:1026080088C0F6FF89C0F7FF000EF86E0F0EF7645A
:1026180003D00800F55005D0F6CFE9FFF7CFEAFF61
:10262800EF50A5EC1FF00001934B942B94BF70D78B
:10263800945101E167D71200000120EE01F08351A7
:10264800D9268451DA22DF50856FD8908533D89007
:102658008533070E851783C0D9FF84C0DAFFDF50A2
:10266800866FD8908637D8908637D890863585116A
:10267800896F20EE06F08351D9268451DA22DF5083
:10268800856FD8908533D8908533D8908533030EDD
:10269800851720EE02F08351D9268451DA22DF50C3
:1026A800866F0F0E8617D8908637D890863720EE1B
:1026B80001F08351D9268451DA22DF50876F060E44
:1026C800886FD8908737882FFCD787518611851156
:1026D8008A6F20EE08F08351D9268451DA22DF5020
:1026E800856F1F0E851720EE06F08351D926845179
:1026F800DA22DF50866F050E876FD8908637872FCE
:10270800FCD7865185118B6F20EE07F08351D926AF
:102718008451DA22DF50856F0F0E851720EE05F001
:102728008351D9268451DA22DF50866F8639F00B1F
:1027380085118C6F20EE0AF08351D9268451DA2254
:10274800DF50856FD8908533D8908533070E85176D
:1027580020EE09F08351D9268451DA22DF50866FA2
:102768008639F00B85118D6F20EE0BF08351D92639
:102778008451DA22DF50856F1F0E8517D890853572
:10278800866F20EE0AF08351D9268451DA22DF5071
:10279800876F060E886FD8908737882FFCD78751A8
:1027A80086118E6F20EE03F08351D9268451DA22E8
:1027B800DF50856F070E851720EE0CF08351D92660
:1027C8008451DA22DF50866FD8908637D8908637C2
:1027D800D890863585118F6F20EE04F08351D92665
:1027E8008451DA22DF50856FD8908537D8908535A7
:1027F8000109906F000E926F000E916FF80E915DB7
:10280800030E9259D8B005D0080E9127000E9223D6
:10281800F5D791C080F092C081F089C082F001ECB8
:102828001FF0010E00019125806F000E9221816F2B
:102838008AC082F001EC1FF0020E00019125806F22
:10284800000E9221816F8BC082F001EC1FF0030E05
:1028580000019125806F000E9221816F8CC082F05B
:1028680001EC1FF0040E00019125806F000E9221EB
:10287800816F8DC082F001EC1FF0050E00019125DB
:10288800806F000E9221816F8EC082F001EC1FF0E4
:10289800060E00019125806F000E9221816F8FC076
:1028A80082F001EC1FF0070E00019125806F000EE9
:1028B8009221816F90C082F001EC1FF0120082C05B
:1028C80086F083C087F00001D89086378737D89084
:1028D80086378737D8908637873786C091F087C084
:1028E80092F091C080F092C081F0BDEC1FF0000121
:1028F800896F010E9125806F000E9221816FBDECCA
:102908001FF000018F6F020E9125806F000E92213B
:10291800816FBDEC1FF000018A6F030E9125806F57
:10292800000E9221816FBDEC1FF000018B6F040E29
:102938009125806F000E9221816FBDEC1FF0000180
:102948008C6F050E9125806F000E9221816FBDEC72
:102958001FF00001906F060E9125806F000E9221E6
:10296800816FBDEC1FF000018D6F070E9125806F00
:10297800000E9221816FBDEC1FF000018E6F8EB1A9
:1029880005D0000E836F000E826F12008939E84669
:102998001F0B84C0D9FF85C0DAFFDF6E20EE01F07F
:1029A8008451D9268551DA228FC086F0060E876FAA
:1029B800D8908633872FFCD789C088F0070E8817F0
:1029C800D8908837D89088358611DF6E20EE02F0CF
:1029D8008451D9268551DA228F41E8423F0B0F0BEB
:1029E800DF6E20EE06F08451D9268551DA228AC09E
:1029F80086F0050E876FD8908633872FFCD78FC057
:102A080088F0030E8817D8908837D8908837D890E0
:102A180088358611DF6E20EE08F08451D92685515D
:102A2800DA228A511F0BDF6E20EE05F08451D92679
:102A38008551DA228B390F0BDF6E20EE07F08451B7
:102A4800D9268551DA228B510F0BDF6E20EE09F063
:102A58008451D9268551DA228C39E8461F0BDF6E5E
:102A680020EE0AF08451D9268551DA2290C086F0EA
:102A7800060E876FD8908633872FFCD78CC088F0D6
:102A8800070E8817D8908837D89088358611DF6E5A
:102A980020EE0BF08451D9268551DA22D890903156
:102AA8001F0BDF6E20EE0CF08451D9268551DA22F7
:102AB8008DC086F0D8908633D8908633D8908633E8
:102AC80090C087F0010E8717050E886FD89087375A
:102AD800882FFCD787518611DF6E20EE03F08451D2
:102AE800D9268551DA228D51070BDF6E20EE04F0CE
:102AF8008451D9268551DA228E41E8423F0BDF6E98
:102B0800000E836F010E826F1200000E0101A96F83
:102B1800000EA86F000EA56F000EA46FDB0E00015B
:102B2800866FFE0E876FBDEC11F0E8EC1EF0000119
:102B3800B36FB3510101A66FA76B300EA619A71189
:102B4800D8B412003E0EA619A711D8B405D0230E8A
:102B5800A619A711D8A40FD0A95104E1100EA85D99
:102B6800D8A004D0000EA96F000E16D0010EA8251B
:102B7800A86F000E17D03C0EA619A711D8B405D01F
:102B88002A0EA619A711D8A40FD0A851A911D8A404
:102B980005D0000EA96F100EA86F06D0FF0EA8254D
:102BA800A86FFF0EA921A96FA851A911D8A408D010
:102BB800DB0E0001866FFE0E876FBDEC11F0B5D7F6
:102BC800FF0E0001B36FFF0EB46FA8C1B5F0A9C125
:102BD800B6F0B351B527B451B623D890B633B53350
:102BE800D890B633B533B5C0A4F1B6C0A5F1A4C129
:102BF80082F0A5C183F0AA0E846F010E856F63EC85
:102C080014F082C0A0F183C0A1F10101A051A1116B
:102C1800D8B479D0000E0001A16F010EA26F830E07
:102C2800A36FFE0EA46FAAC1A5F0A66BADC1A7F055
:102C3800A86BAEC1A9F0AA6B4FEC1EF0200E0001E4
:102C4800A16F010EA26F370EA36FFE0EA46FAFC166
:102C5800A5F0A66BB0C1A7F0A86BB1C1A9F0AA6B8B
:102C6800B2C1ABF0AC6B4FEC1EF0400E0001A16F8F
:102C7800010EA26F010EA36FFE0EA46FB3C1A5F0E3
:102C8800A66BB4C1A7F0A86BB5C1A9F0AA6BB6C171
:102C9800ABF0AC6B4FEC1EF0600E0001A16F010EA3
:102CA800A26FDF0EA36FFF0EA46FADC1A5F0A66BD8
:102CB800AEC1A7F0A86B4FEC1EF0FF0E0001B36F7A
:102CC800FF0EB46FA8C1B5F0A9C1B6F0B351B527CE
:102CD800B451B623030EB5150101A26FA36BA2C1AF
:102CE800B3F0A3C1B4F0050ED8900001B337B437E0
:102CF800E82EFAD7000EB325866F010EB421876F30
:102D0800BDEC11F012D7800E0001A16F010EA26F69
:102D1800030EA36FFF0EA46FA4C1A5F0A5C1A6F072
:102D28004FEC1EF0800E0001866F010E876FBDEC20
:102D380011F0FBD68AC08EF000018F6B906B89353D
:102D48008E3701E38F818E51936F8DC08EF08F6B1C
:102D5800906B8C358E3701E38F818E51926F935132
:102D6800D8B40BD09251935DD8B00ED093510008CF
:102D780092258E6F180E8E6507D08BC088F08CC098
:102D880089F08DC08AF012009251D8B40BD09351BB
:102D9800925DD8B00ED09251000893258E6F180E10
:102DA8008E6507D088C088F089C089F08AC08AF00B
:102DB8001200060E916F8ABF918F8DBF918D898FFA
:102DC800FF0E8817FF0E8917000E8A178C8FFF0ECB
:102DD8008B17FF0E8C17000E8D179251935DD8B08C
:102DE8001BD0D8908B378C378D3792079351921917
:102DF800D8B40DD0910791C08EF0070E8E17D8B4B5
:102E080006D0EFD7D8908A3389338833932B9251E1
:102E18009319D8B41FD0F6D79351925DD8B01AD071
:102E2800D890883789378A37930793519219D8B43D
:102E38000DD0910791C08EF0070E8E17D8B406D02A
:102E4800EFD7D8908D338C338B33922B92519319C3
:102E5800D8A4F7D791AF0CD0FF0E881BFF0E891BA3
:102E6800FF0E8A1B010E8827000E8923000E8A2375
:102E780091AD0CD0FF0E8B1BFF0E8C1BFF0E8D1B14
:102E8800010E8B27000E8C23000E8D23000E916FF0
:102E980088518B2789518C238A518D238DAF0ED071
:102EA800FF0E8B1BFF0E8C1BFF0E8D1B010E8B273D
:102EB800000E8C23000E8D23010E916F8BC080F0C5
:102EC8008CC081F08DC082F093C083F091C084F0F3
:102ED8002AEC1BF080C088F081C089F082C08AF09B
:102EE80012000BC00FF0106A116A0A340F3601E3A2
:102EF80010800F50146E0EC00FF0106A116A0D3456
:102F08000F3601E310800F50136E1450D8B40BD055
:102F18001350145CD8B00ED01450000813240F6E50
:102F2800180E0F6407D00CC009F00DC00AF00EC0CF
:102F38000BF012001350D8B40BD01450135CD8B057
:102F48000ED01350000814240F6E180E0F6407D00B
:102F580009C009F00AC00AF00BC00BF01200060EF7
:102F6800126E0BBE128E0EBE128C0A8EFF0E091642
:102F7800FF0E0A16000E0B160D8EFF0E0C16FF0E16
:102F88000D16000E0E161350145CD8B01BD0D89036
:102F98000C360D360E36130614501318D8B40DD04F
:102FA800120612C00FF0070E0F16D8B406D0EFD7CE
:102FB800D8900B320A320932142A13501418D8B494
:102FC8001FD0F6D71450135CD8B01AD0D890093651
:102FD8000A360B36140614501318D8B40DD012063E
:102FE80012C00FF0070E0F16D8B406D0EFD7D8903E
:102FF8000E320D320C32132A13501418D8A4F7D7F6
:1030080012AE0CD0FF0E091AFF0E0A1AFF0E0B1A89
:10301800010E0926000E0A22000E0B2212AC0CD05B
:10302800FF0E0C1AFF0E0D1AFF0E0E1A010E0C26BB
:10303800000E0D22000E0E22000E126E09500C26F4
:103048000A500D220B500E220EAE0ED0FF0E0C1A97
:10305800FF0E0D1AFF0E0E1A010E0C26000E0D2281
:10306800000E0E22010E126E0CC001F00DC002F00F
:103078000EC003F014C004F012C005F082EC1BF07F
:1030880001C009F002C00AF003C00BF012008A0E5A
:103098000001836F000E846F38EC1DF08CC088F03F
:1030A8000001883B0F0E88170F0E881788510A0DEC
:1030B8008CC089F00F0E89178951F324346E000EE5
:1030C800F420356E8BC088F0883B0F0E88170F0EE2
:1030D800881788510A0D8BC089F00F0E89178951FE
:1030E800F324366E000EF420376E8AC088F0883BD1
:1030F8000F0E88170F0E881788510A0D8AC089F09D
:103108000F0E89178951F324386E000EF420396E9A
:103118003AC088F03BC089F0881F891F884B892BEB
:1031280034508825936F35508921946F20EE3CF0F8
:10313800DECF88F0DDCF89F0881F891F884B892B67
:1031480036508825956F37508921966F20EE3EF0CE
:10315800DECF88F0DDCF89F0881F891F884B892B47
:1031680038508825976F39508921986F93C080F01F
:1031780094C081F00E0E836F100E826F2CEC1FF03E
:1031880080C088F081C089F095C080F096C081F039
:10319800000E0001836F3C0E826F2CEC1FF00001C3
:1031A800805188278151892397518825916F98519B
:1031B8008921926F91C086F092C087F01200EC0EC0
:1031C800F66E3A0EF76E000EF86E03EE00F010EE93
:1031D80069F00900F5CFEEFFE550E150FAE1A60EDF
:1031E800F66E3E0EF76E000EF86E02EEA6F010EECA
:1031F80022F00900F5CFEEFFE550E150FAE12E0E7E
:10320800F66E3F0EF76E000EF86E01EED5F010EE7A
:103218001CF00900F5CFEEFFE550E150FAE1120E7F
:10322800F66E400EF76E000EF86E00EEE5F010EE4A
:1032380006F00900F5CFEEFFE550E150FAE1B80ECF
:10324800F66E3F0EF76E000EF86E00EE51F010EEBF
:1032580013F00900F5CFEEFFE550E150FAE101EE79
:10326800B7F01E0EEE6AE806FDE100EED5F0100E8E
:10327800EE6AE806FDE100EE34F01D0EEE6AE8069F
:10328800FDE1649064920001D0EF1AF0000E000195
:10329800896F87AF0AD0871F861F851F846D000E30
:1032A800852386238723010E896F83AF0AD0831F66
:1032B800821F811F806D000E812382238323010ECC
:1032C800891B000E8A6F000E8B6F000E8C6F000E2C
:1032D8008D6F8451851186118711D8B42AD0010EBB
:1032E800886F06D0D8908437853786378737882BFC
:1032F80087AFF8D7D8908A378B378C378D3784517A
:10330800805D855181598651825987518359D8A04A
:1033180009D08451805F8551815B8651825B8751DA
:10332800835B8A81D8908733863385338433882FAB
:10333800E1D78951D8B408D08D1F8C1F8B1F8A6D97
:10334800000E8B238C238D238AC080F08BC081F0E4
:103358008CC082F08DC083F012000001816F51D0C3
:1033680000018051D8A403D08A868B900BD08005A9
:10337800D8A402D08A9605D0020E8019D8A402D00B
:103388008A868B8080C05BF012008051D8A403D05D
:103398008B828B940BD08005D8A402D08B9205D059
:1033A800020E8019D8A402D08B828B8480C05AF078
:1033B80012008051D8A403D08B8A8B9C0BD0800537
:1033C800D8A402D08B9A05D0020E8019D8A402D0B6
:1033D8008B8A8B8C80C05CF012008051D8A403D0FB
:1033E8008B8E8D900BD08005D8A402D08B9E05D0F3
:1033F800020E8019D8A402D08B8E8D8080C059F01F
:10340800120000018151000AD8B4E7D7010AD8B4E4
:10341800BCD7030AD8B4A4D7010AD8A41200C9D7C4
:10342800036E50D00250D8A403D08A868B900BD05C
:103438000204D8A402D08A9605D0020E0218D8A495
:1034480002D08A868B8002C05BF012000250D8A49A
:1034580003D08B828B940BD00204D8A402D08B9219
:1034680005D0020E0218D8A402D08B828B8402C029
:103478005AF012000250D8A403D08B8A8B9C0BD030
:103488000204D8A402D08B9A05D0020E0218D8A440
:1034980002D08B8A8B8C02C05CF012000250D8A438
:1034A80003D08B8E8D900BD00204D8A402D08B9EB3
:1034B80005D0020E0218D8A402D08B8E8D8002C0CF
:1034C80059F012000350000AD8B4E8D7010AD8B45A
:1034D800BDD7030AD8B4A6D7010AD8A41200CAD700
:1034E8000600FACF22F0FBCF23F0E9CF24F0EACF91
:1034F80025F0E1CF26F0E2CF27F0D9CF28F0DACFB8
:1035080029F0F3CF2AF0F4CF2BF0F6CF2CF0F7CF39
:103518002DF0F8CF2EF0F5CF2FF064C030F065C055
:1035280031F066C032F067C033F0F2BAF2A403D0CB
:10353800F294E5EC0FF0F0A009D04C044D10D8A49B
:1035480004D081380F0B0F0B636EF09033C067F017
:1035580032C066F031C065F030C064F02FC0F5FFAE
:103568002EC0F8FF2DC0F7FF2CC0F6FF2BC0F4FFCC
:103578002AC0F3FF29C0DAFF28C0D9FF27C0E2FF1D
:1035880026C0E1FF25C0EAFF24C0E9FF23C0FBFFF6
:1035980022C0FAFF64921100000E896E000E8A6E36
:1035A800000E8B6E000E8C6E000E8D6E9268F70EFC
:1035B800936E000E946E000E956E000E966E000EC1
:1035C800C26E0F0EC16EA00E00018D6F860E8E6F3B
:1035D800010E8F6F000E906FABEC1DF064EC1FF0C6
:1035E80005EC1EF0010EB1EC1FF0C30E0001D46F04
:1035F800CD0EE82EFED7D42FFCD7800EB1EC1FF0ED
:10360800410E0001D46FEE0EE82EFED7D42FFCD762
:1036180000F0020E0001806F000EB1EC19F0020EEE
:103628000001806F010EB1EC19F0020E0001806FED
:10363800020EB1EC19F0020E0001806F030EB1EC1E
:1036480019F093EC1EF0A9EC09F0FBD700018351A7
:10365800D8B405D0805181118211D8A40CD0000EA5
:10366800806F000E816F000E826F1200832BD8903E
:10367800823381338033000E8015856F000E8115EB
:10368800866FFE0E8215876F855186118711D8B413
:103698000CD0ECD7832B010E8027000E8123000E5F
:1036A8008223D890823381338033000E8015856F52
:1036B800000E8115866FFF0E8215876F8551861162
:1036C8008711D8B406D0E6D78307D89080378137DA
:1036D800823781BF03D0020E8361F6D783A1819F11
:1036E800D8908333835182138451D8A4828F80C0A9
:1036F80080F081C081F082C082F012000450D8B4FA
:1037080005D0015002100310D8A40CD0000E016E91
:10371800000E026E000E036E1200042AD8900332C7
:1037280002320132000E0114066E000E0214076EFA
:10373800FE0E0314086E065007100810D8B40CD0FB
:10374800ECD7042A010E0126000E0222000E0322E5
:10375800D890033202320132000E0114066E000EB8
:103768000214076EFF0E0314086E065007100810A7
:10377800D8B406D0E6D70406D89001360236033608
:1037880002BE03D0020E0460F6D704A0029ED890B1
:103798000432045003120550D8A4038E01C001F06E
:1037A80002C002F003C003F012000001886F000E8F
:1037B80000018A6F000E896F05EC20F088C081F047
:1037C8000001826BFCEC1FF022D000018951832597
:1037D800856F8A518421866F85C0F6FF86C0F7FF02
:1037E800000EF86E0F0EF76403D00800F55005D0F0
:1037F800F6CFE9FFF7CFEAFFEF500001876F875157
:10380800816F826BFCEC1FF00001894B8A2B000151
:1038180089518325856F8A518421866F85C0F6FF7B
:1038280086C0F7FF000EF86E0F0EF76403D008008D
:10383800F55005D0F6CFE9FFF7CFEAFFEF500009C2
:10384800D8A4C3D701EC20F01200000196AF16D01F
:1038580094C09AF095C09BF096C09CF09A1F9B1F4D
:103868009C1F9A2B000E9B239C23000E9A25946F75
:10387800000E9B21956F800E9C21966F99AF16D0F4
:1038880097C09AF098C09BF099C09CF09A1F9B1F14
:103898009C1F9A2B000E9B239C23000E9A25976F42
:1038A800000E9B21986F800E9C21996F000E941B2F
:1038B800000E951B800E961B000E971B000E981B82
:1038C800800E991B9751945D985195599951965925
:1038D800D8B002D0D8901200D8801200880E00010B
:1038E800836F000E846F38EC1DF08AC086F00001EB
:1038F800863B0F0E86170F0E861786510A0D8AC053
:1039080087F00F0E87178751F3243A6E000EF420C4
:103918003B6E89C086F0863B0F0E86170F0E861702
:1039280086510A0D89C087F00F0E87178751F32437
:103938003C6E000EF4203D6E88C086F0863B0F0E6C
:1039480086170F0E861786510A0D88C087F00F0E4E
:1039580087178751F3243E6E000EF4203F6E120045
:103968000001816F00018151F00B806F8C500F0BAB
:103978008C6E80518C108C6E000EF2BE010E506E53
:10398800F29E8C86530EE82EFED700F08C96C80E59
:1039980000D0E82EFDD750B002D0F29E01D0F28EB2
:1039A80000018139F00B816F8151F00B806F8C50D1
:1039B8000F0B8C6E80518C108C6E000EF2BE010EB7
:1039C800506EF29E8C86530EE82EFED700F08C9631
:1039D800C80E00D0E82EFDD750B002D0F29E01D01C
:1039E800F28E1200000E0001886F000E896F000E23
:1039F8008A6F000E8B6F8451851186118711D8B498
:103A08002AD0010E8C6F06D0D89084378537863738
:103A180087378C2B87AFF8D7D890883789378A377C
:103A28008B378451805D85518159865182598751E0
:103A38008359D8A009D08451805F8551815B865114
:103A4800825B8751835B8881D8908733863385333F
:103A580084338C2FE1D788C080F089C081F08AC078
:103A680082F08BC083F0120005EC20F0000E0001FC
:103A7800826FD00E816FFCEC1FF0000E0001826F88
:103A8800000E816FFCEC1FF001EC20F005EC20F03B
:103A9800000E0001826FD10E816FFCEC1FF0000E4A
:103AA8000001856F050E856501D00FD08551010D88
:103AB800F3508325D96EF4508421DA6E000E17EC8A
:103AC8001FF0DF6E0001852BEDD720EE06F0835145
:103AD800D9268451DA22010E17EC1FF0DF6E01ECB3
:103AE80020F012004E4F4E450042000000004E00EC
:103AF80000000053000000005700000000424E0084
:103B080000004253000000425700000042424E00AD
:103B18000042425300004242570000424E57000004
:103B280042535700004257570000424E4E5700423A
:103B380053575700424253570042424E5700424E95
:0D3B48004E5700424E4E4E00425757570058
:103B5600C69A94869488800EC76E280EC66E000E8E
:103B6600C56E000E0001806F5A0E816F620E826F65
:103B7600020E836F8DC091F08EC092F08FC093F0CD
:103B860090C094F0020ED8909137923793379437BD
:103B9600E82EF9D791C084F092C085F093C086F0E4
:103BA60094C087F0F6EC1CF000018005C86E120088
:103BB600000E0001866F000E856F82518311D8B406
:103BC6001CD0010E846F04D0D89082378337842BA3
:103BD60083AFFAD7D890853786378251805D835177
:103BE6008159D8A005D08251805F8351815B858140
:103BF600D89083338233842FEDD785C080F086C07A
:103C060081F01200C30E0001836FCD0EE82EFED7A1
:103C1600832FFCD7330EB1EC1FF0320EB1EC1FF040
:103C2600280EB1EC1FF00F0EB1EC1FF0060EB1EC32
:103C36001FF0010EB1EC1FF0C30E0001836FCD0E15
:103C4600E82EFED7832FFCD70F0EB1EC1FF0120023
:103C56000001896F800EB1EC1FF0410E0001876FE5
:103C6600EE0EE82EFED7872FFCD700F0000E0001DF
:103C7600886F05D0C00EB1EC1FF00001882B86516D
:103C8600885DD8A0F7D78951D8B41200010E836F8A
:103C9600895186EC1FF01200A1C0AFF0A2C0B0F0AF
:103CA600000E0001B16F000EB26FA50EAD6F000ED3
:103CB600AE6FAF0E8C6F000E8D6FA3C08EF0A4C0DA
:103CC6008FF0AD0E906F000E916FB3EC03F0AFC0A6
:103CD600D9FFB0C0DAFF000EDF6E12000001895175
:103CE6008A11D8B418D0010E8B6F04D0D8908937BA
:103CF6008A378B2B8AAFFAD78951875D8A518859C3
:103D0600D8A004D08951875F8A51885BD8908A33BE
:103D160089338B2FF1D787C087F088C088F01200CF
:103D2600150E0001866FFF0E876FBDEC11F0E8ECF3
:103D36001EF00001956F9551996F9A6BD00E956F95
:103D4600FF0E966F99C097F09AC098F095519727F5
:103D56009651982397059811D8B41200E8D7000E0B
:103D66000001A76F000EA86F4A0EA96F3F0EAA6F3B
:103D7600A30EA56F000EA66FA70E8C6F000E8D6F9B
:103D8600A1C08EF0A2C08FF0A50E906F000E916FAD
:103D9600B3EC03F0120086C08AF087C08BF005D022
:103DA60000018A4B8B2B884B892B88C0F6FF89C074
:103DB600F7FFF86A8AC0D9FF8BC0DAFF0800F5CF93
:103DC600DFFFDF50D8B41200EBD781A2FED78138CF
:103DD6000F0B0F0B0001806F81B2FED700F00001C0
:103DE6008051010D730EF324F66EFB0EF420F76E70
:103DF600F86A000EF8220800F5501200A6840001A9
:103E06008151AA6E80C0A9FF82C0A8FFA69EA69C6B
:103E1600F29E550EA76EAA0EA76EA682F28EA1A8D6
:103E2600FED7A198A69412000001816FC8EC1FF07E
:103E3600C586C8EC1FF0C9CF82F0C8EC1FF00001A0
:103E460081B102D0C59A01D0C58AC58800018251C8
:103E56001200000180518203F3CF84F0F4CF85F085
:103E660080518303F350852781518203F3508527C0
:103E760084C080F085C081F0120095C086F096C09F
:103E860087F0BDEC11F0660E0001986F760E976F05
:103E9600C10EE82EFED7972FFCD7982FFAD712001F
:103EA6000153746172746564207061636B61676944
:103EB6006E6720636F6D706172746D656E742078C5
:103EC60000004E50D8A41200D59CD59AD596D5841C
:103ED600D582D580F90ED76E5F0ED66ED58EF28A54
:103EE600F28E12000001826F000E0001816F3A0E01
:103EF600826105D02F0E826502D0010E816F81C0CE
:103F060080F0803112000001846F84C085F00001CA
:103F16008551D8B412008345E846FC0B1009B1EC74
:103F26001FF000018507F4D701537461727465644C
:103F360020636F6D706172746D656E742078000019
:103F4600020008000001826F8C8400018251B4ECEB
:103F56001CF0C80E00D0E82EFDD712000001826FBB
:103F66008C9400018251B4EC1CF0C80E00D0E82EEF
:103F7600FDD7120000018151AA6E80C0A9FFA69E3E
:103F8600A680A6B0FED7A8501200C7B4FED7C5CFEC
:103F960080F01F0E00018017D8B41200F6D7000E6D
:103FA6000101D16F000ED26F000ED36F000ED46FD9
:103FB6001200120000003C00000002020202008013
:053FC600BF0080BFFFF9
:103FCC00016E0150D8A402D0010E1200000E120096
:103FDC005DC080F05EC081F05FC082F01200000E08
:103FEC005D6E000E5E6E000E5F6E1200C8EC1FF070
:103FFC0081C0C9FF1200C8EC1FF0C5841200C8ECC8
:0C400C001FF0C5801200433003000200CA
:10FB720000313233423435364E373839532A302346
:10FB820057002A3C2D20202028202D20292020200B
:10FB9200200001000A006400E8031027555B777F0C
:10FBA200FF10000102100228496E76616C69642020
:10FBB200656E7472790A506C65617365207472792E
:10FBC20020616761696E0000546F6F206D616E790C
:10FBD2002066617374656E65727300000000000038
:10FBE2000000000000000000546F6F206D616E790C
:10FBF20020626F6C747300000000000000000000BF
:10FC02000000000000000000546F6F206D616E79EB
:10FC1200206E7574730000000000000000000000F8
:10FC22000000000000000000546F6F206D616E79CB
:10FC320020776173686572730000000000000000A5
:10FC42000000000000000000546F6F206D616E79AB
:10FC52002073706163657273000000000000000091
:10FC620000000000000000004E6F206661737465A2
:10FC72006E6572732073656C656374656400000061
:10FC82000000000000000000417373656D626C7932
:10FC92002073746570730A2A3C2D202028342D3875
:10FCA20029202020202000000046617374656E65C3
:10FCB200727320696E2043780A2A3C2D28424E53E3
:10FCC2005729202020202D3E2300486F77206D6188
:10FCD2006E7920736574733F0A2A3C2D20202831E7
:10FCE2002D34292020202020000000436F6E6669F9
:10FCF200726D3F0A2A3C2D202028413A592F423A60
:10FD02004E2920000000000000000000000000005A
:10FD120001000000000100000000010000000001DD
:10FD220001010000010001000100000102010000C8
:10FD320002000100020000010101000101000101B5
:10FD420001000002010100020100010202000101A2
:10FD52000201000101020001010300000100000391
:10FD62000146696E6973686564207061636B6167DF
:10FD7200696E6720636F6D706172746D656E742059
:10FD82002564000001456E746572656420746865BF
:10FD9200207061636B6167696E672066756E63745C
:10FDA200696F6E0000303A72657475726E20313A76
:10FDB200736176650A3C3E3A766965772073756DA4
:10FDC2006D61727900303A536C65657020313A4248
:10FDD2006567696E200A323A2056696577204C6F52
:10FDE200677300014F7574206F6620746865207018
:10FDF20061636B6167696E67206C6F6F70000052A0
:10FE0200656D61696E696E673A0A422564204E2506
:10FE12006420532564205725640050726573732053
:10FE22003120746F2073746172740A7061636B6144
:10FE320067696E67005061636B616765643A0A4285
:10FE42002564204E256420532564205725640053E1
:10FE520074617274656420696E70757420656E7465
:10FE620072792C20686900005061636B6167696E6A
:10FE7200670A506C6561736520776169742E2E2E56
:10FE820000446174653A0A3230253032642D2530DF
:10FE920032642D25303264004F7065726174696E70
:10FEA200672074696D653A0A25643A256400014247
:10FEB2003A2564204E3A256420533A256420573A65
:10FEC20025640000015374617274696E6720706169
:10FED200636B6167696E670000303A5265747572D0
:10FEE2006E0A3C3E3A4E6176696761746500014470
:10FEF2006F6E6520636F6D706172746D656E7400F4
:10FF020000456E7472792025750A697320656D70DB
:10FF12007479005072657373203120746F206265AA
:10FF220067696E000153706163657220436F756E7D
:10FF320074656400000157617368657220436F75D0
:10FF42006E74656400000153706163657220636FB3
:10FF5200756E746564000001576173686572206391
:10FF62006F756E7465640000536176656420746F0A
:10FF720020454550524F4D0001426F6C7420436F33
:10FF8200756E746564000001426F6C7420636F7556
:10FF92006E7465640000436F6D706172746D656E9E
:10FFA200742025640001446F6E6520696E7075745B
:10FFB200730000416C7265616479207361766564D7
:10FFC20000014E757420436F756E74656400000104
:10FFD2004E757420636F756E746564000054696DAC
:10FFE200653A0A25643A2564004325643A2025735C
:0DFFF2002078256400286E756C6C290000D5
:020000040020DA
:08000000FFFFFFFFFFFFFFFF00
:020000040030CA
:0E000000FF061F1EFF8181FF0FC00FE00F40A3
:00000001FF
