:040000003FEF78F066
:10ED7C00CBEC76F0C5801200CBEC76F0C58412009B
:10ED8C00CBEC76F002C0C9FF1200C7B4FED7C5CFDA
:10ED9C0001F01F0E0116D8B41200F7D7036E8C9435
:10EDAC000350CEEC78F0C80E00D0E82EFDD7120040
:10EDBC00036E8C840350CEEC78F0C80E00D0E82E95
:04EDCC00FDD712005D
:10EDD1005374617274656420696E70757420656E18
:10EDE10074727900004330056E05C006F00650D8F4
:10EDF100B412000444E846FC0B1009D4EC76F0068A
:10EE010006F5D7B80E076EFF0E086EA7EC7AF03A3A
:10EE1100EC77F0166E1650176E186A2A0E1718182E
:10EE210010D8B41200F4D701500302F3CF05F0F467
:10EE3100CF06F001500402F350062602500302F3FC
:10EE410050062605C001F006C002F0120016C007E8
:10EE5100F017C008F0A7EC7AF0660E196E760E185E
:10EE61006EC10EE82EFED7182EFCD7192EFAD70048
:10EE7100F0120081A2FED781380F0B0F0B016E81BA
:10EE8100B2FED700F00150010DFF0EF324F66EFD26
:10EE91000EF420F76EF86A000EF8220800F5501201
:10EEA1000007C00BF008C00CF004D00B4A0C2A0973
:10EEB1004A0A2A09C0F6FF0AC0F7FFF86A0BC0D94F
:10EEC100FF0CC0DAFF0800F5CFDFFFDF50D8B41226
:10EED10000ECD7D20E076EFF0E086EA7EC7AF03A5F
:10EEE100EC77F0166E16501A6E1B6AD00E166EFF76
:10EEF1000E176E1AC018F01BC019F01650182617FD
:10EF010050192218041910D8B41200E9D70A6E80DA
:10EF11000ED4EC76F0410E086EEE0EE82EFED70808
:10EF21002EFCD700D0000E096E04D0C00ED4EC76B2
:10EF3100F0092A0750095CD8A0F8D70A50D8B412B2
:10EF410000010E046E0A50F4EC76F012000A500B28
:10EF510010D8B418D0010E0C6E04D0D8900A360B1C
:10EF6100360C2A0BAEFAD70A50085C0B500958D858
:10EF7100A004D00A50085E0B50095AD8900B320AEF
:10EF8100320C2EF1D708C008F009C009F01200C3F5
:10EF91000E046ECD0EE82EFED7042EFCD700F03302
:10EFA1000ED4EC76F0320ED4EC76F0280ED4EC765A
:10EFB100F00F0ED4EC76F0060ED4EC76F0010ED400
:10EFC100EC76F0C30E046ECD0EE82EFED7042EFCB7
:10EFD100D700F00F0ED4EC76F01200076E000E0988
:10EFE1006E000E086EBEEC76F007C002F0036AC632
:10EFF100EC76F00FD008500424D96E09500520DAC0
:10F001006EDF50066E0650026E036AC6EC76F0089B
:10F011004A092A08500424D96E09500520DA6EDF06
:10F0210050D8A4E8D7C2EC76F01200000E066E00AC
:10F031000E056E03500410D8B41CD0010E076E04E7
:10F04100D0D89003360436072A04AEFAD7D89005F3
:10F051003606360350015C04500258D8A005D0038F
:10F0610050015E0450025A0580D8900432033207E1
:10F071002EEDD705C001F006C002F01200330EF6E6
:10F081006EF10EF76E000EF86E01EE00F010EE69F3
:10F09100F00900F5CFEEFFE550E150FAE1D10EF6AF
:10F0A1006EED0EF76E000EF86E00EE9AF010EE1790
:10F0B100F00900F5CFEEFFE550E150FAE100EE80F6
:10F0C100F01A0EEE6AE806FDE17E6A000169EF784A
:10F0D100F0000E896E000E8A6E000E8B6E000E8C93
:10F0E1006E000E8D6E92689368000E946E000E9500
:10F0F1006E000E966EC8EC77F0010ED4EC76F0C37C
:10F101000E7D6ECD0EE82EFED77D2EFCD700F08051
:10F111000ED4EC76F0410E7D6EEE0EE82EFED77D1C
:10F121002EFCD700D06AEC77F00DEC79F000EF00FF
:01F13100F0ED
:10F133004E4F4E450042000000004E0000000053B9
:10F14300000000005700000000424E000000425340
:10F15300000000425700000042424E00004242536A
:10F1630000004242570000424E57000042535700EE
:10F17300004257570000424E4E5700425357570024
:10F18300424253570042424E5700424E4E570042AE
:10F193004E4E4E004257575700026E0250F00B017D
:10F1A3006E8C500F0B8C6E01508C108C6E000EF217
:10F1B300BE010E7E6EF29E8C86530EE82EFED700A5
:10F1C300F08C96C80E00D0E82EFDD77EB002D0F2A8
:10F1D3009E01D0F28E0238F00B026E0250F00B014A
:10F1E3006E8C500F0B8C6E01508C108C6E000EF2D7
:10F1F300BE010E7E6EF29E8C86530EE82EFED70065
:10F20300F08C96C80E00D0E82EFDD77EB002D0F267
:10F213009E01D0F28E1200000E786E010E776E778B
:10F22300507810D8B40AD09A0E076EFF0E086EA756
:10F23300EC7AF0000E786E000E776E3AEC77F0738E
:10F243006E7350796E7A6A7950DEEC76F0D00E7375
:10F253006EFF0E746E79C075F07AC076F0735075D8
:10F26300267450762275507610D8A403D06AEC77B2
:10F27300F0D2D7D00E736EFF0E746E79C075F07A2C
:10F28300C076F0735075267450762275047610D8C4
:10F29300A46DD0FBEC7BF0EF0E0D6EFF0E0E6ECC6B
:10F2A300EC79F0330E746EBB0E736EE00EE82EFE37
:10F2B300D7732EFCD7742EFAD7000E7C6E000E7B0C
:10F2C3006E7CBE06D07C50F8E1080E7B5CD8B0F4AF
:10F2D300D7010ED4EC76F0C30E736ECD0EE82EFE7E
:10F2E300D7732EFCD700F0800ED4EC76F0410E736A
:10F2F3006EEE0EE82EFED7732EFCD700D0E30E0D74
:10F303006EFF0E0E6E010E7B240F6E000E7C20101E
:10F313006E820E7B24D96E000E7C20DA6EDF507372
:10F323006E7350050D000EF324116E010EF42012BE
:10F333006ED8907B34D96E7C34DA6E8A0ED926006F
:10F343000EDA22DECF13F0DDCF14F0CCEC79F066C9
:10F353000E746E760E736EC10EE82EFED7732EFCFE
:10F36300D7742EFAD700F07B4A7C2AAAD7D00E7323
:10F373006EFF0E746E79C075F07AC076F0735075B7
:10F383002674507622020E75187610D8A448D70238
:10F39300EC77F041D70F0E186E000E196EC8D0250A
:10F3A3000E1E18D8B404D01E50DEEC76F0C0D00088
:10F3B3000E166E3FD018C0D9FF19C0DAFFDECF1A80
:10F3C300F0DDCF1BF0020E1826000E19221A501B77
:10F3D30010D8A41AD0F80E1A6EFF0E1B6E15D01A91
:10F3E300C0F6FF1BC0F7FF000EF86E0F0EF76403A5
:10F3F300D00800F55005D0F6CFE9FFF7CFEAFFEFCD
:10F4030050DEEC76F01A4A1B2A1AC0F6FF1BC0F72F
:10F41300FF000EF86E0F0EF76403D00800F55005D9
:10F42300D0F6CFE9FFF7CFEAFFEF500009D8B47F5A
:10F43300D0D6D70DC0F6FF0EC0F7FF0D4A0E2AF83F
:10F443006A0800F5CF1EF01E50000AD8B4120064FB
:10F453000AD8B407D00D0AD8B404D01A0AD8B4AA6B
:10F46300D766D018C0D9FF19C0DAFFDECF1CF0DD94
:10F47300CF1DF0020E1826000E19221DAE06D00372
:10F483000E16121C6C1D1ED8B01D2A010E1E6E0511
:10F493000E1E18D8B415D01E50020D200EF324F6FC
:10F4A3006EFE0EF420F76EF86A000EF8220900F5DE
:10F4B300501C5C0900F5501D58D8A002D01E2AE745
:10F4C300D716C015F0030E1516D8B403D02D0EDED3
:10F4D300EC76F01EC017F027D01750020D200EF364
:10F4E30024F66EFE0EF420F76EF86A000EF8220979
:10F4F30000F5CF03F00A00F5CF04F01CC001F01DA6
:10F50300C002F016EC78F001C008F002C009F00068
:10F513000E0B6E0A0E0A6EA7EC77F00850300F1E22
:10F523006E1E50DEEC76F017061728D8A4D5D70D3B
:10F53300C0F6FF0EC0F7FF0D4A0E2AF86A0800F561
:10F54300CF1EF01E50D8B412002AD7000E0D6E0144
:10F553000E0C6E000E116E100E106E126813680002
:10F563000E0F6E000E0E6E010ED4EC76F0C30E0974
:10F573006ECD0EE82EFED7092EFCD700F0800ED4F8
:10F58300EC76F0410E096EEE0EE82EFED7092EFC46
:10F59300D700D0000E156E000E146E15BE08D015E0
:10F5A3005005E1110E145CD8B087D001D085D0147A
:10F5B300500724096E155008200A6E09C0F6FF0A89
:10F5C300C0F7FF000EF86E0F0EF76403D00800F5C6
:10F5D3005005D0F6CFE9FFF7CFEAFFEF500009D887
:10F5E300B46BD014500724096E155008200A6E0915
:10F5F300C0F6FF0AC0F7FF000EF86E0F0EF76403A4
:10F60300D00800F55005D0F6CFE9FFF7CFEAFFEFBA
:10F6130050200AD8A404D014C00EF015C00FF01463
:10F62300500724096E155008200A6E09C0F6FF0A18
:10F63300C0F7FF000EF86E0F0EF76403D00800F555
:10F643005005D0F6CFE9FFF7CFEAFFEF500A0AD80B
:10F65300A408D014C012F015C013F012C010F01398
:10F66300C011F0100E14181510D8A41FD014500791
:10F6730024096E155008200A6E09C0F6FF0AC0F768
:10F68300FF000EF86E0F0EF76403D00800F5500567
:10F69300D0F6CFE9FFF7CFEAFFEF50200AD8A41343
:10F6A300AE04D00EC010F00FC011F0144A152A1585
:10F6B300BE7ED7155001E175D7000E156E000E14EE
:10F6C3006E15BE08D0155005E1200E145CD8B0129B
:10F6D3000001D0120014500724096E155008200AA7
:10F6E3006E09C0F6FF0AC0F7FF000EF86E0F0EF7A3
:10F6F3006403D00800F55005D0F6CFE9FFF7CFEA51
:10F70300FFEF500009D8B412001050141851E11142
:10F71300501518D8A44DD0320EF66EFE0EF76E00BB
:10F723000EF86E0800F550096E0A6A09500C5C0D5C
:10F7330050800A0B6E0A50800A0B58D8B039D00C8F
:10F743004A0D2AC00ED4EC76F014500724096E1526
:10F753005008200A6E09C0F6FF0AC0F7FF000EF832
:10F763006E0F0EF76403D00800F55005D0F6CFE90D
:10F77300FFF7CFEAFFEF50200AD8B433D014500775
:10F7830024096E155008200A6E09C0F6FF0AC0F757
:10F79300FF000EF86E0F0EF76403D00800F5500556
:10F7A300D0F6CFE9FFF7CFEAFFEF500A0AD8B41932
:10F7B300D014500724096E155008200A6E09C0F6AC
:10F7C300FF0AC0F7FF000EF86E0F0EF76403D008B0
:10F7D30000F55005D0F6CFE9FFF7CFEAFFEF50DE93
:10F7E300EC76F0144A152A15BE75D7155001E16C55
:10F7F300D71200010ED4EC76F0C30E1A6ECD0EE8CC
:10F803002EFED71A2EFCD700F0800ED4EC76F041F2
:10F813000E1A6EEE0EE82EFED71A2EFCD700D0205D
:10F82300EE9AF010EE1EF0140EDBCFE3FFE806FCB9
:10F83300E21E0E046E000E056E2F0EF66EFE0EF720
:10F843006E000EF86E0800F550EEEC77F0000E6FC8
:10F853006E000E6E6EAFC053F0B0C054F0000E6B6E
:10F863006E000E6A6E000E566E000E97D26A506BD3
:10F8730010D8A448D06AC001F06BC002F0000E0497
:10F883006E210E036E14EC77F0160E0124076EFF43
:10F893000E0220086EA7EC7AF03AEC77F0726ED085
:10F8A3000E72246C6E6D6AFF0E6D227250DEEC7662
:10F8B300F01A0E1B6E5E0E1A6E6E0EE82EFED71A2F
:10F8C3002EFCD71B2EFAD700D06DBE15D06D500479
:10F8D300E1040E6C5CD8A00FD06DBE06D06D500B4A
:10F8E300E1090E6C5CD8B007D06CC080F06DC081AC
:10F8F300F06A4A6B2A53D2360E166EFE0E176E2727
:10F90300EC77F04CD26A046B10D8A448D2FC0E1AE0
:10F913006EFF0E1B6E80C01CF081C01DF01A501CC0
:10F92300261B501D222A0E1C24F66EFE0E1D20F7E8
:10F933006EF86A000EF8220800F5CF5DF0000E6F36
:10F943006E000E6E6E6FBE08D06F5005E1080E6E2E
:10F953005CD8B020D201D01ED26EC01AF05DC01B9D
:10F96300F01A2A02D0D8901B321A2EFCD71BA0F310
:10F97300D1000E5A6E000E4CD1000E616E000E6067
:10F983006E000E636E000E626E000E656E000E64F6
:10F993006E000E676E000E666E330E076E000E0865
:10F9A3006E6AC001F06BC002F0000E046E210E03FC
:10F9B3006E14EC77F0160E0124096EFF0E02200A76
:10F9C3006E51EC77F06E50310F416E330E076E00BF
:10F9D3000E086EA7EC7AF0010E076E090E87EC771E
:10F9E300F0000E5F6E000E4BD03AEC77F0726E4271
:10F9F3000E7218D8B40CD04E0E7218D8B408D05367
:10FA03000E7218D8B404D0570E7218D8A421D0722D
:10FA130050DEEC76F0420E7218D8A403D0604A612F
:10FA23002A14D04E0E7218D8A403D0624A632A0D4A
:10FA3300D0530E7218D8A403D0644A652A06D0574F
:10FA43000E7218D8A402D0664A672A5E4A5F2A213A
:10FA5300D0230E7218D8A415D060506110D8A40C0E
:10FA6300D062506310D8A408D064506510D8A404A1
:10FA7300D066506710D8B40DD0000E5F6E040E5ED2
:10FA83006E08D02A0E7218D8A404D06E06D8A06FC0
:10FA930006C4D05FBEA9D75F5004E1040E5E5CD8F4
:10FAA300A0A3D7000E586E000E576E000E716E00A5
:10FAB3000E706E71BE08D0715005E1150E705CD8E2
:10FAC300B099D001D097D070C01AF071C01BF0D894
:10FAD300901A361B36D8901A361B36AB0E1A24F6FC
:10FAE3006EFD0E1B20F76EF86A000EF8220800F573
:10FAF300501C6E1D6A60501C1876E161501D18D8A9
:10FB0300A472D070C01AF071C01BF0D8901A361BC3
:10FB130036D8901A361B36010E1A26000E1B22AB5E
:10FB23000E1A24F66EFD0E1B20F76EF86A000EF80F
:10FB3300220800F5501C6E1D6A62501C1854E163C4
:10FB4300501D18D8A450D070C01AF071C01BF0D843
:10FB5300901A361B36D8901A361B36020E1A260018
:10FB63000E1B22AB0E1A24F66EFD0E1B20F76EF849
:10FB73006A000EF8220800F5501C6E1D6A64501CC2
:10FB83001832E165501D18D8A42ED070C01AF07138
:10FB9300C01BF0D8901A361B36D8901A361B360382
:10FBA3000E1A26000E1B22AB0E1A24F66EFD0E1B38
:10FBB30020F76EF86A000EF8220800F5501C6E1D3F
:10FBC3006A66501C1810E167501D18D8A40CD08227
:10FBD3000E6E24D96E000E6F20DA6E70C0DFFF0048
:10FBE3000E586E010E576E704A712A71BE6CD77132
:10FBF3005001E163D757505810D8A407D0360E16DA
:10FC03006EFE0E176E27EC77F004D0000E5A6E01CD
:10FC13000E596E59505A10D8B4AFD6000E5C6E0010
:10FC23000E94D0580E076EFF0E086EA7EC7AF00103
:10FC33000E076E0E0E87EC77F03AEC77F0726ED00B
:10FC43000E72246C6E6D6AFF0E6D222A0E7218D826
:10FC5300B483D67250DEEC76F01A0E1B6E5E0E1A6B
:10FC63006E6E0EE82EFED71A2EFCD71B2EFAD70087
:10FC7300D0000E696E000E686E000E716E000E707D
:10FC83006E71BE06D0715027E1040E705CD8B023AC
:10FC9300D0820E6E24D96E000E6F20DA6EDF501AFA
:10FCA3006E1A50040DAB0E1B6EFD0E1C6EF3501B33
:10FCB30026F4501C2270501B2671501C221BC0F6C8
:10FCC300FF1CC0F7FFF86A0800F5506826000E69AC
:10FCD30022704A712AD5D76CC001F06DC002F0685A
:10FCE300C003F069C004F014EC77F002BE06D00242
:10FCF3005015E1050E015CD8B011D06CC001F06D58
:10FD0300C002F068C003F069C004F014EC77F0029D
:10FD1300BE05D002500AE10104D8B007D0560E1632
:10FD23006EFE0E176E27EC77F011D0D8906E34D993
:10FD33006E6F34DA6E8A0ED926000EDA226CC0DEBC
:10FD4300FF6DC0DDFF000E5C6E010E5B6E5B505CF1
:10FD530010D8A416D066D7820E6E24D96E000E6F0B
:10FD630020DA6E000EDF6ED8906E34D96E6F34DAFF
:10FD73006E8A0ED926000EDA22000EDE6E000EDD2C
:10FD83006E6E4A6F2A6FBEE8D56F5004E1080E6E9F
:10FD93005CD8A0E2D5000E566E010E556E55505636
:10FDA30010D8A4120063D500000000000100000079
:10FDB300000100000000010000000001010100003B
:10FDC3000100010001000001020100000200010026
:10FDD3000200000101010001010001010100000214
:10FDE3000101000201000102020001010201000100
:10FDF300010200010103000001000003313233421C
:10FE03003435364E373839532A302357002A3C2DA0
:10FE130020202028202D2029202020200001000A36
:10FE2300006400E8031027555B777FFF1000010291
:10FE3300100228496E76616C696420656E7472796C
:10FE43000A506C656173652074727920616761691A
:10FE53006E0000546F6F206D616E7920666173745C
:10FE6300656E657273000000000000000000000072
:10FE7300000000546F6F206D616E7920626F6C74A7
:10FE830073000000000000000000000000000000FC
:10FE9300000000546F6F206D616E79206E7574736E
:10FEA300000000000000000000000000000000004F
:10FEB300000000546F6F206D616E79207761736865
:10FEC30065727300000000000000000000000000E5
:10FED300000000546F6F206D616E79207370616351
:10FEE30065727300000000000000000000000000C5
:10FEF3000000004E6F2066617374656E6572732037
:10FF030073656C65637465640000000000000000A5
:10FF1300000000417373656D626C792073746570C2
:10FF2300730A2A3C2D202028342D38292020202014
:10FF33002000000046617374656E65727320696EFC
:10FF43002043780A2A3C2D28424E5357292020204B
:10FF5300202D3E2300486F77206D616E79207365F5
:10FF630074733F0A2A3C2D202028312D3429202068
:10FF7300202020000000436F6E6669726D3F0A2ADD
:10FF83003C2D202028413A592F423A4E2920000087
:10FF930000000000000000303A536C6565702031AA
:10FFA3003A426567696E200A323A205669657720BE
:10FFB3004C6F6773004E6F742074686572652079A7
:10FFC30065740A2A20746F2072657475726E00500E
:10FFD30072657373203120746F20626567696E00E8
:10FFE3004325643A202573207825640053756D6D8D
:0DFFF3006172793A00286E756C6C2900006F
:020000040020DA
:08000000FFFFFFFFFFFFFFFF00
:020000040030CA
:0E000000FF061F1EFF8181FF0FC00FE00F40A3
:00000001FF
