:0400000007EF00F016
:10000800598298ED11F01DEF14F0010EF7EC15F080
:10001800C30E00018C6FCD0EE82EFED78C2FFCD7B7
:10002800800EF7EC15F0410E00018C6FEE0EE82EF5
:10003800FED78C2FFCD700F0970E2A6EFE0E2B6E83
:100048007F0EF66EFC0EF76E000EF86E0800F55087
:1000580032EC12F0000E0001E46F000EE36F55C0A1
:10006800C8F056C0C9F0000EE06F000EDF6F000E3A
:10007800CC6F000ECB6F3CD3DF51E011D8A44BD02E
:10008800DFC027F0E0C028F0000E2A6E210E296E8E
:100098009EEC15F0660E27242D6EFD0E28202E6E80
:1000A8002DEC0DF061EC15F00001E76FD00EE7259F
:1000B800E16FE26BFF0EE223E751EDEC15F01A0E4B
:1000C80000018D6F5E0E8C6F6E0EE82EFED78C2FA2
:1000D800FCD78D2FFAD700F00001E2BF15D0E2510E
:1000E80004E1040EE15DD8A00FD0E2BF06D0E251D2
:1000F8000BE1090EE15DD8B007D0E1C0A3F1E2C081
:10010800A4F1DF4BE02BF4D2860E326EFC0E336E78
:100118008BEC15F0EDD20001DF05E011D8A4E8D290
:10012800FC0E8C6FFF0E8D6FA3C18EF0A4C18FF0F3
:100138008C518E278D518F237A0E8E25F66EFC0EEC
:100148008F21F76EF86A000EF8220800F5CFCAF082
:10015800000EE46F000EE36FE4BF08D0E45105E140
:10016800080EE35DD8B0B2D201D0B0D2E3C08CF0B3
:10017800CAC08DF08C2B02D0D8908D338C2FFCD731
:1001880000018DA184D221EE22F010EE90F0170E1E
:10019800DBCFE3FFE806FCE2E351310FA56F900ED9
:1001A8002A6E000E2B6E7F0EF66EFC0EF76E000E9A
:1001B800F86E0800F55032EC12F0000E0001D06F16
:1001C800000E51D1000ED86F000ED76F000EDA6FF7
:1001D800000ED96F000EDC6F000EDB6F000EDE6FB5
:1001E800000EDD6FA80E2D6E000E2E6EDFC027F0FC
:1001F800E0C028F0000E2A6E210E296E9EEC15F044
:10020800660E27242F6EFD0E2820306E48EC15F060
:100218000001E351310FB66FA80E2D6E000E2E6E41
:100228002DEC0DF0010E2D6E090EEEEC14F0000E03
:100238000001D46F000E4DD061EC15F00001E76F9E
:10024800420EE719D8B40CD04E0EE719D8B408D02E
:10025800530EE719D8B404D0570EE719D8A422D002
:10026800E751EDEC15F0420E0001E719D8A403D0D0
:10027800D74BD82B14D04E0EE719D8A403D0D94B9E
:10028800DA2B0DD0530EE719D8A403D0DB4BDC2BA7
:1002980006D0570EE719D8A402D0DD4BDE2BD34B7E
:1002A800D42B21D0230EE719D8A415D0D751D811B3
:1002B800D8A40CD0D951DA11D8A408D0DB51DC115C
:1002C800D8A404D0DD51DE11D8B40DD0000ED46FFF
:1002D800040ED36F08D02A0EE719D8A404D0E30778
:1002E800D8A0E407C6D0D4BFA7D7D45104E1040EE0
:1002F800D35DD8A0A1D7000ECE6F000ECD6F000E33
:10030800E66F000EE56FE6BF08D0E65105E1150E71
:10031800E55DD8B099D001D097D0E5C08CF0E6C0A3
:100328008DF0D8908C378D37D8908C378D37EA0E72
:100338008C25F66EFD0E8D21F76EF86A000EF822F8
:100348000800F5508E6F8F6BD7518E1976E1D85112
:100358008F19D8A472D0E5C08CF0E6C08DF0D89083
:100368008C378D37D8908C378D37010E8C27000E3F
:100378008D23EA0E8C25F66EFD0E8D21F76EF86A38
:10038800000EF8220800F5508E6F8F6BD9518E1928
:1003980054E1DA518F19D8A450D0E5C08CF0E6C0EA
:1003A8008DF0D8908C378D37D8908C378D37020EDA
:1003B8008C27000E8D23EA0E8C25F66EFD0E8D21FE
:1003C800F76EF86A000EF8220800F5508E6F8F6BF2
:1003D800DB518E1932E1DC518F19D8A42ED0E5C03B
:1003E8008CF0E6C08DF0D8908C378D37D8908C374C
:1003F8008D37030E8C27000E8D23EA0E8C25F66EA2
:10040800FD0E8D21F76EF86A000EF8220800F550EF
:100418008E6F8F6BDD518E1910E1DE518F19D8A4C4
:100428000CD0A50EE325D96E010EE421DA6EE5C0E5
:10043800DFFF000ECE6F010ECD6FE54BE62BE6BF5A
:100448006CD7E65101E163D7CD51CE11D8A407D0BE
:10045800860E326EFC0E336E8BEC15F005D0000E56
:100468000001D06F010ECF6F0001CF51D011D8B469
:10047800A9D6000ED26F000E03D1A80E2D6EFD0E68
:100488002E6E2DEC0DF0010E2D6E0E0EEEEC14F00E
:1004980061EC15F00001E76FD00EE725E16FE26B24
:1004A800FF0EE2232A0EE719D8B460D6E751EDEC27
:1004B80015F01A0E00018D6F5E0E8C6F6E0EE82E11
:1004C800FED78C2FFCD78D2FFAD700F0000E000135
:1004D800D66F000ED56F000EE66F000EE56FE6BF13
:1004E80006D0E65127E1040EE55DD8B023D0A50E6D
:1004F800E325D96E010EE421DA6EDF508C6F8C5142
:10050800040DEA0E8D6FFD0E8E6FF3508D27F4509B
:100518008E23E5518D27E6518E238DC0F6FF8EC0C0
:10052800F7FFF86A0800F550D527000ED623E54BEB
:10053800E62BD5D7E1C027F0E2C028F0D5C029F0D6
:10054800D6C02AF09EEC15F028BE0DD0285004E144
:10055800050E275CD8A007D0A60E326EFC0E336EAF
:100568008BEC15F08ED0E1C027F0E2C028F0D5C0A2
:1005780029F0D6C02AF09EEC15F028BE05D02850E8
:100588000AE12704D8B007D0460E326EFD0E336E4E
:100598008BEC15F076D0D7C027F0D8C028F0E1C092
:1005A80029F0E2C02AF09EEC15F028BE0DD02850A4
:1005B80004E1030E275CD8A007D0C60E326EFC0EED
:1005C800336E8BEC15F05DD0D9C027F0DAC028F077
:1005D800E1C029F0E2C02AF09EEC15F028BE0DD04B
:1005E800285004E1040E275CD8A007D0E60E326E2E
:1005F800FC0E336E8BEC15F044D0DBC027F0DCC06A
:1006080028F0E1C029F0E2C02AF09EEC15F028BEDF
:100618000DD0285004E1030E275CD8A007D0260E81
:10062800326EFD0E336E8BEC15F02BD0DDC027F04B
:10063800DEC028F0E1C029F0E2C02AF09EEC15F0F7
:1006480028BE0DD0285004E1050E275CD8A007D09D
:10065800060E326EFD0E336E8BEC15F012D0D8906C
:100668000001E335D96EE435DA6EAD0ED926010EF8
:10067800DA22E1C0DEFFE2C0DDFF000ED26F010E1C
:10068800D16F0001D151D211D8A416D0F6D6A50E3B
:10069800E325D96E010EE421DA6E000EDF6ED890E4
:1006A800E335D96EE435DA6EAD0ED926010EDA22BD
:1006B800000EDE6E000EDD6EE34BE42BE4BF56D574
:1006C800E45104E1080EE35DD8A050D5000ECC6FCC
:1006D800010ECB6FA40E2A6EFF0E2B6E7F0EF66EE8
:1006E800FC0EF76E000EF86E0800F55032EC12F0B2
:1006F8000001CB51CC11D8A41200BED4030E2A6E2F
:10070800000E2B6E7F0EF66EFC0EF76E000EF86E66
:100718000800F55032EC12F0000E0001926FA00EA6
:10072800936F410E946F000E956F000E966F000E3A
:10073800976F000E3D6E000E3C6E000E3F6E000E71
:100748003E6E000E416E000E406E000E436E000EAF
:10075800426E01EC16F0000E276E000E3CEC10F015
:1007680051D013EC16F027C098F028C099F029C092
:100778009AF080B036D0000E0001836F000E846FAF
:10078800400E856F95C080F096C081F097C082F0CA
:100798008FEC0EF080C089F081C08AF082C08BF0A7
:1007A80098C08CF099C08DF09AC08EF0E9EC11F0E9
:1007B8000001D8B016D098C095F099C096F09AC0AC
:1007C80097F03C4A3D2A860E2A6EFF0E2B6E7F0E4E
:1007D800F66EFC0EF76E000EF86E0800F55032EC5F
:1007E80012F098C089F099C08AF09AC08BF092C034
:1007F8008CF093C08DF094C08EF0E9EC11F00001FC
:10080800D8B00ED034503C24326E35503D20336E73
:1008180033BEA7D7335004E1140E325CD8A0A1D759
:10082800020E276E000E3CEC10F0040E2A6E000E2D
:100838002B6E7F0EF66EFC0EF76E000EF86E08003B
:10084800F55032EC12F0FE0E336EA70E326E660EC5
:10085800E82EFED7322EFCD7332EFAD701EC16F04D
:10086800000E0001956F000E966F000E976F000E38
:10087800276E010E3CEC10F051D013EC16F027C097
:1008880098F028C099F029C09AF080B236D0000EAE
:100898000001836F000E846F400E856F95C080F055
:1008A80096C081F097C082F08FEC0EF080C089F07E
:1008B80081C08AF082C08BF098C08CF099C08DF00E
:1008C8009AC08EF0E9EC11F00001D8B016D098C0AB
:1008D80095F099C096F09AC097F03E4A3F2AC00E0C
:1008E8002A6EFF0E2B6E7F0EF66EFC0EF76E000E54
:1008F800F86E0800F55032EC12F098C089F099C0F3
:100908008AF09AC08BF092C08CF093C08DF094C09E
:100918008EF0E9EC11F00001D8B00ED036503E242C
:10092800326E37503F20336E33BEA7D7335004E1C1
:10093800190E325CD8A0A1D7020E276E010E3CEC2E
:1009480010F0050E2A6E000E2B6E7F0EF66EFC0E52
:10095800F76E000EF86E0800F55032EC12F0FE0E3D
:10096800336EA70E326E660EE82EFED7322EFCD7F7
:10097800332EFAD701EC16F0000E0001956F000E29
:10098800966F000E976F000E276E020E3CEC10F06B
:1009980051D013EC16F027C098F028C099F029C060
:1009A8009AF080B436D0000E0001836F000E846F79
:1009B800400E856F95C080F096C081F097C082F098
:1009C8008FEC0EF080C089F081C08AF082C08BF075
:1009D80098C08CF099C08DF09AC08EF0E9EC11F0B7
:1009E8000001D8B016D098C095F099C096F09AC07A
:1009F80097F0404A412A450E2A6EFF0E2B6E7F0E55
:100A0800F66EFC0EF76E000EF86E0800F55032EC2C
:100A180012F098C089F099C08AF09AC08BF092C001
:100A28008CF093C08DF094C08EF0E9EC11F00001C9
:100A3800D8B00ED038504024326E39504120336E31
:100A480033BEA7D7335004E1140E325CD8A0A1D727
:100A5800020E276E020E3CEC10F0060E2A6E000EF7
:100A68002B6E7F0EF66EFC0EF76E000EF86E080009
:100A7800F55032EC12F0FE0E336EA70E326E660E93
:100A8800E82EFED7322EFCD7332EFAD701EC16F01B
:100A9800000E0001956F000E966F000E976F000E06
:100AA800276E030E3CEC10F051D013EC16F027C063
:100AB80098F028C099F029C09AF080B636D0000E78
:100AC8000001836F000E846F400E856F95C080F023
:100AD80096C081F097C082F08FEC0EF080C089F04C
:100AE80081C08AF082C08BF098C08CF099C08DF0DC
:100AF8009AC08EF0E9EC11F00001D8B016D098C079
:100B080095F099C096F09AC097F0424A432A560E3B
:100B18002A6EFF0E2B6E7F0EF66EFC0EF76E000E21
:100B2800F86E0800F55032EC12F098C089F099C0C0
:100B38008AF09AC08BF092C08CF093C08DF094C06C
:100B48008EF0E9EC11F00001D8B00ED03A504224F2
:100B5800326E3B504320336E33BEA7D7335004E187
:100B6800230E325CD8A0A1D7000EC7B8010E276E9D
:100B7800030E3CEC10F0070E2A6E000E2B6E7F0E53
:100B8800F66EFC0EF76E000EF86E0800F55032ECAB
:100B980012F012000ED2250E00019A19D8B436D0E0
:100BA80020EE02F08951D9268A51DA22DE50DE1071
:100BB800D8B416D020EE02F08951D9268A51DA220B
:100BC800DECF8FF0DDCF90F001D8F3D10500FA6EBB
:100BD8008F51FD6E9051FE6EFF6AFA509A511200C5
:100BE80089C0D9FF8AC0DAFFDECF8FF0DDCF90F061
:100BF8008FC0D9FF90C0DAFF9AC0DFFF89C0D9FF44
:100C08008AC0DAFFDE2A000EDD22D3D1000E0001F1
:100C1800936F91D093898FD08DC0D9FF8EC0DAFFA2
:100C2800DFCF8FF0020EDE26DFCF90F0000EDD2240
:100C38008FC0D9FF90C0DAFFDECF98F0DDCF99F0F2
:100C480098519911D8A462D0EE0E986FFF0E996F43
:100C58005DD0000120EE02F08951D9268A51DA22AE
:100C6800DE50DE10D8B42AD020EE02F08951D92601
:100C78008A51DA22DECF8FF0DDCF90F001D81AD07A
:100C88000500FA6E8F51FD6E9051FE6EFF6AFA50A4
:100C980098C0F6FF99C0F7FF000EF86E0F0EF764C4
:100CA80003D00800F55005D0F6CFE9FFF7CFEAFFEB
:100CB800EF5012000001984B992B28D098C0F6FFEE
:100CC80099C0F7FF000EF86E89C0D9FF8AC0DAFF15
:100CD800DECF8FF0DDCF90F08FC0D9FF90C0DAFF64
:100CE8000F0EF76403D00800F55005D0F6CFE9FFE2
:100CF800F7CFEAFFEF50DF6E0001984B992B89C0C0
:100D0800D9FF8AC0DAFFDE2A000EDD2298C0F6FF7E
:100D180099C0F7FF000EF86E0F0EF76403D00800B5
:100D2800F55005D0F6CFE9FFF7CFEAFFEF500009FD
:100D3800D8B43FD18ED78BC0F6FF8CC0F7FF000127
:100D48008B4B8C2BF86A0800F5CF9AF09A51000A61
:100D5800D8B43DD1640AD8B40AD00D0AD8B407D0A3
:100D6800050AD8B457D71F0AD8B456D722D10001DC
:100D780093A919D08DC0D9FF8EC0DAFFDFCF8FF0CD
:100D8800040EDE26DFCF90F0000EDD228FC0D9FFE3
:100D980090C0DAFFDECF94F0DECF95F0DECF96F08C
:100DA800DECF97F019D08DC0D9FF8EC0DAFFDFCF24
:100DB8008FF0020EDE26DFCF90F0000EDD228FC00E
:100DC800D9FF90C0DAFFDECF94F0DDCF95F0000EAA
:100DD80095BFFF0E966F976F97AF0AD0030E9313C8
:100DE800971F961F951F946D000E952396239723A2
:100DF800010E9A6F0A0E9A19D8B41BD09A51040D95
:100E0800310EF324F66EFC0EF420F76EF86A000E2D
:100E1800F8220900F550945D0900F550955909002C
:100E2800F55096590900F5509759D8A002D09A2B39
:100E3800E1D793C08FF0030E8F17D8B435D020EECA
:100E480002F08951D9268A51DA22DE50DE10D8B450
:100E580016D020EE02F08951D9268A51DA22DECF47
:100E68008FF0DDCF90F001D81FD00500FA6E8F51BA
:100E7800FD6E9051FE6EFF6AFA502D0E120089C069
:100E8800D9FF8AC0DAFFDECF8FF0DDCF90F08FC0B8
:100E9800D9FF90C0DAFF2D0EDF6E89C0D9FF8AC056
:100EA800DAFFDE2A000EDD2200019A51916F926B63
:100EB80091BF920775D091C08FF092C090F0D890F2
:100EC8008F379037D8908F379037310E8F25F66E41
:100ED800FC0E9021F76EF86A000EF8220900F5CF93
:100EE8002BF00900F5CF2CF00900F5CF2DF00A0002
:100EF800F5CF2EF094C027F095C028F096C029F0C1
:100F080097C02AF0BCEC12F027C080F028C081F00E
:100F180029C082F02AC083F00A0E0001846F000EF7
:100F2800856F000E866F000E876FE9EC13F00001E5
:100F38008051300F9A6F20EE02F08951D9268A51DC
:100F4800DA22DE50DE10D8B416D020EE02F0895135
:100F5800D9268A51DA22DECF8FF0DDCF90F001D882
:100F68001FD00500FA6E8F51FD6E9051FE6EFF6A1C
:100F7800FA509A51120089C0D9FF8AC0DAFFDECF31
:100F88008FF0DDCF90F08FC0D9FF90C0DAFF9AC004
:100F9800DFFF89C0D9FF8AC0DAFFDE2A000EDD2212
:100FA80000019107D8A09207912985E19229D8A438
:100FB80082D78BC0F6FF8CC0F7FF00018B4B8C2BC0
:100FC800F86A0800F5CF9AF09A51D8A4E4D5000E33
:100FD8008A6F000E896F12000001986F9268000EE8
:100FE800276E000E3CEC10F0000E276E010E3CEC54
:100FF80010F0000E276E020E3CEC10F0000E276E6B
:10100800030E3CEC10F0000E0001A66F000EA56F59
:10101800000EA86F000EA76F000EAA6F000EA96F32
:10102800000EAC6F000EAB6F000EAE6F000EAD6F12
:10103800000EB06F000EAF6F000EB26F000EB16FF2
:10104800000EB46F000EB36F000E996F000E9A6F0A
:10105800000E9B6F000E9C6F000E9D6F000E9E6F22
:10106800000E9F6F000EA06F000EA16F000EA26F02
:10107800000EA36F000EA46F01EC16F013EC16F02F
:1010880027C0B5F028C0B6F029C0B7F080B038D076
:10109800000E0001836F000E846F400E856F99C0AB
:1010A80080F09AC081F09BC082F08FEC0EF080C077
:1010B80089F081C08AF082C08BF0B5C08CF0B6C0D0
:1010C8008DF0B7C08EF0E9EC11F00001D8B018D05F
:1010D800B5C099F0B6C09AF0B7C09BF0A54BA62B47
:1010E800344A352A770E2A6EFF0E2B6E7F0EF66E67
:1010F800FC0EF76E000EF86E0800F55032EC12F098
:1011080080B238D0000E0001836F000E846F400E4D
:10111800856F9CC080F09DC081F09EC082F08FECEE
:101128000EF080C089F081C08AF082C08BF0B5C013
:101138008CF0B6C08DF0B7C08EF0E9EC11F000016C
:10114800D8B018D0B5C09CF0B6C09DF0B7C09EF01E
:10115800A74BA82B364A372AB20E2A6EFF0E2B6EE3
:101168007F0EF66EFC0EF76E000EF86E0800F55056
:1011780032EC12F080B438D0000E0001836F000EFC
:10118800846F400E856F9FC080F0A0C081F0A1C021
:1011980082F08FEC0EF080C089F081C08AF082C0A6
:1011A8008BF0B5C08CF0B6C08DF0B7C08EF0E9EC0E
:1011B80011F00001D8B018D0B5C09FF0B6C0A0F0AB
:1011C800B7C0A1F0A94BAA2B384A392A230E2A6E98
:1011D800FF0E2B6E7F0EF66EFC0EF76E000EF86E8D
:1011E8000800F55032EC12F080B638D0000E00013D
:1011F800836F000E846F400E856FA2C080F0A3C07D
:1012080081F0A4C082F08FEC0EF080C089F081C01C
:101218008AF082C08BF0B5C08CF0B6C08DF0B7C034
:101228008EF0E9EC11F00001D8B018D0B5C0A2F0EA
:10123800B6C0A3F0B7C0A4F0AB4BAC2B3A4A3B2ADC
:10124800340E2A6EFF0E2B6E7F0EF66EFC0EF76EB6
:10125800000EF86E0800F55032EC12F000019851BB
:10126800956F966B9551A55DA651800A976F96511B
:10127800800A9759D8A00AD0020E276E000E3CECBF
:1012880010F0000E0001AE6F010EAD6F9251956F18
:10129800966B9551A75DA851800A976F9651800A61
:1012A8009759D8A00AD0020E276E010E3CEC10F018
:1012B800000E0001B06F010EAF6F9351956F966BE2
:1012C8009551A95DAA51800A976F9651800A97593E
:1012D800D8A00AD0020E276E020E3CEC10F0000EC9
:1012E8000001B26F010EB16F9451956F966B9551D5
:1012F800AB5DAC51800A976F9651800A9759D8A078
:101308000AD0020E276E030E3CEC10F0000E00010E
:10131800B46F010EB36FAD51AE11D8B4AFD6AF51A3
:10132800B011D8B4ABD6B151B211D8B4A7D6B35115
:10133800B411D8B4A3D6EE0E2A6EFE0E2B6E7F0E15
:10134800F66EFC0EF76E000EF86E0800F55032ECE3
:1013580012F0020E2A6E000E2B6E7F0EF66EFC0E39
:10136800F76E000EF86E0800F55032EC12F0FE0E23
:101378000001966FA70E956F650EE82EFED7952F84
:10138800FCD7962FFAD700D01200000E0001F36F99
:10139800010EF26F0001F251F311D8B40BD05F0EB9
:1013A8002D6EFE0E2E6E2DEC0DF0000E0001F36F6B
:1013B800000EF26F61EC15F00001E86FE851F46F70
:1013C800F56BF451EDEC15F0D00E0001E86FFF0E4F
:1013D800E96FF4C0EAF0F5C0EBF0E851EA27E9510B
:1013E800EB23EA51EB11D8A403D00EEC15F0CDD7BE
:1013F800D00EE86FFF0EE96FF4C0EAF0F5C0EBF02D
:10140800E851EA27E951EB23EA05EB11D8A473D197
:1014180009EC00F0010EF7EC15F0C30E0001E86FBF
:10142800CD0EE82EFED7E82FFCD7800EF7EC15F08E
:10143800410E0001E86FEE0EE82EFED7E82FFCD72C
:1014480000F0120E00019B6FFF0E9C6F2CEC15F044
:10145800C00EF7EC15F0E40E00019B6FFE0E9C6FBA
:101468002CEC15F061EC15F002D061EC15F00001E0
:10147800E86FE851F06FF16BD00EE86FFF0EE96F7F
:10148800F0C0EAF0F1C0EBF0E851EA27E951EB23AC
:10149800EA05EB11D8A4E9D7E2EC15F0010EF7EC58
:1014A80015F0C30E0001E86FCD0EE82EFED7E82F29
:1014B800FCD7800EF7EC15F0410E0001E86FEE0E38
:1014C800E82EFED7E82FFCD700F0DB0E00019B6F5B
:1014D800FE0E9C6F2CEC15F0C60E2A6EFE0E2B6EBF
:1014E8007F0EF66EFC0EF76E000EF86E0800F550D3
:1014F80032EC12F094EC0BF082EC03F07DEC14F07B
:101508008BC0ECF08CC0EDF08DC0EEF08EC0EFF02B
:10151800E50E00019B6FFF0E9C6F2CEC15F0330E4F
:101528000001E96FBB0EE86FDF0EE82EFED7E82F4B
:10153800FCD7E92FFAD700D0000E0001F76F000E94
:10154800F66FF7BF06D0F75155E1080EF65DD8B033
:1015580051D0010EF7EC15F0C30E0001E86FCD0E67
:10156800E82EFED7E82FFCD7800EF7EC15F0410ED9
:101578000001E86FEE0EE82EFED7E82FFCD700F04A
:10158800CE0E00019B6FFF0E9C6F010EF6259D6F1E
:10159800000EF7219E6FA50EF625D96E010EF721D4
:1015A800DA6EDF50E86FE851050D3A0EF3249F6FAD
:1015B800010EF420A06FD890F635D96EF735DA6EA3
:1015C800AD0ED926010EDA22DECFA1F0DDCFA2F0D2
:1015D8002CEC15F0660E0001E96F760EE86FC10E6F
:1015E800E82EFED7E82FFCD7E92FFAD70001F64BF3
:1015F800F72BA7D7010EF7EC15F0C30E0001E86F23
:10160800CD0EE82EFED7E82FFCD7800EF7EC15F0AC
:10161800410E0001E86FEE0EE82EFED7E82FFCD74A
:1016280000F0DA0E00019B6FFF0E9C6F2CEC15F09A
:10163800C00EF7EC15F0670E00019B6FFF0E9C6F54
:101648003CC09DF03DC09EF03EC09FF03FC0A0F062
:1016580040C0A1F041C0A2F042C0A3F043C0A4F032
:101668002CEC15F0660E0001E96F760EE86FC10EDE
:10167800E82EFED7E82FFCD7E92FFAD7010EF7ECB2
:1016880015F0C30E0001E86FCD0EE82EFED7E82F47
:10169800FCD7800EF7EC15F0410E0001E86FEE0E56
:1016A800E82EFED7E82FFCD700F0F50E00019B6F5F
:1016B800FF0E9C6F2CEC15F0C00EF7EC15F0FB0E2E
:1016C80000019B6FFF0E9C6FECC09DF0EDC09EF07B
:1016D800EEC09FF0EFC0A0F02CEC15F0660E0001F4
:1016E800E96F760EE86FC10EE82EFED7E82FFCD71B
:1016F800E92FFAD721D7D00E0001E86FFF0EE96F66
:10170800F4C0EAF0F5C0EBF0E851EA27E951EB2321
:10171800020EEA19EB11D8A43DD678EC15F035D6AF
:10172800000E356E000E346E000E376E000E366EEB
:10173800000E396E000E386E000E3B6E000E3A6ECB
:101748003E0E2A6EFE0E2B6E7F0EF66EFC0EF76EA8
:10175800000EF86E0800F55032EC12F057C042F255
:1017680058C043F2420E2A6E020E2B6E7F0EF66EA2
:10177800FC0EF76E000EF86E0800F55032EC12F011
:10178800000E0201456F080E446F45BF1200455117
:1017980003E14405D8A0120021EE00F012EE00F09B
:1017A800210EDBCFE3FFE806FCE24451300F1F6F48
:1017B800000E2A6E020E2B6E7F0EF66EFC0EF76E72
:1017C800000EF86E0800F55032EC12F0FF0E000122
:1017D800B86FFF0EB96F44C2BAF045C2BBF0B8513A
:1017E800BA27B951BB23A50EBA25D96E010EBB2164
:1017F800DA6EDF50D8B423D1FF0EB86FFF0EB96F81
:1018080044C2BAF045C2BBF0B851BA27B951BB239C
:10181800A50EBA25D96E010EBB21DA6EDF50BC6F5A
:10182800BC51040DEA0EF3240201466FFD0EF420AC
:10183800476FFE0E0001B86FFF0EB96F44C2BAF0D1
:1018480045C2BBF0D890BA37BB37B851BA27B9519F
:10185800BB23AD0EBA25D96E010EBB21DA6EDECFE1
:1018680048F2DDCF49F2220E9B6F020E9C6FB00E3C
:101878009D6FFE0E9E6F46C2F6FF47C2F7FFF86ADD
:101888000800F550276E286A48C229F049C22AF094
:101898009EEC15F027C09FF028C0A0F0010E0201B1
:1018A80046250001B86F000E020147210001B96FFB
:1018B800B8C0F6FFB9C0F7FFF86A0800F550276E00
:1018C800286A48C229F049C22AF09EEC15F027C0C0
:1018D800A1F028C0A2F0020E020146250001BA6F4D
:1018E800000E020147210001BB6FBAC0F6FFBBC062
:1018F800F7FFF86A0800F550276E286A48C229F0F1
:1019080049C22AF09EEC15F027C0A3F028C0A4F025
:10191800030E020146250001BC6F000E020147219B
:101928000001BD6FBCC0F6FFBDC0F7FFF86A080034
:10193800F550276E286A48C229F049C22AF09EEC61
:1019480015F027C0A5F028C0A6F0CCEC14F0220EA4
:101958002A6E020E2B6E7F0EF66EFC0EF76E000ED0
:10196800F86E0800F55032EC12F0010EF7EC15F0A5
:10197800C30E0001B86FCD0EE82EFED7B82FFCD7E6
:10198800800EF7EC15F0410E0001B86FEE0EE82E50
:10199800FED7B82FFCD700F0950E00019B6FFF0E05
:1019A8009C6F44C29DF045C29EF02CEC15F0010ED0
:1019B800020146250001B86F000E0201472100010F
:1019C800B96FB8C0F6FFB9C0F7FFF86A0800F5505C
:1019D80002014803F3CF92F0020E46250001BA6FC8
:1019E800000E020147210001BB6FBAC0F6FFBBC061
:1019F800F7FFF86A0800F55002014803F3CF93F0A7
:101A0800030E46250001BC6F000E020147210001AC
:101A1800BD6FBCC0F6FFBDC0F7FFF86A0800F550FF
:101A280002014803F3CF94F046C2F6FF47C2F7FF1E
:101A3800F86A0800F5504803F350F0EC07F002018B
:101A48004407D8A0450745BF1200455101E1A1D67A
:101A5800A3D6000E0001816F010E806F000E856F06
:101A6800100E846F86698769000E836F000E826F7F
:101A7800010EF7EC15F0C30E2F6ECD0EE82EFED733
:101A88002F2EFCD700F0800EF7EC15F0410E2F6ECC
:101A9800EE0EE82EFED72F2EFCD700D0000E000148
:101AA800896F000E886F89BF08D0895105E1110E32
:101AB800885DD8B08DD001D08BD088512D242F6E61
:101AC80089512E20306E2FC0F6FF30C0F7FF000E70
:101AD800F86E0F0EF76403D00800F55005D0F6CF66
:101AE800E9FFF7CFEAFFEF500009D8B471D0000141
:101AF80088512D242F6E89512E20306E2FC0F6FF6D
:101B080030C0F7FF000EF86E0F0EF76403D0080020
:101B1800F55005D0F6CFE9FFF7CFEAFFEF50200ADE
:101B2800D8A404D088C082F089C083F0000188510D
:101B38002D242F6E89512E20306E2FC0F6FF30C015
:101B4800F7FF000EF86E0F0EF76403D00800F5508B
:101B580005D0F6CFE9FFF7CFEAFFEF500A0AD8A47D
:101B680008D088C086F089C087F086C084F087C016
:101B780085F0100E000188198911D8A421D0885148
:101B88002D242F6E89512E20306E2FC0F6FF30C0C5
:101B9800F7FF000EF86E0F0EF76403D00800F5503B
:101BA80005D0F6CFE9FFF7CFEAFFEF50200AD8B407
:101BB80007D0000187AF04D082C084F083C085F0CD
:101BC8000001884B892B89BF78D7895101E16FD7EC
:101BD800000E0001896F000E886F89BF08D08951F7
:101BE80005E1200E885DD8B0120001D0120088519E
:101BF8002D242F6E89512E20306E2FC0F6FF30C055
:101C0800F7FF000EF86E0F0EF76403D00800F550CA
:101C180005D0F6CFE9FFF7CFEAFFEF500009D8B4B7
:101C2800120000018451881953E185518919D8A4FB
:101C38004FD0820EF66EFC0EF76E000EF86E08009E
:101C4800F5502F6E306A2F50805D8151800A316EB9
:101C58003050800A3158D8B03BD0804B812BC00E11
:101C6800F7EC15F0000188512D242F6E89512E2094
:101C7800306E2FC0F6FF30C0F7FF000EF86E0F0E63
:101C8800F76403D00800F55005D0F6CFE9FFF7CF89
:101C9800EAFFEF50200AD8B435D0000188512D242E
:101CA8002F6E89512E20306E2FC0F6FF30C0F7FFFF
:101CB800000EF86E0F0EF76403D00800F55005D03B
:101CC800F6CFE9FFF7CFEAFFEF500A0AD8B41AD0E7
:101CD800000188512D242F6E89512E20306E2FC07F
:101CE800F6FF30C0F7FF000EF86E0F0EF76403D052
:101CF8000800F55005D0F6CFE9FFF7CFEAFFEF501F
:101D0800EDEC15F00001884B892B89BF70D78951FC
:101D180001E167D7120082C02FF0306A316A0001F2
:101D280081352F3601E330802F50886F85C02FF022
:101D3800306A316A84352F3601E330802F50876F3F
:101D48008851D8B40BD08751885DD8B00ED088514F
:101D5800000887252F6E180E2F6407D083C080F0E7
:101D680084C081F085C082F012008751D8B40BD0AE
:101D78008851875DD8B00ED08751000888252F6E0E
:101D8800180E2F6407D080C080F081C081F082C017
:101D980082F01200060E866F82BF868F85BF868D01
:101DA800818FFF0E8017FF0E8117000E8217848F18
:101DB800FF0E8317FF0E8417000E85178751885D65
:101DC800D8B01BD0D8908337843785378707885198
:101DD8008719D8B40DD0860786C02FF0070E2F16A6
:101DE800D8B406D0EFD7D890823381338033882B8C
:101DF80087518819D8B41FD0F6D78851875DD8B0D5
:101E08001AD0D89080378137823788078851871948
:101E1800D8B40DD0860786C02FF0070E2F16D8B479
:101E280006D0EFD7D890853384338333872B8751F7
:101E38008819D8A4F7D786AF0CD0FF0E801BFF0EE9
:101E4800811BFF0E821B010E8027000E8123000ECE
:101E5800822386AD0CD0FF0E831BFF0E841BFF0E62
:101E6800851B010E8327000E8423000E8523000E98
:101E7800866F80518327815184238251852385AFC2
:101E88000ED0FF0E831BFF0E841BFF0E851B010E59
:101E98008327000E8423000E8523010E866F83C0DE
:101EA80027F084C028F085C029F088C02AF086C0B1
:101EB8002BF098EC10F027C080F028C081F029C0E2
:101EC80082F012000BC00FF0106A116A0A340F3644
:101ED80001E310800F50146E0EC00FF0106A116AE3
:101EE8000D340F3601E310800F50136E1450D8B420
:101EF8000BD01350145CD8B00ED014500008132423
:101F08000F6E180E0F6407D00CC009F00DC00AF050
:101F18000EC00BF012001350D8B40BD01450135C41
:101F2800D8B00ED01350000814240F6E180E0F648A
:101F380007D009C009F00AC00AF00BC00BF0120064
:101F4800060E126E0BBE128E0EBE128C0A8EFF0E7D
:101F58000916FF0E0A16000E0B160D8EFF0E0C1634
:101F6800FF0E0D16000E0E161350145CD8B01BD0C1
:101F7800D8900C360D360E36130614501318D8B4F4
:101F88000DD0120612C00FF0070E0F16D8B406D0E7
:101F9800EFD7D8900B320A320932142A135014188A
:101FA800D8B41FD0F6D71450135CD8B01AD0D89034
:101FB80009360A360B36140614501318D8B40DD047
:101FC800120612C00FF0070E0F16D8B406D0EFD7BE
:101FD800D8900E320D320C32132A13501418D8A48C
:101FE800F7D712AE0CD0FF0E091AFF0E0A1AFF0E11
:101FF8000B1A010E0926000E0A22000E0B2212AC43
:102008000CD0FF0E0C1AFF0E0D1AFF0E0E1A010E41
:102018000C26000E0D22000E0E22000E126E095024
:102028000C260A500D220B500E220EAE0ED0FF0EBB
:102038000C1AFF0E0D1AFF0E0E1A010E0C26000EBA
:102048000D22000E0E22010E126E0CC001F00DC002
:1020580002F00EC003F014C004F012C005F0EFEC5B
:1020680010F001C009F002C00AF003C00BF0120022
:10207800286E4CD02750D8A403D08A868B901200A3
:102088002704D8A403D08A968B801200020E271842
:10209800D8A412008A868B8012002750D8A403D0B7
:1020A8008B828B9412002704D8A403D08B928B8444
:1020B8001200020E2718D8A412008B828B841200FB
:1020C8002750D8A403D08B8A8B9C12002704D8A44D
:1020D80003D08B9A8B8C1200020E2718D8A41200FA
:1020E8008B8A8B8C12002750D8A403D08B8E8D90AE
:1020F80012002704D8A403D08B9E8D801200020EF4
:102108002718D8A412008B8E8D8012002850000A40
:10211800D8B4B0D7010AD8B4C0D7030AD8B4D0D736
:10212800010AD8A41200DFD72A50D8B405D0275006
:1021380028102910D8A40CD0000E276E000E286E87
:10214800000E296E12002A2AD89029322832273206
:10215800000E27142C6E000E28142D6EFE0E291466
:102168002E6E2C502D102E10D8B40CD0ECD72A2A55
:10217800010E2726000E2822000E2922D890293287
:1021880028322732000E27142C6E000E28142D6ECC
:10219800FF0E29142E6E2C502D102E10D8B406D0F8
:1021A800E6D72A06D89027362836293628BE03D0FF
:1021B800020E2A60F6D72AA0289ED8902A322A50E2
:1021C80029122B50D8A4298E27C027F028C028F020
:1021D80029C029F012000450D8B405D001500210CB
:1021E8000310D8A40CD0000E016E000E026E000E73
:1021F800036E1200042AD890033202320132000E14
:102208000114066E000E0214076EFE0E0314086E0B
:10221800065007100810D8B40CD0ECD7042A010EC9
:102228000126000E0222000E0322D8900332023249
:102238000132000E0114066E000E0214076EFF0E26
:102248000314086E065007100810D8B406D0E6D755
:102258000406D89001360236033602BE03D0020EB9
:102268000460F6D704A0029ED890043204500312EA
:102278000550D8A4038E01C001F002C002F003C0CB
:1022880003F0120001537461727465642070616315
:102298006B6167696E6720636F6D706172746D65DD
:1022A8006E74207800000153746172746564206351
:1022B8006F6D706172746D656E74207800004E4F9A
:1022C8004E450042000000004E0000000053000090
:1022D80000005700000000424E000000425300007A
:1022E80000425700000042424E00004242530000A4
:1022F8004242570000424E570000425357000042E6
:1023080057570000424E4E5700425357570042421B
:1023180053570042424E5700424E4E5700424E4ECF
:072328004E00425757570019
:102330000600FACF15F0FBCF16F0E9CF17F0EACF81
:1023400018F0E1CF19F0E2CF1AF0D9CF1BF0DACFB5
:102350001CF0F3CF1DF0F4CF1EF0F6CF1FF0F7CF37
:1023600020F0F8CF21F0F5CF22F059C023F05AC069
:1023700024F05BC025F05CC026F0F2BAF2A403D0D2
:10238000F294B2EC13F026C05CF025C05BF024C0E0
:102390005AF023C059F022C0F5FF21C0F8FF20C039
:1023A000F7FF1FC0F6FF1EC0F4FF1DC0F3FF1CC0E7
:1023B000DAFF1BC0D9FF1AC0E2FF19C0E1FF18C045
:1023C000EAFF17C0E9FF16C0FBFF15C0FAFF5992DC
:1023D000110000018BAF16D089C08FF08AC090F039
:1023E0008BC091F08F1F901F911F8F2B000E902399
:1023F0009123000E8F25896F000E90218A6F800E29
:1024000091218B6F8EAF16D08CC08FF08DC090F065
:102410008EC091F08F1F901F911F8F2B000E902365
:102420009123000E8F258C6F000E90218D6F800EF2
:1024300091218E6F000E891B000E8A1B800E8B1B54
:10244000000E8C1B000E8D1B800E8E1B8C51895D27
:102450008D518A598E518B59D8B002D0D890120024
:10246000D88012002F6E000E316E000E306E28ECF8
:1024700016F02FC028F0296A1FEC16F01FD030503C
:102480002A242C6E31502B202D6E2CC0F6FF2DC02F
:10249000F7FF000EF86E0F0EF76403D00800F5503A
:1024A00005D0F6CFE9FFF7CFEAFFEF502E6E2E50A2
:1024B000286E296A1FEC16F0304A312A30502A243F
:1024C0002C6E31502B202D6E2CC0F6FF2DC0F7FF47
:1024D000000EF86E0F0EF76403D00800F55005D01B
:1024E000F6CFE9FFF7CFEAFFEF500009D8A4C7D72E
:1024F00024EC16F01200000E896E000E8A6E000E9B
:102500008B6E000E8C6E000E8D6E9268F70E936EC1
:10251000000E946E000E956E000E966E000EC26E4A
:102520000F0EC16EA00E0001806F860E816F010E2E
:10253000826F000E836F4EEC14F0A6EC14F0010EC7
:10254000F7EC15F0C30E0001F86FCD0EE82EFED7A4
:10255000F82FFCD7800EF7EC15F0410E0001F86F54
:10256000EE0EE82EFED7F82FFCD700F00EEC15F09B
:10257000C9EC09F007EF00F0000E2F6E000E306E70
:10258000000E316E000E326E2B502C102D102E10BE
:10259000D8B42AD0010E336E06D0D8902B362C3604
:1025A0002D362E36332A2EAEF8D7D8902F36303629
:1025B000313632362B50275C2C5028582D50295854
:1025C0002E502A58D8A009D02B50275E2C50285ABC
:1025D0002D50295A2E502A5A2F80D8902E322D3223
:1025E0002C322B32332EE1D72FC027F030C028F009
:1025F00031C029F032C02AF01200286E2850F00BAA
:10260000276E8C500F0B8C6E27508C108C6E000E2A
:10261000F2BE010E4E6EF29E8C86530EE82EFED751
:1026200000F08C96C80E00D0E82EFDD74EB002D038
:10263000F29E01D0F28E2838F00B286E2850F00B55
:10264000276E8C500F0B8C6E27508C108C6E000EEA
:10265000F2BE010E4E6EF29E8C86530EE82EFED711
:1026600000F08C96C80E00D0E82EFDD74EB002D0F8
:10267000F29E01D0F28E1200800E2A6E000E2B6E9A
:1026800079EC13F082C027F0286A0E0E2A6E100E25
:10269000296E9EEC15F0000181513C0D8051316E88
:1026A000326AF3503126F450322227503126285016
:1026B000322283C027F0286A510E2A6E800E296EBE
:1026C0009EEC15F0275031262850322231C087F079
:1026D00032C088F00001000E88BFFF0E896F8A6F3C
:1026E00087C02DF088C02EF089C02FF08AC030F04E
:1026F000120028EC16F0000E296ED00E286E1FEC8A
:1027000016F0000E296E000E286E1FEC16F024EC59
:1027100016F028EC16F0000E296ED10E286E1FEC74
:1027200016F0000E2C6E050E2C6401D00ED02C502D
:10273000010DF3502A24D96EF4502B20DA6E000ECE
:10274000B1EC15F0DF6E2C2AEED720EE06F02A5001
:10275000D9262B50DA22010EB1EC15F0DF6E24ECF5
:1027600016F012004FC009F050C00AF051C00BF033
:10277000CD0E0C6ECC0E0D6E3D0E0E6E66EC0FF097
:1027800009C04FF00AC050F00BC051F0010E01011A
:10279000BD27000EBE23BF23C0234D50D8B414D094
:1027A00052C009F053C00AF054C00BF0CD0E0C6EAD
:1027B000CC0E0D6E3D0E0E6E66EC0FF009C052F0A1
:1027C0000AC053F00BC054F0F20ED76EC00ED66E96
:1027D000120000018451851186118711D8B424D0CC
:1027E000010E886F06D0D8908437853786378737B3
:1027F000882B87AFF8D78451805D855181598651E8
:10280000825987518359D8A008D08451805F85515F
:10281000815B8651825B8751835BD8908733863397
:1028200085338433882FE7D780C080F081C081F062
:1028300082C082F083C083F012008C0EF66E220EEE
:10284000F76E000EF86E01EE00F010EEA3F0090036
:10285000F5CFEEFFE550E150FAE1340EF66E2C0EA6
:10286000F76E000EF86E00EE4FF010EE0AF0090061
:10287000F5CFEEFFE550E150FAE101EEA3F0220EB4
:10288000EE6AE806FDE100EE34F01B0EEE6AE806A3
:10289000FDE15990599200017BEF12F0C69A94869F
:1028A0009488800EC76E280EC66E000EC56E000E90
:1028B000276E5A0E286E620E296E020E2A6E80C096
:1028C00084F081C085F082C086F083C087F0020E5C
:1028D000D89000018437853786378737E82EF8D7B8
:1028E00084C02BF085C02CF086C02DF087C02EF060
:1028F000BCEC12F02704C86E12003CEC13F02DC0A3
:1029000044F02EC045F02FC046F030C047F048C01C
:102910008FF049C090F04AC091F04BC092F0000196
:102920008F1F901F911F921F8F2B000E90239123BA
:10293000922344508F258B6F455090218C6F4650C9
:1029400091218D6F475092218E6F1200C30E2A6E17
:10295000CD0EE82EFED72A2EFCD700F0330EF7EC72
:1029600015F0320EF7EC15F0280EF7EC15F00F0EFF
:10297000F7EC15F0060EF7EC15F0010EF7EC15F07C
:10298000C30E2A6ECD0EE82EFED72A2EFCD700F0FD
:102990000F0EF7EC15F012009BC0A9F09CC0AAF036
:1029A000000E0001AB6F000EAC6F9F0EA76F000E04
:1029B000A86FA90E896F000E8A6F9DC08BF09EC014
:1029C0008CF0A70E8D6F000E8E6FCEEC05F0A9C0B7
:1029D000D9FFAAC0DAFF000EDF6E1200306E800E43
:1029E000F7EC15F0410E2E6EEE0EE82EFED72E2ED1
:1029F000FCD700D0000E2F6E04D0C00EF7EC15F0FF
:102A00002F2A2D502F5CD8A0F8D73050D8B4120000
:102A1000010E2A6E3050D4EC15F01200010E2D6E0E
:102A2000FF0E2E6E2DEC0DF061EC15F000018A6F9B
:102A30008A51326E336AD00E8A6FFF0E8B6F32C0AE
:102A40008CF033C08DF08A518C278B518D238C05EF
:102A50008D11D8B41200E8D7000E0001A76F000E48
:102A6000A86FDA0EA96F2B0EAA6F9D0EA56F000E30
:102A7000A66FA70E896F000E8A6F9BC08BF09CC05B
:102A80008CF0A50E8D6F000E8E6FCEEC05F012004F
:102A90002DC031F02EC032F004D0314A322A2F4AF4
:102AA000302A2FC0F6FF30C0F7FFF86A31C0D9FFD7
:102AB00032C0DAFF0800F5CFDFFFDF50D8B41200D4
:102AC000ECD781A2FED781380F0B0F0B276E81B296
:102AD000FED700F02750010D590EF324F66EFC0EC0
:102AE000F420F76EF86A000EF8220800F550120084
:102AF0007D0E2D6EFE0E2E6E2DEC0DF061EC15F0A0
:102B0000326E325000018A6F8B6B2A0E8A198B113C
:102B1000D8B41200F3D732C02DF033C02EF02DEC14
:102B20000DF0660E00018B6F760E8A6FC10EE82ED7
:102B3000FED78A2FFCD78B2FFAD7120027502902F5
:102B4000F3CF2BF0F4CF2CF027502A02F3502C2691
:102B500028502902F3502C262BC027F02CC028F037
:102B60001200286E0AEC16F0C5860AEC16F0C9CFE2
:102B700029F00AEC16F028B002D0C59A01D0C58A17
:102B8000C588295012004C50D8A41200D59CD59A63
:102B9000D596D584D582D580F20ED76EC00ED66E6E
:102BA000D58EF28AF28E12002B6E2BC02CF02C5098
:102BB000D8B412002A44E846FC0B1009F7EC15F0D3
:102BC0002C06F5D73CEC13F02DC048F02EC049F090
:102BD0002FC04AF030C04BF01200296E8C8429506F
:102BE000FDEC12F0C80E00D0E82EFDD71200296EC1
:102BF0008C942950FDEC12F0C80E00D0E82EFDD7C1
:102C00001200C3EC15F0000E4F6E000E506E000E59
:102C1000516E1200C7B4FED7C5CF27F01F0E27167E
:102C2000D8B41200F7D74FC027F050C028F051C0D9
:102C300029F012000080BF0080BF433008000AEC7A
:102C400016F028C0C9FF12000AEC16F0C584120065
:082C50000AEC16F0C580120029
:10FC300000010000000A00000064000000E803006A
:10FC40000010270000A086010040420F0080969817
:10FC50000000E1F50500CA9A3B31323342343536B3
:10FC60004E373839532A302357002A3C2D20202084
:10FC700028202D20292020202000555B777FFF1091
:10FC8000000102100228496E76616C696420656E7D
:10FC90007472790A506C65617365207472792061A1
:10FCA0006761696E0000546F6F206D616E79206628
:10FCB000617374656E6572730000000000000000DF
:10FCC000000000000000546F6F206D616E792062AB
:10FCD0006F6C747300000000000000000000000062
:10FCE000000000000000546F6F206D616E79206E7F
:10FCF00075747300000000000000000000000000A8
:10FD0000000000000000546F6F206D616E79207755
:10FD1000617368657273000000000000000000005D
:10FD2000000000000000546F6F206D616E79207339
:10FD30007061636572730000000000000000000045
:10FD40000000000000004E6F2066617374656E65F0
:10FD500072732073656C6563746564000000000055
:10FD6000000000000000417373656D626C792073C0
:10FD7000746570730A2A3C2D202028342D382920E0
:10FD80002020202000000046617374656E65727348
:10FD900020696E2043780A2A3C2D28424E53572969
:10FDA000202020202D3E2300486F77206D616E7942
:10FDB00020736574733F0A2A3C2D202028312D348E
:10FDC000292020202020000000436F6E6669726D9C
:10FDD0003F0A2A3C2D202028413A592F423A4E29E9
:10FDE00020000000000000000000000000000100F2
:10FDF00000000001000000000100000000010101FE
:10FE000000000100010001000001020100000200E9
:10FE100001000200000101010001010001010100D7
:10FE200000020101000201000102020001010201C1
:10FE3000000101020001010300000100000301456F
:10FE40006E746572656420746865207061636B61AF
:10FE500067696E672066756E6374696F6E00003047
:10FE60003A536C65657020313A426567696E200AC5
:10FE7000323A2056696577204C6F6773004E6F7475
:10FE8000207468657265207965740A2A20746F2071
:10FE900072657475726E0053746172746564206962
:10FEA0006E70757420656E7472792C20686900001C
:10FEB00001423A2564204E3A256420533A256420B5
:10FEC000573A25640000015374617274696E6720AB
:10FED0007061636B6167696E67000053746172746F
:10FEE000696E67207061636B6167696E67000144CA
:10FEF0006F6E6520636F6D706172746D656E7400F6
:10FF0000005072657373203120746F2062656769D9
:10FF10006E005072657373203120746F20737461AA
:10FF20007274000153706163657220436F756E7463
:10FF3000656400000157617368657220436F756ED8
:10FF400074656400000153706163657220636F75AE
:10FF50006E74656400000157617368657220636F99
:10FF6000756E7465640000422564204E256420533C
:10FF70002564205725640001426F6C7420436F751F
:10FF80006E746564000001426F6C7420636F756E5F
:10FF90007465640000436F6D706172746D656E749A
:10FFA0002025640001446F6E6520696E707574735E
:10FFB0000000014E757420436F756E746564000017
:10FFC000014E757420636F756E746564000043257F
:10FFD000643A202573207825640052656D61696E4E
:10FFE000696E673A0053756D6D6172793A00286EDB
:10FFF000756C6C290054696D653A00256C640000CD
:020000040020DA
:08000000FFFFFFFFFFFFFFFF00
:020000040030CA
:0E000000FF061F1EFF8181FF0FC00FE00F40A3
:00000001FF
